{
	"BalanceGame.sol": {
		"BalanceGame": {
			"abi": [
				{
					"inputs": [
						{
							"internalType": "uint256",
							"name": "_cost",
							"type": "uint256"
						}
					],
					"stateMutability": "nonpayable",
					"type": "constructor"
				},
				{
					"inputs": [
						{
							"internalType": "address",
							"name": "owner",
							"type": "address"
						}
					],
					"name": "OwnableInvalidOwner",
					"type": "error"
				},
				{
					"inputs": [
						{
							"internalType": "address",
							"name": "account",
							"type": "address"
						}
					],
					"name": "OwnableUnauthorizedAccount",
					"type": "error"
				},
				{
					"anonymous": false,
					"inputs": [
						{
							"indexed": true,
							"internalType": "uint256",
							"name": "gameId",
							"type": "uint256"
						}
					],
					"name": "NewGame",
					"type": "event"
				},
				{
					"anonymous": false,
					"inputs": [
						{
							"indexed": true,
							"internalType": "uint256",
							"name": "gameId",
							"type": "uint256"
						},
						{
							"indexed": true,
							"internalType": "address",
							"name": "votedAddress",
							"type": "address"
						},
						{
							"indexed": true,
							"internalType": "enum BalanceGame.VoteOpttion",
							"name": "voteOpttion",
							"type": "uint8"
						}
					],
					"name": "NewVote",
					"type": "event"
				},
				{
					"anonymous": false,
					"inputs": [
						{
							"indexed": true,
							"internalType": "address",
							"name": "previousOwner",
							"type": "address"
						},
						{
							"indexed": true,
							"internalType": "address",
							"name": "newOwner",
							"type": "address"
						}
					],
					"name": "OwnershipTransferred",
					"type": "event"
				},
				{
					"anonymous": false,
					"inputs": [
						{
							"indexed": true,
							"internalType": "address",
							"name": "",
							"type": "address"
						},
						{
							"indexed": false,
							"internalType": "bool",
							"name": "status",
							"type": "bool"
						}
					],
					"name": "WhiteListUpdate",
					"type": "event"
				},
				{
					"inputs": [],
					"name": "COST",
					"outputs": [
						{
							"internalType": "uint256",
							"name": "",
							"type": "uint256"
						}
					],
					"stateMutability": "view",
					"type": "function"
				},
				{
					"inputs": [],
					"name": "GAMEINDEX",
					"outputs": [
						{
							"internalType": "uint256",
							"name": "",
							"type": "uint256"
						}
					],
					"stateMutability": "view",
					"type": "function"
				},
				{
					"inputs": [
						{
							"internalType": "string",
							"name": "_questionA",
							"type": "string"
						},
						{
							"internalType": "string",
							"name": "_questionB",
							"type": "string"
						},
						{
							"internalType": "uint256",
							"name": "_deadline",
							"type": "uint256"
						}
					],
					"name": "createVote",
					"outputs": [
						{
							"internalType": "uint256",
							"name": "",
							"type": "uint256"
						}
					],
					"stateMutability": "payable",
					"type": "function"
				},
				{
					"inputs": [
						{
							"internalType": "uint256",
							"name": "",
							"type": "uint256"
						}
					],
					"name": "findGameById",
					"outputs": [
						{
							"internalType": "uint256",
							"name": "id",
							"type": "uint256"
						},
						{
							"internalType": "string",
							"name": "questionA",
							"type": "string"
						},
						{
							"internalType": "string",
							"name": "questionB",
							"type": "string"
						},
						{
							"internalType": "uint256",
							"name": "voteCountA",
							"type": "uint256"
						},
						{
							"internalType": "uint256",
							"name": "voteCountB",
							"type": "uint256"
						},
						{
							"internalType": "uint256",
							"name": "deadline",
							"type": "uint256"
						},
						{
							"internalType": "address",
							"name": "creator",
							"type": "address"
						}
					],
					"stateMutability": "view",
					"type": "function"
				},
				{
					"inputs": [],
					"name": "owner",
					"outputs": [
						{
							"internalType": "address",
							"name": "",
							"type": "address"
						}
					],
					"stateMutability": "view",
					"type": "function"
				},
				{
					"inputs": [],
					"name": "renounceOwnership",
					"outputs": [],
					"stateMutability": "nonpayable",
					"type": "function"
				},
				{
					"inputs": [
						{
							"internalType": "address",
							"name": "newOwner",
							"type": "address"
						}
					],
					"name": "transferOwnership",
					"outputs": [],
					"stateMutability": "nonpayable",
					"type": "function"
				},
				{
					"inputs": [
						{
							"internalType": "uint256",
							"name": "_gameId",
							"type": "uint256"
						},
						{
							"internalType": "enum BalanceGame.VoteOpttion",
							"name": "_voteOption",
							"type": "uint8"
						}
					],
					"name": "vote",
					"outputs": [],
					"stateMutability": "payable",
					"type": "function"
				},
				{
					"inputs": [
						{
							"internalType": "address",
							"name": "",
							"type": "address"
						}
					],
					"name": "whiteList",
					"outputs": [
						{
							"internalType": "bool",
							"name": "",
							"type": "bool"
						}
					],
					"stateMutability": "view",
					"type": "function"
				},
				{
					"inputs": [
						{
							"internalType": "address",
							"name": "_newAddress",
							"type": "address"
						},
						{
							"internalType": "bool",
							"name": "_status",
							"type": "bool"
						}
					],
					"name": "whitelistUpdate",
					"outputs": [],
					"stateMutability": "nonpayable",
					"type": "function"
				}
			],
			"devdoc": {
				"errors": {
					"OwnableInvalidOwner(address)": [
						{
							"details": "The owner is not a valid owner account. (eg. `address(0)`)"
						}
					],
					"OwnableUnauthorizedAccount(address)": [
						{
							"details": "The caller account is not authorized to perform an operation."
						}
					]
				},
				"kind": "dev",
				"methods": {
					"owner()": {
						"details": "Returns the address of the current owner."
					},
					"renounceOwnership()": {
						"details": "Leaves the contract without owner. It will not be possible to call `onlyOwner` functions. Can only be called by the current owner. NOTE: Renouncing ownership will leave the contract without an owner, thereby disabling any functionality that is only available to the owner."
					},
					"transferOwnership(address)": {
						"details": "Transfers ownership of the contract to a new account (`newOwner`). Can only be called by the current owner."
					}
				},
				"version": 1
			},
			"evm": {
				"assembly": "    /* \"BalanceGame.sol\":116:2149  contract BalanceGame is Ownable(msg.sender) {    ... */\n  mstore(0x40, 0xa0)\n    /* \"BalanceGame.sol\":506:507  0 */\n  0x00\n    /* \"BalanceGame.sol\":479:507  uint256 public GAMEINDEX = 0 */\n  0x01\n  sstore\n    /* \"BalanceGame.sol\":538:635  constructor(uint256 _cost) {... */\n  callvalue\n  dup1\n  iszero\n  tag_1\n  jumpi\n  revert(0x00, 0x00)\ntag_1:\n  pop\n  mload(0x40)\n  sub(codesize, bytecodeSize)\n  dup1\n  bytecodeSize\n  dup4\n  codecopy\n  dup2\n  dup2\n  add\n  0x40\n  mstore\n  dup2\n  add\n  swap1\n  tag_2\n  swap2\n  swap1\n  tag_3\n  jump\t// in\ntag_2:\n    /* \"BalanceGame.sol\":148:158  msg.sender */\n  caller\n    /* \"@openzeppelin/contracts/access/Ownable.sol\":1297:1298  0 */\n  0x00\n    /* \"@openzeppelin/contracts/access/Ownable.sol\":1273:1299  initialOwner == address(0) */\n  0xffffffffffffffffffffffffffffffffffffffff\n  and\n    /* \"@openzeppelin/contracts/access/Ownable.sol\":1273:1285  initialOwner */\n  dup2\n    /* \"@openzeppelin/contracts/access/Ownable.sol\":1273:1299  initialOwner == address(0) */\n  0xffffffffffffffffffffffffffffffffffffffff\n  and\n  sub\n    /* \"@openzeppelin/contracts/access/Ownable.sol\":1269:1364  if (initialOwner == address(0)) {... */\n  tag_7\n  jumpi\n    /* \"@openzeppelin/contracts/access/Ownable.sol\":1350:1351  0 */\n  0x00\n    /* \"@openzeppelin/contracts/access/Ownable.sol\":1322:1353  OwnableInvalidOwner(address(0)) */\n  mload(0x40)\n  0x1e4fbdf700000000000000000000000000000000000000000000000000000000\n  dup2\n  mstore\n  0x04\n  add\n  tag_8\n  swap2\n  swap1\n  tag_9\n  jump\t// in\ntag_8:\n  mload(0x40)\n  dup1\n  swap2\n  sub\n  swap1\n  revert\n    /* \"@openzeppelin/contracts/access/Ownable.sol\":1269:1364  if (initialOwner == address(0)) {... */\ntag_7:\n    /* \"@openzeppelin/contracts/access/Ownable.sol\":1373:1405  _transferOwnership(initialOwner) */\n  tag_10\n    /* \"@openzeppelin/contracts/access/Ownable.sol\":1392:1404  initialOwner */\n  dup2\n    /* \"@openzeppelin/contracts/access/Ownable.sol\":1373:1391  _transferOwnership */\n  shl(0x20, tag_11)\n    /* \"@openzeppelin/contracts/access/Ownable.sol\":1373:1405  _transferOwnership(initialOwner) */\n  0x20\n  shr\n  jump\t// in\ntag_10:\n    /* \"@openzeppelin/contracts/access/Ownable.sol\":1225:1412  constructor(address initialOwner) {... */\n  pop\n    /* \"BalanceGame.sol\":583:588  _cost */\n  dup1\n    /* \"BalanceGame.sol\":576:588  COST = _cost */\n  0x80\n  dup2\n  dup2\n  mstore\n  pop\n  pop\n    /* \"BalanceGame.sol\":623:627  true */\n  0x01\n    /* \"BalanceGame.sol\":599:608  whiteList */\n  0x04\n    /* \"BalanceGame.sol\":599:620  whiteList[msg.sender] */\n  0x00\n    /* \"BalanceGame.sol\":609:619  msg.sender */\n  caller\n    /* \"BalanceGame.sol\":599:620  whiteList[msg.sender] */\n  0xffffffffffffffffffffffffffffffffffffffff\n  and\n  0xffffffffffffffffffffffffffffffffffffffff\n  and\n  dup2\n  mstore\n  0x20\n  add\n  swap1\n  dup2\n  mstore\n  0x20\n  add\n  0x00\n  keccak256\n  0x00\n    /* \"BalanceGame.sol\":599:627  whiteList[msg.sender] = true */\n  0x0100\n  exp\n  dup2\n  sload\n  dup2\n  0xff\n  mul\n  not\n  and\n  swap1\n  dup4\n  iszero\n  iszero\n  mul\n  or\n  swap1\n  sstore\n  pop\n    /* \"BalanceGame.sol\":538:635  constructor(uint256 _cost) {... */\n  pop\n    /* \"BalanceGame.sol\":116:2149  contract BalanceGame is Ownable(msg.sender) {    ... */\n  jump(tag_13)\n    /* \"@openzeppelin/contracts/access/Ownable.sol\":2912:3099  function _transferOwnership(address newOwner) internal virtual {... */\ntag_11:\n    /* \"@openzeppelin/contracts/access/Ownable.sol\":2985:3001  address oldOwner */\n  0x00\n    /* \"@openzeppelin/contracts/access/Ownable.sol\":3004:3010  _owner */\n  0x00\n  0x00\n  swap1\n  sload\n  swap1\n  0x0100\n  exp\n  swap1\n  div\n  0xffffffffffffffffffffffffffffffffffffffff\n  and\n    /* \"@openzeppelin/contracts/access/Ownable.sol\":2985:3010  address oldOwner = _owner */\n  swap1\n  pop\n    /* \"@openzeppelin/contracts/access/Ownable.sol\":3029:3037  newOwner */\n  dup2\n    /* \"@openzeppelin/contracts/access/Ownable.sol\":3020:3026  _owner */\n  0x00\n  0x00\n    /* \"@openzeppelin/contracts/access/Ownable.sol\":3020:3037  _owner = newOwner */\n  0x0100\n  exp\n  dup2\n  sload\n  dup2\n  0xffffffffffffffffffffffffffffffffffffffff\n  mul\n  not\n  and\n  swap1\n  dup4\n  0xffffffffffffffffffffffffffffffffffffffff\n  and\n  mul\n  or\n  swap1\n  sstore\n  pop\n    /* \"@openzeppelin/contracts/access/Ownable.sol\":3083:3091  newOwner */\n  dup2\n    /* \"@openzeppelin/contracts/access/Ownable.sol\":3052:3092  OwnershipTransferred(oldOwner, newOwner) */\n  0xffffffffffffffffffffffffffffffffffffffff\n  and\n    /* \"@openzeppelin/contracts/access/Ownable.sol\":3073:3081  oldOwner */\n  dup2\n    /* \"@openzeppelin/contracts/access/Ownable.sol\":3052:3092  OwnershipTransferred(oldOwner, newOwner) */\n  0xffffffffffffffffffffffffffffffffffffffff\n  and\n  0x8be0079c531659141344cd1fd0a4f28419497f9722a3daafe3b4186f6b6457e0\n  mload(0x40)\n  mload(0x40)\n  dup1\n  swap2\n  sub\n  swap1\n  log3\n    /* \"@openzeppelin/contracts/access/Ownable.sol\":2975:3099  {... */\n  pop\n    /* \"@openzeppelin/contracts/access/Ownable.sol\":2912:3099  function _transferOwnership(address newOwner) internal virtual {... */\n  pop\n  jump\t// out\n    /* \"#utility.yul\":88:205   */\ntag_16:\n    /* \"#utility.yul\":197:198   */\n  0x00\n    /* \"#utility.yul\":194:195   */\n  0x00\n    /* \"#utility.yul\":187:199   */\n  revert\n    /* \"#utility.yul\":334:411   */\ntag_18:\n    /* \"#utility.yul\":371:378   */\n  0x00\n    /* \"#utility.yul\":400:405   */\n  dup2\n    /* \"#utility.yul\":389:405   */\n  swap1\n  pop\n    /* \"#utility.yul\":334:411   */\n  swap2\n  swap1\n  pop\n  jump\t// out\n    /* \"#utility.yul\":417:539   */\ntag_19:\n    /* \"#utility.yul\":490:514   */\n  tag_30\n    /* \"#utility.yul\":508:513   */\n  dup2\n    /* \"#utility.yul\":490:514   */\n  tag_18\n  jump\t// in\ntag_30:\n    /* \"#utility.yul\":483:488   */\n  dup2\n    /* \"#utility.yul\":480:515   */\n  eq\n    /* \"#utility.yul\":470:533   */\n  tag_31\n  jumpi\n    /* \"#utility.yul\":529:530   */\n  0x00\n    /* \"#utility.yul\":526:527   */\n  0x00\n    /* \"#utility.yul\":519:531   */\n  revert\n    /* \"#utility.yul\":470:533   */\ntag_31:\n    /* \"#utility.yul\":417:539   */\n  pop\n  jump\t// out\n    /* \"#utility.yul\":545:688   */\ntag_20:\n    /* \"#utility.yul\":602:607   */\n  0x00\n    /* \"#utility.yul\":633:639   */\n  dup2\n    /* \"#utility.yul\":627:640   */\n  mload\n    /* \"#utility.yul\":618:640   */\n  swap1\n  pop\n    /* \"#utility.yul\":649:682   */\n  tag_33\n    /* \"#utility.yul\":676:681   */\n  dup2\n    /* \"#utility.yul\":649:682   */\n  tag_19\n  jump\t// in\ntag_33:\n    /* \"#utility.yul\":545:688   */\n  swap3\n  swap2\n  pop\n  pop\n  jump\t// out\n    /* \"#utility.yul\":694:1045   */\ntag_3:\n    /* \"#utility.yul\":764:770   */\n  0x00\n    /* \"#utility.yul\":813:815   */\n  0x20\n    /* \"#utility.yul\":801:810   */\n  dup3\n    /* \"#utility.yul\":792:799   */\n  dup5\n    /* \"#utility.yul\":788:811   */\n  sub\n    /* \"#utility.yul\":784:816   */\n  slt\n    /* \"#utility.yul\":781:900   */\n  iszero\n  tag_35\n  jumpi\n    /* \"#utility.yul\":819:898   */\n  tag_36\n  tag_16\n  jump\t// in\ntag_36:\n    /* \"#utility.yul\":781:900   */\ntag_35:\n    /* \"#utility.yul\":939:940   */\n  0x00\n    /* \"#utility.yul\":964:1028   */\n  tag_37\n    /* \"#utility.yul\":1020:1027   */\n  dup5\n    /* \"#utility.yul\":1011:1017   */\n  dup3\n    /* \"#utility.yul\":1000:1009   */\n  dup6\n    /* \"#utility.yul\":996:1018   */\n  add\n    /* \"#utility.yul\":964:1028   */\n  tag_20\n  jump\t// in\ntag_37:\n    /* \"#utility.yul\":954:1028   */\n  swap2\n  pop\n    /* \"#utility.yul\":910:1038   */\n  pop\n    /* \"#utility.yul\":694:1045   */\n  swap3\n  swap2\n  pop\n  pop\n  jump\t// out\n    /* \"#utility.yul\":1051:1177   */\ntag_21:\n    /* \"#utility.yul\":1088:1095   */\n  0x00\n    /* \"#utility.yul\":1128:1170   */\n  0xffffffffffffffffffffffffffffffffffffffff\n    /* \"#utility.yul\":1121:1126   */\n  dup3\n    /* \"#utility.yul\":1117:1171   */\n  and\n    /* \"#utility.yul\":1106:1171   */\n  swap1\n  pop\n    /* \"#utility.yul\":1051:1177   */\n  swap2\n  swap1\n  pop\n  jump\t// out\n    /* \"#utility.yul\":1183:1279   */\ntag_22:\n    /* \"#utility.yul\":1220:1227   */\n  0x00\n    /* \"#utility.yul\":1249:1273   */\n  tag_40\n    /* \"#utility.yul\":1267:1272   */\n  dup3\n    /* \"#utility.yul\":1249:1273   */\n  tag_21\n  jump\t// in\ntag_40:\n    /* \"#utility.yul\":1238:1273   */\n  swap1\n  pop\n    /* \"#utility.yul\":1183:1279   */\n  swap2\n  swap1\n  pop\n  jump\t// out\n    /* \"#utility.yul\":1285:1403   */\ntag_23:\n    /* \"#utility.yul\":1372:1396   */\n  tag_42\n    /* \"#utility.yul\":1390:1395   */\n  dup2\n    /* \"#utility.yul\":1372:1396   */\n  tag_22\n  jump\t// in\ntag_42:\n    /* \"#utility.yul\":1367:1370   */\n  dup3\n    /* \"#utility.yul\":1360:1397   */\n  mstore\n    /* \"#utility.yul\":1285:1403   */\n  pop\n  pop\n  jump\t// out\n    /* \"#utility.yul\":1409:1631   */\ntag_9:\n    /* \"#utility.yul\":1502:1506   */\n  0x00\n    /* \"#utility.yul\":1540:1542   */\n  0x20\n    /* \"#utility.yul\":1529:1538   */\n  dup3\n    /* \"#utility.yul\":1525:1543   */\n  add\n    /* \"#utility.yul\":1517:1543   */\n  swap1\n  pop\n    /* \"#utility.yul\":1553:1624   */\n  tag_44\n    /* \"#utility.yul\":1621:1622   */\n  0x00\n    /* \"#utility.yul\":1610:1619   */\n  dup4\n    /* \"#utility.yul\":1606:1623   */\n  add\n    /* \"#utility.yul\":1597:1603   */\n  dup5\n    /* \"#utility.yul\":1553:1624   */\n  tag_23\n  jump\t// in\ntag_44:\n    /* \"#utility.yul\":1409:1631   */\n  swap3\n  swap2\n  pop\n  pop\n  jump\t// out\n    /* \"BalanceGame.sol\":116:2149  contract BalanceGame is Ownable(msg.sender) {    ... */\ntag_13:\n  mload(0x80)\n  codecopy(0x00, dataOffset(sub_0), dataSize(sub_0))\n  0x00\n  assignImmutable(\"0xa193fcc33caa07ae168578ccf7b3af2565fac160043aa975f5f8e1204096a380\")\n  return(0x00, dataSize(sub_0))\nstop\n\nsub_0: assembly {\n        /* \"BalanceGame.sol\":116:2149  contract BalanceGame is Ownable(msg.sender) {    ... */\n      mstore(0x40, 0x80)\n      jumpi(tag_1, lt(calldatasize, 0x04))\n      shr(0xe0, calldataload(0x00))\n      dup1\n      0x943e8216\n      gt\n      tag_12\n      jumpi\n      dup1\n      0x943e8216\n      eq\n      tag_7\n      jumpi\n      dup1\n      0xbf8fbbd2\n      eq\n      tag_8\n      jumpi\n      dup1\n      0xdbf65de0\n      eq\n      tag_9\n      jumpi\n      dup1\n      0xf24f9459\n      eq\n      tag_10\n      jumpi\n      dup1\n      0xf2fde38b\n      eq\n      tag_11\n      jumpi\n      jump(tag_1)\n    tag_12:\n      dup1\n      0x301ed59e\n      eq\n      tag_2\n      jumpi\n      dup1\n      0x372c12b1\n      eq\n      tag_3\n      jumpi\n      dup1\n      0x715018a6\n      eq\n      tag_4\n      jumpi\n      dup1\n      0x8da5cb5b\n      eq\n      tag_5\n      jumpi\n      dup1\n      0x937cabed\n      eq\n      tag_6\n      jumpi\n    tag_1:\n      revert(0x00, 0x00)\n        /* \"BalanceGame.sol\":479:507  uint256 public GAMEINDEX = 0 */\n    tag_2:\n      callvalue\n      dup1\n      iszero\n      tag_13\n      jumpi\n      revert(0x00, 0x00)\n    tag_13:\n      pop\n      tag_14\n      tag_15\n      jump\t// in\n    tag_14:\n      mload(0x40)\n      tag_16\n      swap2\n      swap1\n      tag_17\n      jump\t// in\n    tag_16:\n      mload(0x40)\n      dup1\n      swap2\n      sub\n      swap1\n      return\n        /* \"BalanceGame.sol\":756:798  mapping (address => bool) public whiteList */\n    tag_3:\n      callvalue\n      dup1\n      iszero\n      tag_18\n      jumpi\n      revert(0x00, 0x00)\n    tag_18:\n      pop\n      tag_19\n      0x04\n      dup1\n      calldatasize\n      sub\n      dup2\n      add\n      swap1\n      tag_20\n      swap2\n      swap1\n      tag_21\n      jump\t// in\n    tag_20:\n      tag_22\n      jump\t// in\n    tag_19:\n      mload(0x40)\n      tag_23\n      swap2\n      swap1\n      tag_24\n      jump\t// in\n    tag_23:\n      mload(0x40)\n      dup1\n      swap2\n      sub\n      swap1\n      return\n        /* \"@openzeppelin/contracts/access/Ownable.sol\":2293:2394  function renounceOwnership() public virtual onlyOwner {... */\n    tag_4:\n      callvalue\n      dup1\n      iszero\n      tag_25\n      jumpi\n      revert(0x00, 0x00)\n    tag_25:\n      pop\n      tag_26\n      tag_27\n      jump\t// in\n    tag_26:\n      stop\n        /* \"@openzeppelin/contracts/access/Ownable.sol\":1638:1723  function owner() public view virtual returns (address) {... */\n    tag_5:\n      callvalue\n      dup1\n      iszero\n      tag_28\n      jumpi\n      revert(0x00, 0x00)\n    tag_28:\n      pop\n      tag_29\n      tag_30\n      jump\t// in\n    tag_29:\n      mload(0x40)\n      tag_31\n      swap2\n      swap1\n      tag_32\n      jump\t// in\n    tag_31:\n      mload(0x40)\n      dup1\n      swap2\n      sub\n      swap1\n      return\n        /* \"BalanceGame.sol\":1423:1777  function createVote(string memory _questionA, string memory _questionB, uint256 _deadline) public payable etherCheck onlyWhitelist returns(uint256) {... */\n    tag_6:\n      tag_33\n      0x04\n      dup1\n      calldatasize\n      sub\n      dup2\n      add\n      swap1\n      tag_34\n      swap2\n      swap1\n      tag_35\n      jump\t// in\n    tag_34:\n      tag_36\n      jump\t// in\n    tag_33:\n      mload(0x40)\n      tag_37\n      swap2\n      swap1\n      tag_17\n      jump\t// in\n    tag_37:\n      mload(0x40)\n      dup1\n      swap2\n      sub\n      swap1\n      return\n        /* \"BalanceGame.sol\":1785:2146  function vote(uint256 _gameId, VoteOpttion _voteOption ) public payable etherCheck onlyWhitelist {... */\n    tag_7:\n      tag_38\n      0x04\n      dup1\n      calldatasize\n      sub\n      dup2\n      add\n      swap1\n      tag_39\n      swap2\n      swap1\n      tag_40\n      jump\t// in\n    tag_39:\n      tag_41\n      jump\t// in\n    tag_38:\n      stop\n        /* \"BalanceGame.sol\":418:447  uint256 immutable public COST */\n    tag_8:\n      callvalue\n      dup1\n      iszero\n      tag_42\n      jumpi\n      revert(0x00, 0x00)\n    tag_42:\n      pop\n      tag_43\n      tag_44\n      jump\t// in\n    tag_43:\n      mload(0x40)\n      tag_45\n      swap2\n      swap1\n      tag_17\n      jump\t// in\n    tag_45:\n      mload(0x40)\n      dup1\n      swap2\n      sub\n      swap1\n      return\n        /* \"BalanceGame.sol\":1234:1415  function whitelistUpdate(address _newAddress, bool _status) public onlyOwner {... */\n    tag_9:\n      callvalue\n      dup1\n      iszero\n      tag_46\n      jumpi\n      revert(0x00, 0x00)\n    tag_46:\n      pop\n      tag_47\n      0x04\n      dup1\n      calldatasize\n      sub\n      dup2\n      add\n      swap1\n      tag_48\n      swap2\n      swap1\n      tag_49\n      jump\t// in\n    tag_48:\n      tag_50\n      jump\t// in\n    tag_47:\n      stop\n        /* \"BalanceGame.sol\":643:688  mapping (uint256 => Game) public findGameById */\n    tag_10:\n      callvalue\n      dup1\n      iszero\n      tag_51\n      jumpi\n      revert(0x00, 0x00)\n    tag_51:\n      pop\n      tag_52\n      0x04\n      dup1\n      calldatasize\n      sub\n      dup2\n      add\n      swap1\n      tag_53\n      swap2\n      swap1\n      tag_54\n      jump\t// in\n    tag_53:\n      tag_55\n      jump\t// in\n    tag_52:\n      mload(0x40)\n      tag_56\n      swap8\n      swap7\n      swap6\n      swap5\n      swap4\n      swap3\n      swap2\n      swap1\n      tag_57\n      jump\t// in\n    tag_56:\n      mload(0x40)\n      dup1\n      swap2\n      sub\n      swap1\n      return\n        /* \"@openzeppelin/contracts/access/Ownable.sol\":2543:2758  function transferOwnership(address newOwner) public virtual onlyOwner {... */\n    tag_11:\n      callvalue\n      dup1\n      iszero\n      tag_58\n      jumpi\n      revert(0x00, 0x00)\n    tag_58:\n      pop\n      tag_59\n      0x04\n      dup1\n      calldatasize\n      sub\n      dup2\n      add\n      swap1\n      tag_60\n      swap2\n      swap1\n      tag_21\n      jump\t// in\n    tag_60:\n      tag_61\n      jump\t// in\n    tag_59:\n      stop\n        /* \"BalanceGame.sol\":479:507  uint256 public GAMEINDEX = 0 */\n    tag_15:\n      sload(0x01)\n      dup2\n      jump\t// out\n        /* \"BalanceGame.sol\":756:798  mapping (address => bool) public whiteList */\n    tag_22:\n      mstore(0x20, 0x04)\n      dup1\n      0x00\n      mstore\n      keccak256(0x00, 0x40)\n      0x00\n      swap2\n      pop\n      sload\n      swap1\n      0x0100\n      exp\n      swap1\n      div\n      0xff\n      and\n      dup2\n      jump\t// out\n        /* \"@openzeppelin/contracts/access/Ownable.sol\":2293:2394  function renounceOwnership() public virtual onlyOwner {... */\n    tag_27:\n        /* \"@openzeppelin/contracts/access/Ownable.sol\":1531:1544  _checkOwner() */\n      tag_63\n        /* \"@openzeppelin/contracts/access/Ownable.sol\":1531:1542  _checkOwner */\n      tag_64\n        /* \"@openzeppelin/contracts/access/Ownable.sol\":1531:1544  _checkOwner() */\n      jump\t// in\n    tag_63:\n        /* \"@openzeppelin/contracts/access/Ownable.sol\":2357:2387  _transferOwnership(address(0)) */\n      tag_66\n        /* \"@openzeppelin/contracts/access/Ownable.sol\":2384:2385  0 */\n      0x00\n        /* \"@openzeppelin/contracts/access/Ownable.sol\":2357:2375  _transferOwnership */\n      tag_67\n        /* \"@openzeppelin/contracts/access/Ownable.sol\":2357:2387  _transferOwnership(address(0)) */\n      jump\t// in\n    tag_66:\n        /* \"@openzeppelin/contracts/access/Ownable.sol\":2293:2394  function renounceOwnership() public virtual onlyOwner {... */\n      jump\t// out\n        /* \"@openzeppelin/contracts/access/Ownable.sol\":1638:1723  function owner() public view virtual returns (address) {... */\n    tag_30:\n        /* \"@openzeppelin/contracts/access/Ownable.sol\":1684:1691  address */\n      0x00\n        /* \"@openzeppelin/contracts/access/Ownable.sol\":1710:1716  _owner */\n      0x00\n      0x00\n      swap1\n      sload\n      swap1\n      0x0100\n      exp\n      swap1\n      div\n      0xffffffffffffffffffffffffffffffffffffffff\n      and\n        /* \"@openzeppelin/contracts/access/Ownable.sol\":1703:1716  return _owner */\n      swap1\n      pop\n        /* \"@openzeppelin/contracts/access/Ownable.sol\":1638:1723  function owner() public view virtual returns (address) {... */\n      swap1\n      jump\t// out\n        /* \"BalanceGame.sol\":1423:1777  function createVote(string memory _questionA, string memory _questionB, uint256 _deadline) public payable etherCheck onlyWhitelist returns(uint256) {... */\n    tag_36:\n        /* \"BalanceGame.sol\":1562:1569  uint256 */\n      0x00\n        /* \"BalanceGame.sol\":1181:1185  COST */\n      immutable(\"0xa193fcc33caa07ae168578ccf7b3af2565fac160043aa975f5f8e1204096a380\")\n        /* \"BalanceGame.sol\":1169:1178  msg.value */\n      callvalue\n        /* \"BalanceGame.sol\":1169:1185  msg.value < COST */\n      lt\n        /* \"BalanceGame.sol\":1161:1206  require(msg.value < COST, \"Not Enough Ether\") */\n      tag_70\n      jumpi\n      mload(0x40)\n      0x08c379a000000000000000000000000000000000000000000000000000000000\n      dup2\n      mstore\n      0x04\n      add\n      tag_71\n      swap1\n      tag_72\n      jump\t// in\n    tag_71:\n      mload(0x40)\n      dup1\n      swap2\n      sub\n      swap1\n      revert\n    tag_70:\n        /* \"BalanceGame.sol\":1060:1069  whiteList */\n      0x04\n        /* \"BalanceGame.sol\":1060:1081  whiteList[msg.sender] */\n      0x00\n        /* \"BalanceGame.sol\":1070:1080  msg.sender */\n      caller\n        /* \"BalanceGame.sol\":1060:1081  whiteList[msg.sender] */\n      0xffffffffffffffffffffffffffffffffffffffff\n      and\n      0xffffffffffffffffffffffffffffffffffffffff\n      and\n      dup2\n      mstore\n      0x20\n      add\n      swap1\n      dup2\n      mstore\n      0x20\n      add\n      0x00\n      keccak256\n      0x00\n      swap1\n      sload\n      swap1\n      0x0100\n      exp\n      swap1\n      div\n      0xff\n      and\n        /* \"BalanceGame.sol\":1052:1099  require(whiteList[msg.sender], \"OnlyWhitelist\") */\n      tag_74\n      jumpi\n      mload(0x40)\n      0x08c379a000000000000000000000000000000000000000000000000000000000\n      dup2\n      mstore\n      0x04\n      add\n      tag_75\n      swap1\n      tag_76\n      jump\t// in\n    tag_75:\n      mload(0x40)\n      dup1\n      swap2\n      sub\n      swap1\n      revert\n    tag_74:\n        /* \"BalanceGame.sol\":1582:1591  GAMEINDEX */\n      0x01\n      0x00\n        /* \"BalanceGame.sol\":1582:1593  GAMEINDEX++ */\n      dup2\n      sload\n      dup1\n      swap3\n      swap2\n      swap1\n      tag_78\n      swap1\n      tag_79\n      jump\t// in\n    tag_78:\n      swap2\n      swap1\n      pop\n      sstore\n      pop\n        /* \"BalanceGame.sol\":1630:1698  Game(GAMEINDEX, _questionA, _questionB, 0, 0, _deadline, msg.sender) */\n      mload(0x40)\n      dup1\n      0xe0\n      add\n      0x40\n      mstore\n      dup1\n        /* \"BalanceGame.sol\":1635:1644  GAMEINDEX */\n      sload(0x01)\n        /* \"BalanceGame.sol\":1630:1698  Game(GAMEINDEX, _questionA, _questionB, 0, 0, _deadline, msg.sender) */\n      dup2\n      mstore\n      0x20\n      add\n        /* \"BalanceGame.sol\":1646:1656  _questionA */\n      dup6\n        /* \"BalanceGame.sol\":1630:1698  Game(GAMEINDEX, _questionA, _questionB, 0, 0, _deadline, msg.sender) */\n      dup2\n      mstore\n      0x20\n      add\n        /* \"BalanceGame.sol\":1658:1668  _questionB */\n      dup5\n        /* \"BalanceGame.sol\":1630:1698  Game(GAMEINDEX, _questionA, _questionB, 0, 0, _deadline, msg.sender) */\n      dup2\n      mstore\n      0x20\n      add\n        /* \"BalanceGame.sol\":1670:1671  0 */\n      0x00\n        /* \"BalanceGame.sol\":1630:1698  Game(GAMEINDEX, _questionA, _questionB, 0, 0, _deadline, msg.sender) */\n      dup2\n      mstore\n      0x20\n      add\n        /* \"BalanceGame.sol\":1673:1674  0 */\n      0x00\n        /* \"BalanceGame.sol\":1630:1698  Game(GAMEINDEX, _questionA, _questionB, 0, 0, _deadline, msg.sender) */\n      dup2\n      mstore\n      0x20\n      add\n        /* \"BalanceGame.sol\":1676:1685  _deadline */\n      dup4\n        /* \"BalanceGame.sol\":1630:1698  Game(GAMEINDEX, _questionA, _questionB, 0, 0, _deadline, msg.sender) */\n      dup2\n      mstore\n      0x20\n      add\n        /* \"BalanceGame.sol\":1687:1697  msg.sender */\n      caller\n        /* \"BalanceGame.sol\":1630:1698  Game(GAMEINDEX, _questionA, _questionB, 0, 0, _deadline, msg.sender) */\n      0xffffffffffffffffffffffffffffffffffffffff\n      and\n      dup2\n      mstore\n      pop\n        /* \"BalanceGame.sol\":1604:1616  findGameById */\n      0x02\n        /* \"BalanceGame.sol\":1604:1627  findGameById[GAMEINDEX] */\n      0x00\n        /* \"BalanceGame.sol\":1617:1626  GAMEINDEX */\n      sload(0x01)\n        /* \"BalanceGame.sol\":1604:1627  findGameById[GAMEINDEX] */\n      dup2\n      mstore\n      0x20\n      add\n      swap1\n      dup2\n      mstore\n      0x20\n      add\n      0x00\n      keccak256\n        /* \"BalanceGame.sol\":1604:1698  findGameById[GAMEINDEX] = Game(GAMEINDEX, _questionA, _questionB, 0, 0, _deadline, msg.sender) */\n      0x00\n      dup3\n      add\n      mload\n      dup2\n      0x00\n      add\n      sstore\n      0x20\n      dup3\n      add\n      mload\n      dup2\n      0x01\n      add\n      swap1\n      dup2\n      tag_80\n      swap2\n      swap1\n      tag_81\n      jump\t// in\n    tag_80:\n      pop\n      0x40\n      dup3\n      add\n      mload\n      dup2\n      0x02\n      add\n      swap1\n      dup2\n      tag_82\n      swap2\n      swap1\n      tag_81\n      jump\t// in\n    tag_82:\n      pop\n      0x60\n      dup3\n      add\n      mload\n      dup2\n      0x03\n      add\n      sstore\n      0x80\n      dup3\n      add\n      mload\n      dup2\n      0x04\n      add\n      sstore\n      0xa0\n      dup3\n      add\n      mload\n      dup2\n      0x05\n      add\n      sstore\n      0xc0\n      dup3\n      add\n      mload\n      dup2\n      0x06\n      add\n      exp(0x0100, 0x00)\n      dup2\n      sload\n      dup2\n      0xffffffffffffffffffffffffffffffffffffffff\n      mul\n      not\n      and\n      swap1\n      dup4\n      0xffffffffffffffffffffffffffffffffffffffff\n      and\n      mul\n      or\n      swap1\n      sstore\n      pop\n      swap1\n      pop\n      pop\n        /* \"BalanceGame.sol\":1722:1731  GAMEINDEX */\n      sload(0x01)\n        /* \"BalanceGame.sol\":1714:1732  NewGame(GAMEINDEX) */\n      0xa0b7f6f22bb4f69adc52dd16ffe2a964ab8b577be274247fa9a1547b03ce3e55\n      mload(0x40)\n      mload(0x40)\n      dup1\n      swap2\n      sub\n      swap1\n      log2\n        /* \"BalanceGame.sol\":1760:1769  GAMEINDEX */\n      sload(0x01)\n        /* \"BalanceGame.sol\":1753:1769  return GAMEINDEX */\n      swap1\n      pop\n        /* \"BalanceGame.sol\":1423:1777  function createVote(string memory _questionA, string memory _questionB, uint256 _deadline) public payable etherCheck onlyWhitelist returns(uint256) {... */\n      swap4\n      swap3\n      pop\n      pop\n      pop\n      jump\t// out\n        /* \"BalanceGame.sol\":1785:2146  function vote(uint256 _gameId, VoteOpttion _voteOption ) public payable etherCheck onlyWhitelist {... */\n    tag_41:\n        /* \"BalanceGame.sol\":1181:1185  COST */\n      immutable(\"0xa193fcc33caa07ae168578ccf7b3af2565fac160043aa975f5f8e1204096a380\")\n        /* \"BalanceGame.sol\":1169:1178  msg.value */\n      callvalue\n        /* \"BalanceGame.sol\":1169:1185  msg.value < COST */\n      lt\n        /* \"BalanceGame.sol\":1161:1206  require(msg.value < COST, \"Not Enough Ether\") */\n      tag_84\n      jumpi\n      mload(0x40)\n      0x08c379a000000000000000000000000000000000000000000000000000000000\n      dup2\n      mstore\n      0x04\n      add\n      tag_85\n      swap1\n      tag_72\n      jump\t// in\n    tag_85:\n      mload(0x40)\n      dup1\n      swap2\n      sub\n      swap1\n      revert\n    tag_84:\n        /* \"BalanceGame.sol\":1060:1069  whiteList */\n      0x04\n        /* \"BalanceGame.sol\":1060:1081  whiteList[msg.sender] */\n      0x00\n        /* \"BalanceGame.sol\":1070:1080  msg.sender */\n      caller\n        /* \"BalanceGame.sol\":1060:1081  whiteList[msg.sender] */\n      0xffffffffffffffffffffffffffffffffffffffff\n      and\n      0xffffffffffffffffffffffffffffffffffffffff\n      and\n      dup2\n      mstore\n      0x20\n      add\n      swap1\n      dup2\n      mstore\n      0x20\n      add\n      0x00\n      keccak256\n      0x00\n      swap1\n      sload\n      swap1\n      0x0100\n      exp\n      swap1\n      div\n      0xff\n      and\n        /* \"BalanceGame.sol\":1052:1099  require(whiteList[msg.sender], \"OnlyWhitelist\") */\n      tag_87\n      jumpi\n      mload(0x40)\n      0x08c379a000000000000000000000000000000000000000000000000000000000\n      dup2\n      mstore\n      0x04\n      add\n      tag_88\n      swap1\n      tag_76\n      jump\t// in\n    tag_88:\n      mload(0x40)\n      dup1\n      swap2\n      sub\n      swap1\n      revert\n    tag_87:\n        /* \"BalanceGame.sol\":1942:1943  0 */\n      0x00\n        /* \"BalanceGame.sol\":1901:1944  findGameById[_gameId].creator != address(0) */\n      0xffffffffffffffffffffffffffffffffffffffff\n      and\n        /* \"BalanceGame.sol\":1901:1913  findGameById */\n      0x02\n        /* \"BalanceGame.sol\":1901:1922  findGameById[_gameId] */\n      0x00\n        /* \"BalanceGame.sol\":1914:1921  _gameId */\n      dup5\n        /* \"BalanceGame.sol\":1901:1922  findGameById[_gameId] */\n      dup2\n      mstore\n      0x20\n      add\n      swap1\n      dup2\n      mstore\n      0x20\n      add\n      0x00\n      keccak256\n        /* \"BalanceGame.sol\":1901:1930  findGameById[_gameId].creator */\n      0x06\n      add\n      0x00\n      swap1\n      sload\n      swap1\n      0x0100\n      exp\n      swap1\n      div\n      0xffffffffffffffffffffffffffffffffffffffff\n      and\n        /* \"BalanceGame.sol\":1901:1944  findGameById[_gameId].creator != address(0) */\n      0xffffffffffffffffffffffffffffffffffffffff\n      and\n      sub\n        /* \"BalanceGame.sol\":1893:1966  require(findGameById[_gameId].creator != address(0) , \"incorrect gameId\") */\n      tag_90\n      jumpi\n      mload(0x40)\n      0x08c379a000000000000000000000000000000000000000000000000000000000\n      dup2\n      mstore\n      0x04\n      add\n      tag_91\n      swap1\n      tag_92\n      jump\t// in\n    tag_91:\n      mload(0x40)\n      dup1\n      swap2\n      sub\n      swap1\n      revert\n    tag_90:\n        /* \"BalanceGame.sol\":1986:1994  voteList */\n      0x03\n        /* \"BalanceGame.sol\":1986:2003  voteList[_gameId] */\n      0x00\n        /* \"BalanceGame.sol\":1995:2002  _gameId */\n      dup4\n        /* \"BalanceGame.sol\":1986:2003  voteList[_gameId] */\n      dup2\n      mstore\n      0x20\n      add\n      swap1\n      dup2\n      mstore\n      0x20\n      add\n      0x00\n      keccak256\n        /* \"BalanceGame.sol\":1986:2015  voteList[_gameId][msg.sender] */\n      0x00\n        /* \"BalanceGame.sol\":2004:2014  msg.sender */\n      caller\n        /* \"BalanceGame.sol\":1986:2015  voteList[_gameId][msg.sender] */\n      0xffffffffffffffffffffffffffffffffffffffff\n      and\n      0xffffffffffffffffffffffffffffffffffffffff\n      and\n      dup2\n      mstore\n      0x20\n      add\n      swap1\n      dup2\n      mstore\n      0x20\n      add\n      0x00\n      keccak256\n      0x00\n      swap1\n      sload\n      swap1\n      0x0100\n      exp\n      swap1\n      div\n      0xff\n      and\n        /* \"BalanceGame.sol\":1985:2015  !voteList[_gameId][msg.sender] */\n      iszero\n        /* \"BalanceGame.sol\":1977:2032  require(!voteList[_gameId][msg.sender], \"already vote\") */\n      tag_93\n      jumpi\n      mload(0x40)\n      0x08c379a000000000000000000000000000000000000000000000000000000000\n      dup2\n      mstore\n      0x04\n      add\n      tag_94\n      swap1\n      tag_95\n      jump\t// in\n    tag_94:\n      mload(0x40)\n      dup1\n      swap2\n      sub\n      swap1\n      revert\n    tag_93:\n        /* \"BalanceGame.sol\":2077:2081  true */\n      0x01\n        /* \"BalanceGame.sol\":2045:2053  voteList */\n      0x03\n        /* \"BalanceGame.sol\":2045:2062  voteList[_gameId] */\n      0x00\n        /* \"BalanceGame.sol\":2054:2061  _gameId */\n      dup5\n        /* \"BalanceGame.sol\":2045:2062  voteList[_gameId] */\n      dup2\n      mstore\n      0x20\n      add\n      swap1\n      dup2\n      mstore\n      0x20\n      add\n      0x00\n      keccak256\n        /* \"BalanceGame.sol\":2045:2074  voteList[_gameId][msg.sender] */\n      0x00\n        /* \"BalanceGame.sol\":2063:2073  msg.sender */\n      caller\n        /* \"BalanceGame.sol\":2045:2074  voteList[_gameId][msg.sender] */\n      0xffffffffffffffffffffffffffffffffffffffff\n      and\n      0xffffffffffffffffffffffffffffffffffffffff\n      and\n      dup2\n      mstore\n      0x20\n      add\n      swap1\n      dup2\n      mstore\n      0x20\n      add\n      0x00\n      keccak256\n      0x00\n        /* \"BalanceGame.sol\":2045:2081  voteList[_gameId][msg.sender] = true */\n      0x0100\n      exp\n      dup2\n      sload\n      dup2\n      0xff\n      mul\n      not\n      and\n      swap1\n      dup4\n      iszero\n      iszero\n      mul\n      or\n      swap1\n      sstore\n      pop\n        /* \"BalanceGame.sol\":2126:2137  _voteOption */\n      dup1\n        /* \"BalanceGame.sol\":2097:2138  NewVote(_gameId, msg.sender, _voteOption) */\n      0x01\n      dup2\n      gt\n      iszero\n      tag_96\n      jumpi\n      tag_97\n      tag_98\n      jump\t// in\n    tag_97:\n    tag_96:\n        /* \"BalanceGame.sol\":2114:2124  msg.sender */\n      caller\n        /* \"BalanceGame.sol\":2097:2138  NewVote(_gameId, msg.sender, _voteOption) */\n      0xffffffffffffffffffffffffffffffffffffffff\n      and\n        /* \"BalanceGame.sol\":2105:2112  _gameId */\n      dup4\n        /* \"BalanceGame.sol\":2097:2138  NewVote(_gameId, msg.sender, _voteOption) */\n      0x07e0ee871a145b34a4f0117ec30da34c5bd4487a09f78fd3b31a366a55fd2d29\n      mload(0x40)\n      mload(0x40)\n      dup1\n      swap2\n      sub\n      swap1\n      log4\n        /* \"BalanceGame.sol\":1785:2146  function vote(uint256 _gameId, VoteOpttion _voteOption ) public payable etherCheck onlyWhitelist {... */\n      pop\n      pop\n      jump\t// out\n        /* \"BalanceGame.sol\":418:447  uint256 immutable public COST */\n    tag_44:\n      immutable(\"0xa193fcc33caa07ae168578ccf7b3af2565fac160043aa975f5f8e1204096a380\")\n      dup2\n      jump\t// out\n        /* \"BalanceGame.sol\":1234:1415  function whitelistUpdate(address _newAddress, bool _status) public onlyOwner {... */\n    tag_50:\n        /* \"@openzeppelin/contracts/access/Ownable.sol\":1531:1544  _checkOwner() */\n      tag_100\n        /* \"@openzeppelin/contracts/access/Ownable.sol\":1531:1542  _checkOwner */\n      tag_64\n        /* \"@openzeppelin/contracts/access/Ownable.sol\":1531:1544  _checkOwner() */\n      jump\t// in\n    tag_100:\n        /* \"BalanceGame.sol\":1347:1354  _status */\n      dup1\n        /* \"BalanceGame.sol\":1322:1331  whiteList */\n      0x04\n        /* \"BalanceGame.sol\":1322:1344  whiteList[_newAddress] */\n      0x00\n        /* \"BalanceGame.sol\":1332:1343  _newAddress */\n      dup5\n        /* \"BalanceGame.sol\":1322:1344  whiteList[_newAddress] */\n      0xffffffffffffffffffffffffffffffffffffffff\n      and\n      0xffffffffffffffffffffffffffffffffffffffff\n      and\n      dup2\n      mstore\n      0x20\n      add\n      swap1\n      dup2\n      mstore\n      0x20\n      add\n      0x00\n      keccak256\n      0x00\n        /* \"BalanceGame.sol\":1322:1354  whiteList[_newAddress] = _status */\n      0x0100\n      exp\n      dup2\n      sload\n      dup2\n      0xff\n      mul\n      not\n      and\n      swap1\n      dup4\n      iszero\n      iszero\n      mul\n      or\n      swap1\n      sstore\n      pop\n        /* \"BalanceGame.sol\":1386:1397  _newAddress */\n      dup2\n        /* \"BalanceGame.sol\":1370:1407  WhiteListUpdate(_newAddress, _status) */\n      0xffffffffffffffffffffffffffffffffffffffff\n      and\n      0x111b0cdde6a17355dbeb5ce9b87078297fec9b61b51550540b0d4e2f1e4913c2\n        /* \"BalanceGame.sol\":1399:1406  _status */\n      dup3\n        /* \"BalanceGame.sol\":1370:1407  WhiteListUpdate(_newAddress, _status) */\n      mload(0x40)\n      tag_102\n      swap2\n      swap1\n      tag_24\n      jump\t// in\n    tag_102:\n      mload(0x40)\n      dup1\n      swap2\n      sub\n      swap1\n      log2\n        /* \"BalanceGame.sol\":1234:1415  function whitelistUpdate(address _newAddress, bool _status) public onlyOwner {... */\n      pop\n      pop\n      jump\t// out\n        /* \"BalanceGame.sol\":643:688  mapping (uint256 => Game) public findGameById */\n    tag_55:\n      mstore(0x20, 0x02)\n      dup1\n      0x00\n      mstore\n      keccak256(0x00, 0x40)\n      0x00\n      swap2\n      pop\n      swap1\n      pop\n      dup1\n      0x00\n      add\n      sload\n      swap1\n      dup1\n      0x01\n      add\n      dup1\n      sload\n      tag_103\n      swap1\n      tag_104\n      jump\t// in\n    tag_103:\n      dup1\n      0x1f\n      add\n      0x20\n      dup1\n      swap2\n      div\n      mul\n      0x20\n      add\n      mload(0x40)\n      swap1\n      dup2\n      add\n      0x40\n      mstore\n      dup1\n      swap3\n      swap2\n      swap1\n      dup2\n      dup2\n      mstore\n      0x20\n      add\n      dup3\n      dup1\n      sload\n      tag_105\n      swap1\n      tag_104\n      jump\t// in\n    tag_105:\n      dup1\n      iszero\n      tag_106\n      jumpi\n      dup1\n      0x1f\n      lt\n      tag_107\n      jumpi\n      0x0100\n      dup1\n      dup4\n      sload\n      div\n      mul\n      dup4\n      mstore\n      swap2\n      0x20\n      add\n      swap2\n      jump(tag_106)\n    tag_107:\n      dup3\n      add\n      swap2\n      swap1\n      0x00\n      mstore\n      keccak256(0x00, 0x20)\n      swap1\n    tag_108:\n      dup2\n      sload\n      dup2\n      mstore\n      swap1\n      0x01\n      add\n      swap1\n      0x20\n      add\n      dup1\n      dup4\n      gt\n      tag_108\n      jumpi\n      dup3\n      swap1\n      sub\n      0x1f\n      and\n      dup3\n      add\n      swap2\n    tag_106:\n      pop\n      pop\n      pop\n      pop\n      pop\n      swap1\n      dup1\n      0x02\n      add\n      dup1\n      sload\n      tag_109\n      swap1\n      tag_104\n      jump\t// in\n    tag_109:\n      dup1\n      0x1f\n      add\n      0x20\n      dup1\n      swap2\n      div\n      mul\n      0x20\n      add\n      mload(0x40)\n      swap1\n      dup2\n      add\n      0x40\n      mstore\n      dup1\n      swap3\n      swap2\n      swap1\n      dup2\n      dup2\n      mstore\n      0x20\n      add\n      dup3\n      dup1\n      sload\n      tag_110\n      swap1\n      tag_104\n      jump\t// in\n    tag_110:\n      dup1\n      iszero\n      tag_111\n      jumpi\n      dup1\n      0x1f\n      lt\n      tag_112\n      jumpi\n      0x0100\n      dup1\n      dup4\n      sload\n      div\n      mul\n      dup4\n      mstore\n      swap2\n      0x20\n      add\n      swap2\n      jump(tag_111)\n    tag_112:\n      dup3\n      add\n      swap2\n      swap1\n      0x00\n      mstore\n      keccak256(0x00, 0x20)\n      swap1\n    tag_113:\n      dup2\n      sload\n      dup2\n      mstore\n      swap1\n      0x01\n      add\n      swap1\n      0x20\n      add\n      dup1\n      dup4\n      gt\n      tag_113\n      jumpi\n      dup3\n      swap1\n      sub\n      0x1f\n      and\n      dup3\n      add\n      swap2\n    tag_111:\n      pop\n      pop\n      pop\n      pop\n      pop\n      swap1\n      dup1\n      0x03\n      add\n      sload\n      swap1\n      dup1\n      0x04\n      add\n      sload\n      swap1\n      dup1\n      0x05\n      add\n      sload\n      swap1\n      dup1\n      0x06\n      add\n      0x00\n      swap1\n      sload\n      swap1\n      0x0100\n      exp\n      swap1\n      div\n      0xffffffffffffffffffffffffffffffffffffffff\n      and\n      swap1\n      pop\n      dup8\n      jump\t// out\n        /* \"@openzeppelin/contracts/access/Ownable.sol\":2543:2758  function transferOwnership(address newOwner) public virtual onlyOwner {... */\n    tag_61:\n        /* \"@openzeppelin/contracts/access/Ownable.sol\":1531:1544  _checkOwner() */\n      tag_115\n        /* \"@openzeppelin/contracts/access/Ownable.sol\":1531:1542  _checkOwner */\n      tag_64\n        /* \"@openzeppelin/contracts/access/Ownable.sol\":1531:1544  _checkOwner() */\n      jump\t// in\n    tag_115:\n        /* \"@openzeppelin/contracts/access/Ownable.sol\":2647:2648  0 */\n      0x00\n        /* \"@openzeppelin/contracts/access/Ownable.sol\":2627:2649  newOwner == address(0) */\n      0xffffffffffffffffffffffffffffffffffffffff\n      and\n        /* \"@openzeppelin/contracts/access/Ownable.sol\":2627:2635  newOwner */\n      dup2\n        /* \"@openzeppelin/contracts/access/Ownable.sol\":2627:2649  newOwner == address(0) */\n      0xffffffffffffffffffffffffffffffffffffffff\n      and\n      sub\n        /* \"@openzeppelin/contracts/access/Ownable.sol\":2623:2714  if (newOwner == address(0)) {... */\n      tag_117\n      jumpi\n        /* \"@openzeppelin/contracts/access/Ownable.sol\":2700:2701  0 */\n      0x00\n        /* \"@openzeppelin/contracts/access/Ownable.sol\":2672:2703  OwnableInvalidOwner(address(0)) */\n      mload(0x40)\n      0x1e4fbdf700000000000000000000000000000000000000000000000000000000\n      dup2\n      mstore\n      0x04\n      add\n      tag_118\n      swap2\n      swap1\n      tag_32\n      jump\t// in\n    tag_118:\n      mload(0x40)\n      dup1\n      swap2\n      sub\n      swap1\n      revert\n        /* \"@openzeppelin/contracts/access/Ownable.sol\":2623:2714  if (newOwner == address(0)) {... */\n    tag_117:\n        /* \"@openzeppelin/contracts/access/Ownable.sol\":2723:2751  _transferOwnership(newOwner) */\n      tag_119\n        /* \"@openzeppelin/contracts/access/Ownable.sol\":2742:2750  newOwner */\n      dup2\n        /* \"@openzeppelin/contracts/access/Ownable.sol\":2723:2741  _transferOwnership */\n      tag_67\n        /* \"@openzeppelin/contracts/access/Ownable.sol\":2723:2751  _transferOwnership(newOwner) */\n      jump\t// in\n    tag_119:\n        /* \"@openzeppelin/contracts/access/Ownable.sol\":2543:2758  function transferOwnership(address newOwner) public virtual onlyOwner {... */\n      pop\n      jump\t// out\n        /* \"@openzeppelin/contracts/access/Ownable.sol\":1796:1958  function _checkOwner() internal view virtual {... */\n    tag_64:\n        /* \"@openzeppelin/contracts/access/Ownable.sol\":1866:1878  _msgSender() */\n      tag_121\n        /* \"@openzeppelin/contracts/access/Ownable.sol\":1866:1876  _msgSender */\n      tag_122\n        /* \"@openzeppelin/contracts/access/Ownable.sol\":1866:1878  _msgSender() */\n      jump\t// in\n    tag_121:\n        /* \"@openzeppelin/contracts/access/Ownable.sol\":1855:1878  owner() != _msgSender() */\n      0xffffffffffffffffffffffffffffffffffffffff\n      and\n        /* \"@openzeppelin/contracts/access/Ownable.sol\":1855:1862  owner() */\n      tag_123\n        /* \"@openzeppelin/contracts/access/Ownable.sol\":1855:1860  owner */\n      tag_30\n        /* \"@openzeppelin/contracts/access/Ownable.sol\":1855:1862  owner() */\n      jump\t// in\n    tag_123:\n        /* \"@openzeppelin/contracts/access/Ownable.sol\":1855:1878  owner() != _msgSender() */\n      0xffffffffffffffffffffffffffffffffffffffff\n      and\n      eq\n        /* \"@openzeppelin/contracts/access/Ownable.sol\":1851:1952  if (owner() != _msgSender()) {... */\n      tag_124\n      jumpi\n        /* \"@openzeppelin/contracts/access/Ownable.sol\":1928:1940  _msgSender() */\n      tag_125\n        /* \"@openzeppelin/contracts/access/Ownable.sol\":1928:1938  _msgSender */\n      tag_122\n        /* \"@openzeppelin/contracts/access/Ownable.sol\":1928:1940  _msgSender() */\n      jump\t// in\n    tag_125:\n        /* \"@openzeppelin/contracts/access/Ownable.sol\":1901:1941  OwnableUnauthorizedAccount(_msgSender()) */\n      mload(0x40)\n      0x118cdaa700000000000000000000000000000000000000000000000000000000\n      dup2\n      mstore\n      0x04\n      add\n      tag_126\n      swap2\n      swap1\n      tag_32\n      jump\t// in\n    tag_126:\n      mload(0x40)\n      dup1\n      swap2\n      sub\n      swap1\n      revert\n        /* \"@openzeppelin/contracts/access/Ownable.sol\":1851:1952  if (owner() != _msgSender()) {... */\n    tag_124:\n        /* \"@openzeppelin/contracts/access/Ownable.sol\":1796:1958  function _checkOwner() internal view virtual {... */\n      jump\t// out\n        /* \"@openzeppelin/contracts/access/Ownable.sol\":2912:3099  function _transferOwnership(address newOwner) internal virtual {... */\n    tag_67:\n        /* \"@openzeppelin/contracts/access/Ownable.sol\":2985:3001  address oldOwner */\n      0x00\n        /* \"@openzeppelin/contracts/access/Ownable.sol\":3004:3010  _owner */\n      0x00\n      0x00\n      swap1\n      sload\n      swap1\n      0x0100\n      exp\n      swap1\n      div\n      0xffffffffffffffffffffffffffffffffffffffff\n      and\n        /* \"@openzeppelin/contracts/access/Ownable.sol\":2985:3010  address oldOwner = _owner */\n      swap1\n      pop\n        /* \"@openzeppelin/contracts/access/Ownable.sol\":3029:3037  newOwner */\n      dup2\n        /* \"@openzeppelin/contracts/access/Ownable.sol\":3020:3026  _owner */\n      0x00\n      0x00\n        /* \"@openzeppelin/contracts/access/Ownable.sol\":3020:3037  _owner = newOwner */\n      0x0100\n      exp\n      dup2\n      sload\n      dup2\n      0xffffffffffffffffffffffffffffffffffffffff\n      mul\n      not\n      and\n      swap1\n      dup4\n      0xffffffffffffffffffffffffffffffffffffffff\n      and\n      mul\n      or\n      swap1\n      sstore\n      pop\n        /* \"@openzeppelin/contracts/access/Ownable.sol\":3083:3091  newOwner */\n      dup2\n        /* \"@openzeppelin/contracts/access/Ownable.sol\":3052:3092  OwnershipTransferred(oldOwner, newOwner) */\n      0xffffffffffffffffffffffffffffffffffffffff\n      and\n        /* \"@openzeppelin/contracts/access/Ownable.sol\":3073:3081  oldOwner */\n      dup2\n        /* \"@openzeppelin/contracts/access/Ownable.sol\":3052:3092  OwnershipTransferred(oldOwner, newOwner) */\n      0xffffffffffffffffffffffffffffffffffffffff\n      and\n      0x8be0079c531659141344cd1fd0a4f28419497f9722a3daafe3b4186f6b6457e0\n      mload(0x40)\n      mload(0x40)\n      dup1\n      swap2\n      sub\n      swap1\n      log3\n        /* \"@openzeppelin/contracts/access/Ownable.sol\":2975:3099  {... */\n      pop\n        /* \"@openzeppelin/contracts/access/Ownable.sol\":2912:3099  function _transferOwnership(address newOwner) internal virtual {... */\n      pop\n      jump\t// out\n        /* \"@openzeppelin/contracts/utils/Context.sol\":656:752  function _msgSender() internal view virtual returns (address) {... */\n    tag_122:\n        /* \"@openzeppelin/contracts/utils/Context.sol\":709:716  address */\n      0x00\n        /* \"@openzeppelin/contracts/utils/Context.sol\":735:745  msg.sender */\n      caller\n        /* \"@openzeppelin/contracts/utils/Context.sol\":728:745  return msg.sender */\n      swap1\n      pop\n        /* \"@openzeppelin/contracts/utils/Context.sol\":656:752  function _msgSender() internal view virtual returns (address) {... */\n      swap1\n      jump\t// out\n        /* \"#utility.yul\":7:84   */\n    tag_129:\n        /* \"#utility.yul\":44:51   */\n      0x00\n        /* \"#utility.yul\":73:78   */\n      dup2\n        /* \"#utility.yul\":62:78   */\n      swap1\n      pop\n        /* \"#utility.yul\":7:84   */\n      swap2\n      swap1\n      pop\n      jump\t// out\n        /* \"#utility.yul\":90:208   */\n    tag_130:\n        /* \"#utility.yul\":177:201   */\n      tag_189\n        /* \"#utility.yul\":195:200   */\n      dup2\n        /* \"#utility.yul\":177:201   */\n      tag_129\n      jump\t// in\n    tag_189:\n        /* \"#utility.yul\":172:175   */\n      dup3\n        /* \"#utility.yul\":165:202   */\n      mstore\n        /* \"#utility.yul\":90:208   */\n      pop\n      pop\n      jump\t// out\n        /* \"#utility.yul\":214:436   */\n    tag_17:\n        /* \"#utility.yul\":307:311   */\n      0x00\n        /* \"#utility.yul\":345:347   */\n      0x20\n        /* \"#utility.yul\":334:343   */\n      dup3\n        /* \"#utility.yul\":330:348   */\n      add\n        /* \"#utility.yul\":322:348   */\n      swap1\n      pop\n        /* \"#utility.yul\":358:429   */\n      tag_191\n        /* \"#utility.yul\":426:427   */\n      0x00\n        /* \"#utility.yul\":415:424   */\n      dup4\n        /* \"#utility.yul\":411:428   */\n      add\n        /* \"#utility.yul\":402:408   */\n      dup5\n        /* \"#utility.yul\":358:429   */\n      tag_130\n      jump\t// in\n    tag_191:\n        /* \"#utility.yul\":214:436   */\n      swap3\n      swap2\n      pop\n      pop\n      jump\t// out\n        /* \"#utility.yul\":442:517   */\n    tag_131:\n        /* \"#utility.yul\":475:481   */\n      0x00\n        /* \"#utility.yul\":508:510   */\n      0x40\n        /* \"#utility.yul\":502:511   */\n      mload\n        /* \"#utility.yul\":492:511   */\n      swap1\n      pop\n        /* \"#utility.yul\":442:517   */\n      swap1\n      jump\t// out\n        /* \"#utility.yul\":523:640   */\n    tag_132:\n        /* \"#utility.yul\":632:633   */\n      0x00\n        /* \"#utility.yul\":629:630   */\n      0x00\n        /* \"#utility.yul\":622:634   */\n      revert\n        /* \"#utility.yul\":646:763   */\n    tag_133:\n        /* \"#utility.yul\":755:756   */\n      0x00\n        /* \"#utility.yul\":752:753   */\n      0x00\n        /* \"#utility.yul\":745:757   */\n      revert\n        /* \"#utility.yul\":769:895   */\n    tag_134:\n        /* \"#utility.yul\":806:813   */\n      0x00\n        /* \"#utility.yul\":846:888   */\n      0xffffffffffffffffffffffffffffffffffffffff\n        /* \"#utility.yul\":839:844   */\n      dup3\n        /* \"#utility.yul\":835:889   */\n      and\n        /* \"#utility.yul\":824:889   */\n      swap1\n      pop\n        /* \"#utility.yul\":769:895   */\n      swap2\n      swap1\n      pop\n      jump\t// out\n        /* \"#utility.yul\":901:997   */\n    tag_135:\n        /* \"#utility.yul\":938:945   */\n      0x00\n        /* \"#utility.yul\":967:991   */\n      tag_197\n        /* \"#utility.yul\":985:990   */\n      dup3\n        /* \"#utility.yul\":967:991   */\n      tag_134\n      jump\t// in\n    tag_197:\n        /* \"#utility.yul\":956:991   */\n      swap1\n      pop\n        /* \"#utility.yul\":901:997   */\n      swap2\n      swap1\n      pop\n      jump\t// out\n        /* \"#utility.yul\":1003:1125   */\n    tag_136:\n        /* \"#utility.yul\":1076:1100   */\n      tag_199\n        /* \"#utility.yul\":1094:1099   */\n      dup2\n        /* \"#utility.yul\":1076:1100   */\n      tag_135\n      jump\t// in\n    tag_199:\n        /* \"#utility.yul\":1069:1074   */\n      dup2\n        /* \"#utility.yul\":1066:1101   */\n      eq\n        /* \"#utility.yul\":1056:1119   */\n      tag_200\n      jumpi\n        /* \"#utility.yul\":1115:1116   */\n      0x00\n        /* \"#utility.yul\":1112:1113   */\n      0x00\n        /* \"#utility.yul\":1105:1117   */\n      revert\n        /* \"#utility.yul\":1056:1119   */\n    tag_200:\n        /* \"#utility.yul\":1003:1125   */\n      pop\n      jump\t// out\n        /* \"#utility.yul\":1131:1270   */\n    tag_137:\n        /* \"#utility.yul\":1177:1182   */\n      0x00\n        /* \"#utility.yul\":1215:1221   */\n      dup2\n        /* \"#utility.yul\":1202:1222   */\n      calldataload\n        /* \"#utility.yul\":1193:1222   */\n      swap1\n      pop\n        /* \"#utility.yul\":1231:1264   */\n      tag_202\n        /* \"#utility.yul\":1258:1263   */\n      dup2\n        /* \"#utility.yul\":1231:1264   */\n      tag_136\n      jump\t// in\n    tag_202:\n        /* \"#utility.yul\":1131:1270   */\n      swap3\n      swap2\n      pop\n      pop\n      jump\t// out\n        /* \"#utility.yul\":1276:1605   */\n    tag_21:\n        /* \"#utility.yul\":1335:1341   */\n      0x00\n        /* \"#utility.yul\":1384:1386   */\n      0x20\n        /* \"#utility.yul\":1372:1381   */\n      dup3\n        /* \"#utility.yul\":1363:1370   */\n      dup5\n        /* \"#utility.yul\":1359:1382   */\n      sub\n        /* \"#utility.yul\":1355:1387   */\n      slt\n        /* \"#utility.yul\":1352:1471   */\n      iszero\n      tag_204\n      jumpi\n        /* \"#utility.yul\":1390:1469   */\n      tag_205\n      tag_132\n      jump\t// in\n    tag_205:\n        /* \"#utility.yul\":1352:1471   */\n    tag_204:\n        /* \"#utility.yul\":1510:1511   */\n      0x00\n        /* \"#utility.yul\":1535:1588   */\n      tag_206\n        /* \"#utility.yul\":1580:1587   */\n      dup5\n        /* \"#utility.yul\":1571:1577   */\n      dup3\n        /* \"#utility.yul\":1560:1569   */\n      dup6\n        /* \"#utility.yul\":1556:1578   */\n      add\n        /* \"#utility.yul\":1535:1588   */\n      tag_137\n      jump\t// in\n    tag_206:\n        /* \"#utility.yul\":1525:1588   */\n      swap2\n      pop\n        /* \"#utility.yul\":1481:1598   */\n      pop\n        /* \"#utility.yul\":1276:1605   */\n      swap3\n      swap2\n      pop\n      pop\n      jump\t// out\n        /* \"#utility.yul\":1611:1701   */\n    tag_138:\n        /* \"#utility.yul\":1645:1652   */\n      0x00\n        /* \"#utility.yul\":1688:1693   */\n      dup2\n        /* \"#utility.yul\":1681:1694   */\n      iszero\n        /* \"#utility.yul\":1674:1695   */\n      iszero\n        /* \"#utility.yul\":1663:1695   */\n      swap1\n      pop\n        /* \"#utility.yul\":1611:1701   */\n      swap2\n      swap1\n      pop\n      jump\t// out\n        /* \"#utility.yul\":1707:1816   */\n    tag_139:\n        /* \"#utility.yul\":1788:1809   */\n      tag_209\n        /* \"#utility.yul\":1803:1808   */\n      dup2\n        /* \"#utility.yul\":1788:1809   */\n      tag_138\n      jump\t// in\n    tag_209:\n        /* \"#utility.yul\":1783:1786   */\n      dup3\n        /* \"#utility.yul\":1776:1810   */\n      mstore\n        /* \"#utility.yul\":1707:1816   */\n      pop\n      pop\n      jump\t// out\n        /* \"#utility.yul\":1822:2032   */\n    tag_24:\n        /* \"#utility.yul\":1909:1913   */\n      0x00\n        /* \"#utility.yul\":1947:1949   */\n      0x20\n        /* \"#utility.yul\":1936:1945   */\n      dup3\n        /* \"#utility.yul\":1932:1950   */\n      add\n        /* \"#utility.yul\":1924:1950   */\n      swap1\n      pop\n        /* \"#utility.yul\":1960:2025   */\n      tag_211\n        /* \"#utility.yul\":2022:2023   */\n      0x00\n        /* \"#utility.yul\":2011:2020   */\n      dup4\n        /* \"#utility.yul\":2007:2024   */\n      add\n        /* \"#utility.yul\":1998:2004   */\n      dup5\n        /* \"#utility.yul\":1960:2025   */\n      tag_139\n      jump\t// in\n    tag_211:\n        /* \"#utility.yul\":1822:2032   */\n      swap3\n      swap2\n      pop\n      pop\n      jump\t// out\n        /* \"#utility.yul\":2038:2156   */\n    tag_140:\n        /* \"#utility.yul\":2125:2149   */\n      tag_213\n        /* \"#utility.yul\":2143:2148   */\n      dup2\n        /* \"#utility.yul\":2125:2149   */\n      tag_135\n      jump\t// in\n    tag_213:\n        /* \"#utility.yul\":2120:2123   */\n      dup3\n        /* \"#utility.yul\":2113:2150   */\n      mstore\n        /* \"#utility.yul\":2038:2156   */\n      pop\n      pop\n      jump\t// out\n        /* \"#utility.yul\":2162:2384   */\n    tag_32:\n        /* \"#utility.yul\":2255:2259   */\n      0x00\n        /* \"#utility.yul\":2293:2295   */\n      0x20\n        /* \"#utility.yul\":2282:2291   */\n      dup3\n        /* \"#utility.yul\":2278:2296   */\n      add\n        /* \"#utility.yul\":2270:2296   */\n      swap1\n      pop\n        /* \"#utility.yul\":2306:2377   */\n      tag_215\n        /* \"#utility.yul\":2374:2375   */\n      0x00\n        /* \"#utility.yul\":2363:2372   */\n      dup4\n        /* \"#utility.yul\":2359:2376   */\n      add\n        /* \"#utility.yul\":2350:2356   */\n      dup5\n        /* \"#utility.yul\":2306:2377   */\n      tag_140\n      jump\t// in\n    tag_215:\n        /* \"#utility.yul\":2162:2384   */\n      swap3\n      swap2\n      pop\n      pop\n      jump\t// out\n        /* \"#utility.yul\":2390:2507   */\n    tag_141:\n        /* \"#utility.yul\":2499:2500   */\n      0x00\n        /* \"#utility.yul\":2496:2497   */\n      0x00\n        /* \"#utility.yul\":2489:2501   */\n      revert\n        /* \"#utility.yul\":2513:2630   */\n    tag_142:\n        /* \"#utility.yul\":2622:2623   */\n      0x00\n        /* \"#utility.yul\":2619:2620   */\n      0x00\n        /* \"#utility.yul\":2612:2624   */\n      revert\n        /* \"#utility.yul\":2636:2738   */\n    tag_143:\n        /* \"#utility.yul\":2677:2683   */\n      0x00\n        /* \"#utility.yul\":2728:2730   */\n      0x1f\n        /* \"#utility.yul\":2724:2731   */\n      not\n        /* \"#utility.yul\":2719:2721   */\n      0x1f\n        /* \"#utility.yul\":2712:2717   */\n      dup4\n        /* \"#utility.yul\":2708:2722   */\n      add\n        /* \"#utility.yul\":2704:2732   */\n      and\n        /* \"#utility.yul\":2694:2732   */\n      swap1\n      pop\n        /* \"#utility.yul\":2636:2738   */\n      swap2\n      swap1\n      pop\n      jump\t// out\n        /* \"#utility.yul\":2744:2924   */\n    tag_144:\n        /* \"#utility.yul\":2792:2869   */\n      0x4e487b7100000000000000000000000000000000000000000000000000000000\n        /* \"#utility.yul\":2789:2790   */\n      0x00\n        /* \"#utility.yul\":2782:2870   */\n      mstore\n        /* \"#utility.yul\":2889:2893   */\n      0x41\n        /* \"#utility.yul\":2886:2887   */\n      0x04\n        /* \"#utility.yul\":2879:2894   */\n      mstore\n        /* \"#utility.yul\":2913:2917   */\n      0x24\n        /* \"#utility.yul\":2910:2911   */\n      0x00\n        /* \"#utility.yul\":2903:2918   */\n      revert\n        /* \"#utility.yul\":2930:3211   */\n    tag_145:\n        /* \"#utility.yul\":3013:3040   */\n      tag_221\n        /* \"#utility.yul\":3035:3039   */\n      dup3\n        /* \"#utility.yul\":3013:3040   */\n      tag_143\n      jump\t// in\n    tag_221:\n        /* \"#utility.yul\":3005:3011   */\n      dup2\n        /* \"#utility.yul\":3001:3041   */\n      add\n        /* \"#utility.yul\":3143:3149   */\n      dup2\n        /* \"#utility.yul\":3131:3141   */\n      dup2\n        /* \"#utility.yul\":3128:3150   */\n      lt\n        /* \"#utility.yul\":3107:3125   */\n      0xffffffffffffffff\n        /* \"#utility.yul\":3095:3105   */\n      dup3\n        /* \"#utility.yul\":3092:3126   */\n      gt\n        /* \"#utility.yul\":3089:3151   */\n      or\n        /* \"#utility.yul\":3086:3174   */\n      iszero\n      tag_222\n      jumpi\n        /* \"#utility.yul\":3154:3172   */\n      tag_223\n      tag_144\n      jump\t// in\n    tag_223:\n        /* \"#utility.yul\":3086:3174   */\n    tag_222:\n        /* \"#utility.yul\":3194:3204   */\n      dup1\n        /* \"#utility.yul\":3190:3192   */\n      0x40\n        /* \"#utility.yul\":3183:3205   */\n      mstore\n        /* \"#utility.yul\":2973:3211   */\n      pop\n        /* \"#utility.yul\":2930:3211   */\n      pop\n      pop\n      jump\t// out\n        /* \"#utility.yul\":3217:3346   */\n    tag_146:\n        /* \"#utility.yul\":3251:3257   */\n      0x00\n        /* \"#utility.yul\":3278:3298   */\n      tag_225\n      tag_131\n      jump\t// in\n    tag_225:\n        /* \"#utility.yul\":3268:3298   */\n      swap1\n      pop\n        /* \"#utility.yul\":3307:3340   */\n      tag_226\n        /* \"#utility.yul\":3335:3339   */\n      dup3\n        /* \"#utility.yul\":3327:3333   */\n      dup3\n        /* \"#utility.yul\":3307:3340   */\n      tag_145\n      jump\t// in\n    tag_226:\n        /* \"#utility.yul\":3217:3346   */\n      swap2\n      swap1\n      pop\n      jump\t// out\n        /* \"#utility.yul\":3352:3660   */\n    tag_147:\n        /* \"#utility.yul\":3414:3418   */\n      0x00\n        /* \"#utility.yul\":3504:3522   */\n      0xffffffffffffffff\n        /* \"#utility.yul\":3496:3502   */\n      dup3\n        /* \"#utility.yul\":3493:3523   */\n      gt\n        /* \"#utility.yul\":3490:3546   */\n      iszero\n      tag_228\n      jumpi\n        /* \"#utility.yul\":3526:3544   */\n      tag_229\n      tag_144\n      jump\t// in\n    tag_229:\n        /* \"#utility.yul\":3490:3546   */\n    tag_228:\n        /* \"#utility.yul\":3564:3593   */\n      tag_230\n        /* \"#utility.yul\":3586:3592   */\n      dup3\n        /* \"#utility.yul\":3564:3593   */\n      tag_143\n      jump\t// in\n    tag_230:\n        /* \"#utility.yul\":3556:3593   */\n      swap1\n      pop\n        /* \"#utility.yul\":3648:3652   */\n      0x20\n        /* \"#utility.yul\":3642:3646   */\n      dup2\n        /* \"#utility.yul\":3638:3653   */\n      add\n        /* \"#utility.yul\":3630:3653   */\n      swap1\n      pop\n        /* \"#utility.yul\":3352:3660   */\n      swap2\n      swap1\n      pop\n      jump\t// out\n        /* \"#utility.yul\":3666:3814   */\n    tag_148:\n        /* \"#utility.yul\":3764:3770   */\n      dup3\n        /* \"#utility.yul\":3759:3762   */\n      dup2\n        /* \"#utility.yul\":3754:3757   */\n      dup4\n        /* \"#utility.yul\":3741:3771   */\n      calldatacopy\n        /* \"#utility.yul\":3805:3806   */\n      0x00\n        /* \"#utility.yul\":3796:3802   */\n      dup4\n        /* \"#utility.yul\":3791:3794   */\n      dup4\n        /* \"#utility.yul\":3787:3803   */\n      add\n        /* \"#utility.yul\":3780:3807   */\n      mstore\n        /* \"#utility.yul\":3666:3814   */\n      pop\n      pop\n      pop\n      jump\t// out\n        /* \"#utility.yul\":3820:4245   */\n    tag_149:\n        /* \"#utility.yul\":3898:3903   */\n      0x00\n        /* \"#utility.yul\":3923:3989   */\n      tag_233\n        /* \"#utility.yul\":3939:3988   */\n      tag_234\n        /* \"#utility.yul\":3981:3987   */\n      dup5\n        /* \"#utility.yul\":3939:3988   */\n      tag_147\n      jump\t// in\n    tag_234:\n        /* \"#utility.yul\":3923:3989   */\n      tag_146\n      jump\t// in\n    tag_233:\n        /* \"#utility.yul\":3914:3989   */\n      swap1\n      pop\n        /* \"#utility.yul\":4012:4018   */\n      dup3\n        /* \"#utility.yul\":4005:4010   */\n      dup2\n        /* \"#utility.yul\":3998:4019   */\n      mstore\n        /* \"#utility.yul\":4050:4054   */\n      0x20\n        /* \"#utility.yul\":4043:4048   */\n      dup2\n        /* \"#utility.yul\":4039:4055   */\n      add\n        /* \"#utility.yul\":4088:4091   */\n      dup5\n        /* \"#utility.yul\":4079:4085   */\n      dup5\n        /* \"#utility.yul\":4074:4077   */\n      dup5\n        /* \"#utility.yul\":4070:4086   */\n      add\n        /* \"#utility.yul\":4067:4092   */\n      gt\n        /* \"#utility.yul\":4064:4176   */\n      iszero\n      tag_235\n      jumpi\n        /* \"#utility.yul\":4095:4174   */\n      tag_236\n      tag_142\n      jump\t// in\n    tag_236:\n        /* \"#utility.yul\":4064:4176   */\n    tag_235:\n        /* \"#utility.yul\":4185:4239   */\n      tag_237\n        /* \"#utility.yul\":4232:4238   */\n      dup5\n        /* \"#utility.yul\":4227:4230   */\n      dup3\n        /* \"#utility.yul\":4222:4225   */\n      dup6\n        /* \"#utility.yul\":4185:4239   */\n      tag_148\n      jump\t// in\n    tag_237:\n        /* \"#utility.yul\":3904:4245   */\n      pop\n        /* \"#utility.yul\":3820:4245   */\n      swap4\n      swap3\n      pop\n      pop\n      pop\n      jump\t// out\n        /* \"#utility.yul\":4265:4605   */\n    tag_150:\n        /* \"#utility.yul\":4321:4326   */\n      0x00\n        /* \"#utility.yul\":4370:4373   */\n      dup3\n        /* \"#utility.yul\":4363:4367   */\n      0x1f\n        /* \"#utility.yul\":4355:4361   */\n      dup4\n        /* \"#utility.yul\":4351:4368   */\n      add\n        /* \"#utility.yul\":4347:4374   */\n      slt\n        /* \"#utility.yul\":4337:4459   */\n      tag_239\n      jumpi\n        /* \"#utility.yul\":4378:4457   */\n      tag_240\n      tag_141\n      jump\t// in\n    tag_240:\n        /* \"#utility.yul\":4337:4459   */\n    tag_239:\n        /* \"#utility.yul\":4495:4501   */\n      dup2\n        /* \"#utility.yul\":4482:4502   */\n      calldataload\n        /* \"#utility.yul\":4520:4599   */\n      tag_241\n        /* \"#utility.yul\":4595:4598   */\n      dup5\n        /* \"#utility.yul\":4587:4593   */\n      dup3\n        /* \"#utility.yul\":4580:4584   */\n      0x20\n        /* \"#utility.yul\":4572:4578   */\n      dup7\n        /* \"#utility.yul\":4568:4585   */\n      add\n        /* \"#utility.yul\":4520:4599   */\n      tag_149\n      jump\t// in\n    tag_241:\n        /* \"#utility.yul\":4511:4599   */\n      swap2\n      pop\n        /* \"#utility.yul\":4327:4605   */\n      pop\n        /* \"#utility.yul\":4265:4605   */\n      swap3\n      swap2\n      pop\n      pop\n      jump\t// out\n        /* \"#utility.yul\":4611:4733   */\n    tag_151:\n        /* \"#utility.yul\":4684:4708   */\n      tag_243\n        /* \"#utility.yul\":4702:4707   */\n      dup2\n        /* \"#utility.yul\":4684:4708   */\n      tag_129\n      jump\t// in\n    tag_243:\n        /* \"#utility.yul\":4677:4682   */\n      dup2\n        /* \"#utility.yul\":4674:4709   */\n      eq\n        /* \"#utility.yul\":4664:4727   */\n      tag_244\n      jumpi\n        /* \"#utility.yul\":4723:4724   */\n      0x00\n        /* \"#utility.yul\":4720:4721   */\n      0x00\n        /* \"#utility.yul\":4713:4725   */\n      revert\n        /* \"#utility.yul\":4664:4727   */\n    tag_244:\n        /* \"#utility.yul\":4611:4733   */\n      pop\n      jump\t// out\n        /* \"#utility.yul\":4739:4878   */\n    tag_152:\n        /* \"#utility.yul\":4785:4790   */\n      0x00\n        /* \"#utility.yul\":4823:4829   */\n      dup2\n        /* \"#utility.yul\":4810:4830   */\n      calldataload\n        /* \"#utility.yul\":4801:4830   */\n      swap1\n      pop\n        /* \"#utility.yul\":4839:4872   */\n      tag_246\n        /* \"#utility.yul\":4866:4871   */\n      dup2\n        /* \"#utility.yul\":4839:4872   */\n      tag_151\n      jump\t// in\n    tag_246:\n        /* \"#utility.yul\":4739:4878   */\n      swap3\n      swap2\n      pop\n      pop\n      jump\t// out\n        /* \"#utility.yul\":4884:5863   */\n    tag_35:\n        /* \"#utility.yul\":4981:4987   */\n      0x00\n        /* \"#utility.yul\":4989:4995   */\n      0x00\n        /* \"#utility.yul\":4997:5003   */\n      0x00\n        /* \"#utility.yul\":5046:5048   */\n      0x60\n        /* \"#utility.yul\":5034:5043   */\n      dup5\n        /* \"#utility.yul\":5025:5032   */\n      dup7\n        /* \"#utility.yul\":5021:5044   */\n      sub\n        /* \"#utility.yul\":5017:5049   */\n      slt\n        /* \"#utility.yul\":5014:5133   */\n      iszero\n      tag_248\n      jumpi\n        /* \"#utility.yul\":5052:5131   */\n      tag_249\n      tag_132\n      jump\t// in\n    tag_249:\n        /* \"#utility.yul\":5014:5133   */\n    tag_248:\n        /* \"#utility.yul\":5200:5201   */\n      0x00\n        /* \"#utility.yul\":5189:5198   */\n      dup5\n        /* \"#utility.yul\":5185:5202   */\n      add\n        /* \"#utility.yul\":5172:5203   */\n      calldataload\n        /* \"#utility.yul\":5230:5248   */\n      0xffffffffffffffff\n        /* \"#utility.yul\":5222:5228   */\n      dup2\n        /* \"#utility.yul\":5219:5249   */\n      gt\n        /* \"#utility.yul\":5216:5333   */\n      iszero\n      tag_250\n      jumpi\n        /* \"#utility.yul\":5252:5331   */\n      tag_251\n      tag_133\n      jump\t// in\n    tag_251:\n        /* \"#utility.yul\":5216:5333   */\n    tag_250:\n        /* \"#utility.yul\":5357:5420   */\n      tag_252\n        /* \"#utility.yul\":5412:5419   */\n      dup7\n        /* \"#utility.yul\":5403:5409   */\n      dup3\n        /* \"#utility.yul\":5392:5401   */\n      dup8\n        /* \"#utility.yul\":5388:5410   */\n      add\n        /* \"#utility.yul\":5357:5420   */\n      tag_150\n      jump\t// in\n    tag_252:\n        /* \"#utility.yul\":5347:5420   */\n      swap4\n      pop\n        /* \"#utility.yul\":5143:5430   */\n      pop\n        /* \"#utility.yul\":5497:5499   */\n      0x20\n        /* \"#utility.yul\":5486:5495   */\n      dup5\n        /* \"#utility.yul\":5482:5500   */\n      add\n        /* \"#utility.yul\":5469:5501   */\n      calldataload\n        /* \"#utility.yul\":5528:5546   */\n      0xffffffffffffffff\n        /* \"#utility.yul\":5520:5526   */\n      dup2\n        /* \"#utility.yul\":5517:5547   */\n      gt\n        /* \"#utility.yul\":5514:5631   */\n      iszero\n      tag_253\n      jumpi\n        /* \"#utility.yul\":5550:5629   */\n      tag_254\n      tag_133\n      jump\t// in\n    tag_254:\n        /* \"#utility.yul\":5514:5631   */\n    tag_253:\n        /* \"#utility.yul\":5655:5718   */\n      tag_255\n        /* \"#utility.yul\":5710:5717   */\n      dup7\n        /* \"#utility.yul\":5701:5707   */\n      dup3\n        /* \"#utility.yul\":5690:5699   */\n      dup8\n        /* \"#utility.yul\":5686:5708   */\n      add\n        /* \"#utility.yul\":5655:5718   */\n      tag_150\n      jump\t// in\n    tag_255:\n        /* \"#utility.yul\":5645:5718   */\n      swap3\n      pop\n        /* \"#utility.yul\":5440:5728   */\n      pop\n        /* \"#utility.yul\":5767:5769   */\n      0x40\n        /* \"#utility.yul\":5793:5846   */\n      tag_256\n        /* \"#utility.yul\":5838:5845   */\n      dup7\n        /* \"#utility.yul\":5829:5835   */\n      dup3\n        /* \"#utility.yul\":5818:5827   */\n      dup8\n        /* \"#utility.yul\":5814:5836   */\n      add\n        /* \"#utility.yul\":5793:5846   */\n      tag_152\n      jump\t// in\n    tag_256:\n        /* \"#utility.yul\":5783:5846   */\n      swap2\n      pop\n        /* \"#utility.yul\":5738:5856   */\n      pop\n        /* \"#utility.yul\":4884:5863   */\n      swap3\n      pop\n      swap3\n      pop\n      swap3\n      jump\t// out\n        /* \"#utility.yul\":5869:5983   */\n    tag_153:\n        /* \"#utility.yul\":5957:5958   */\n      0x02\n        /* \"#utility.yul\":5950:5955   */\n      dup2\n        /* \"#utility.yul\":5947:5959   */\n      lt\n        /* \"#utility.yul\":5937:5977   */\n      tag_258\n      jumpi\n        /* \"#utility.yul\":5973:5974   */\n      0x00\n        /* \"#utility.yul\":5970:5971   */\n      0x00\n        /* \"#utility.yul\":5963:5975   */\n      revert\n        /* \"#utility.yul\":5937:5977   */\n    tag_258:\n        /* \"#utility.yul\":5869:5983   */\n      pop\n      jump\t// out\n        /* \"#utility.yul\":5989:6158   */\n    tag_154:\n        /* \"#utility.yul\":6050:6055   */\n      0x00\n        /* \"#utility.yul\":6088:6094   */\n      dup2\n        /* \"#utility.yul\":6075:6095   */\n      calldataload\n        /* \"#utility.yul\":6066:6095   */\n      swap1\n      pop\n        /* \"#utility.yul\":6104:6152   */\n      tag_260\n        /* \"#utility.yul\":6146:6151   */\n      dup2\n        /* \"#utility.yul\":6104:6152   */\n      tag_153\n      jump\t// in\n    tag_260:\n        /* \"#utility.yul\":5989:6158   */\n      swap3\n      swap2\n      pop\n      pop\n      jump\t// out\n        /* \"#utility.yul\":6164:6668   */\n    tag_40:\n        /* \"#utility.yul\":6247:6253   */\n      0x00\n        /* \"#utility.yul\":6255:6261   */\n      0x00\n        /* \"#utility.yul\":6304:6306   */\n      0x40\n        /* \"#utility.yul\":6292:6301   */\n      dup4\n        /* \"#utility.yul\":6283:6290   */\n      dup6\n        /* \"#utility.yul\":6279:6302   */\n      sub\n        /* \"#utility.yul\":6275:6307   */\n      slt\n        /* \"#utility.yul\":6272:6391   */\n      iszero\n      tag_262\n      jumpi\n        /* \"#utility.yul\":6310:6389   */\n      tag_263\n      tag_132\n      jump\t// in\n    tag_263:\n        /* \"#utility.yul\":6272:6391   */\n    tag_262:\n        /* \"#utility.yul\":6430:6431   */\n      0x00\n        /* \"#utility.yul\":6455:6508   */\n      tag_264\n        /* \"#utility.yul\":6500:6507   */\n      dup6\n        /* \"#utility.yul\":6491:6497   */\n      dup3\n        /* \"#utility.yul\":6480:6489   */\n      dup7\n        /* \"#utility.yul\":6476:6498   */\n      add\n        /* \"#utility.yul\":6455:6508   */\n      tag_152\n      jump\t// in\n    tag_264:\n        /* \"#utility.yul\":6445:6508   */\n      swap3\n      pop\n        /* \"#utility.yul\":6401:6518   */\n      pop\n        /* \"#utility.yul\":6557:6559   */\n      0x20\n        /* \"#utility.yul\":6583:6651   */\n      tag_265\n        /* \"#utility.yul\":6643:6650   */\n      dup6\n        /* \"#utility.yul\":6634:6640   */\n      dup3\n        /* \"#utility.yul\":6623:6632   */\n      dup7\n        /* \"#utility.yul\":6619:6641   */\n      add\n        /* \"#utility.yul\":6583:6651   */\n      tag_154\n      jump\t// in\n    tag_265:\n        /* \"#utility.yul\":6573:6651   */\n      swap2\n      pop\n        /* \"#utility.yul\":6528:6661   */\n      pop\n        /* \"#utility.yul\":6164:6668   */\n      swap3\n      pop\n      swap3\n      swap1\n      pop\n      jump\t// out\n        /* \"#utility.yul\":6674:6790   */\n    tag_155:\n        /* \"#utility.yul\":6744:6765   */\n      tag_267\n        /* \"#utility.yul\":6759:6764   */\n      dup2\n        /* \"#utility.yul\":6744:6765   */\n      tag_138\n      jump\t// in\n    tag_267:\n        /* \"#utility.yul\":6737:6742   */\n      dup2\n        /* \"#utility.yul\":6734:6766   */\n      eq\n        /* \"#utility.yul\":6724:6784   */\n      tag_268\n      jumpi\n        /* \"#utility.yul\":6780:6781   */\n      0x00\n        /* \"#utility.yul\":6777:6778   */\n      0x00\n        /* \"#utility.yul\":6770:6782   */\n      revert\n        /* \"#utility.yul\":6724:6784   */\n    tag_268:\n        /* \"#utility.yul\":6674:6790   */\n      pop\n      jump\t// out\n        /* \"#utility.yul\":6796:6929   */\n    tag_156:\n        /* \"#utility.yul\":6839:6844   */\n      0x00\n        /* \"#utility.yul\":6877:6883   */\n      dup2\n        /* \"#utility.yul\":6864:6884   */\n      calldataload\n        /* \"#utility.yul\":6855:6884   */\n      swap1\n      pop\n        /* \"#utility.yul\":6893:6923   */\n      tag_270\n        /* \"#utility.yul\":6917:6922   */\n      dup2\n        /* \"#utility.yul\":6893:6923   */\n      tag_155\n      jump\t// in\n    tag_270:\n        /* \"#utility.yul\":6796:6929   */\n      swap3\n      swap2\n      pop\n      pop\n      jump\t// out\n        /* \"#utility.yul\":6935:7403   */\n    tag_49:\n        /* \"#utility.yul\":7000:7006   */\n      0x00\n        /* \"#utility.yul\":7008:7014   */\n      0x00\n        /* \"#utility.yul\":7057:7059   */\n      0x40\n        /* \"#utility.yul\":7045:7054   */\n      dup4\n        /* \"#utility.yul\":7036:7043   */\n      dup6\n        /* \"#utility.yul\":7032:7055   */\n      sub\n        /* \"#utility.yul\":7028:7060   */\n      slt\n        /* \"#utility.yul\":7025:7144   */\n      iszero\n      tag_272\n      jumpi\n        /* \"#utility.yul\":7063:7142   */\n      tag_273\n      tag_132\n      jump\t// in\n    tag_273:\n        /* \"#utility.yul\":7025:7144   */\n    tag_272:\n        /* \"#utility.yul\":7183:7184   */\n      0x00\n        /* \"#utility.yul\":7208:7261   */\n      tag_274\n        /* \"#utility.yul\":7253:7260   */\n      dup6\n        /* \"#utility.yul\":7244:7250   */\n      dup3\n        /* \"#utility.yul\":7233:7242   */\n      dup7\n        /* \"#utility.yul\":7229:7251   */\n      add\n        /* \"#utility.yul\":7208:7261   */\n      tag_137\n      jump\t// in\n    tag_274:\n        /* \"#utility.yul\":7198:7261   */\n      swap3\n      pop\n        /* \"#utility.yul\":7154:7271   */\n      pop\n        /* \"#utility.yul\":7310:7312   */\n      0x20\n        /* \"#utility.yul\":7336:7386   */\n      tag_275\n        /* \"#utility.yul\":7378:7385   */\n      dup6\n        /* \"#utility.yul\":7369:7375   */\n      dup3\n        /* \"#utility.yul\":7358:7367   */\n      dup7\n        /* \"#utility.yul\":7354:7376   */\n      add\n        /* \"#utility.yul\":7336:7386   */\n      tag_156\n      jump\t// in\n    tag_275:\n        /* \"#utility.yul\":7326:7386   */\n      swap2\n      pop\n        /* \"#utility.yul\":7281:7396   */\n      pop\n        /* \"#utility.yul\":6935:7403   */\n      swap3\n      pop\n      swap3\n      swap1\n      pop\n      jump\t// out\n        /* \"#utility.yul\":7409:7738   */\n    tag_54:\n        /* \"#utility.yul\":7468:7474   */\n      0x00\n        /* \"#utility.yul\":7517:7519   */\n      0x20\n        /* \"#utility.yul\":7505:7514   */\n      dup3\n        /* \"#utility.yul\":7496:7503   */\n      dup5\n        /* \"#utility.yul\":7492:7515   */\n      sub\n        /* \"#utility.yul\":7488:7520   */\n      slt\n        /* \"#utility.yul\":7485:7604   */\n      iszero\n      tag_277\n      jumpi\n        /* \"#utility.yul\":7523:7602   */\n      tag_278\n      tag_132\n      jump\t// in\n    tag_278:\n        /* \"#utility.yul\":7485:7604   */\n    tag_277:\n        /* \"#utility.yul\":7643:7644   */\n      0x00\n        /* \"#utility.yul\":7668:7721   */\n      tag_279\n        /* \"#utility.yul\":7713:7720   */\n      dup5\n        /* \"#utility.yul\":7704:7710   */\n      dup3\n        /* \"#utility.yul\":7693:7702   */\n      dup6\n        /* \"#utility.yul\":7689:7711   */\n      add\n        /* \"#utility.yul\":7668:7721   */\n      tag_152\n      jump\t// in\n    tag_279:\n        /* \"#utility.yul\":7658:7721   */\n      swap2\n      pop\n        /* \"#utility.yul\":7614:7731   */\n      pop\n        /* \"#utility.yul\":7409:7738   */\n      swap3\n      swap2\n      pop\n      pop\n      jump\t// out\n        /* \"#utility.yul\":7744:7843   */\n    tag_157:\n        /* \"#utility.yul\":7796:7802   */\n      0x00\n        /* \"#utility.yul\":7830:7835   */\n      dup2\n        /* \"#utility.yul\":7824:7836   */\n      mload\n        /* \"#utility.yul\":7814:7836   */\n      swap1\n      pop\n        /* \"#utility.yul\":7744:7843   */\n      swap2\n      swap1\n      pop\n      jump\t// out\n        /* \"#utility.yul\":7849:8018   */\n    tag_158:\n        /* \"#utility.yul\":7933:7944   */\n      0x00\n        /* \"#utility.yul\":7967:7973   */\n      dup3\n        /* \"#utility.yul\":7962:7965   */\n      dup3\n        /* \"#utility.yul\":7955:7974   */\n      mstore\n        /* \"#utility.yul\":8007:8011   */\n      0x20\n        /* \"#utility.yul\":8002:8005   */\n      dup3\n        /* \"#utility.yul\":7998:8012   */\n      add\n        /* \"#utility.yul\":7983:8012   */\n      swap1\n      pop\n        /* \"#utility.yul\":7849:8018   */\n      swap3\n      swap2\n      pop\n      pop\n      jump\t// out\n        /* \"#utility.yul\":8024:8163   */\n    tag_159:\n        /* \"#utility.yul\":8113:8119   */\n      dup3\n        /* \"#utility.yul\":8108:8111   */\n      dup2\n        /* \"#utility.yul\":8103:8106   */\n      dup4\n        /* \"#utility.yul\":8097:8120   */\n      mcopy\n        /* \"#utility.yul\":8154:8155   */\n      0x00\n        /* \"#utility.yul\":8145:8151   */\n      dup4\n        /* \"#utility.yul\":8140:8143   */\n      dup4\n        /* \"#utility.yul\":8136:8152   */\n      add\n        /* \"#utility.yul\":8129:8156   */\n      mstore\n        /* \"#utility.yul\":8024:8163   */\n      pop\n      pop\n      pop\n      jump\t// out\n        /* \"#utility.yul\":8169:8546   */\n    tag_160:\n        /* \"#utility.yul\":8257:8260   */\n      0x00\n        /* \"#utility.yul\":8285:8324   */\n      tag_284\n        /* \"#utility.yul\":8318:8323   */\n      dup3\n        /* \"#utility.yul\":8285:8324   */\n      tag_157\n      jump\t// in\n    tag_284:\n        /* \"#utility.yul\":8340:8411   */\n      tag_285\n        /* \"#utility.yul\":8404:8410   */\n      dup2\n        /* \"#utility.yul\":8399:8402   */\n      dup6\n        /* \"#utility.yul\":8340:8411   */\n      tag_158\n      jump\t// in\n    tag_285:\n        /* \"#utility.yul\":8333:8411   */\n      swap4\n      pop\n        /* \"#utility.yul\":8420:8485   */\n      tag_286\n        /* \"#utility.yul\":8478:8484   */\n      dup2\n        /* \"#utility.yul\":8473:8476   */\n      dup6\n        /* \"#utility.yul\":8466:8470   */\n      0x20\n        /* \"#utility.yul\":8459:8464   */\n      dup7\n        /* \"#utility.yul\":8455:8471   */\n      add\n        /* \"#utility.yul\":8420:8485   */\n      tag_159\n      jump\t// in\n    tag_286:\n        /* \"#utility.yul\":8510:8539   */\n      tag_287\n        /* \"#utility.yul\":8532:8538   */\n      dup2\n        /* \"#utility.yul\":8510:8539   */\n      tag_143\n      jump\t// in\n    tag_287:\n        /* \"#utility.yul\":8505:8508   */\n      dup5\n        /* \"#utility.yul\":8501:8540   */\n      add\n        /* \"#utility.yul\":8494:8540   */\n      swap2\n      pop\n        /* \"#utility.yul\":8261:8546   */\n      pop\n        /* \"#utility.yul\":8169:8546   */\n      swap3\n      swap2\n      pop\n      pop\n      jump\t// out\n        /* \"#utility.yul\":8552:9620   */\n    tag_57:\n        /* \"#utility.yul\":8853:8857   */\n      0x00\n        /* \"#utility.yul\":8891:8894   */\n      0xe0\n        /* \"#utility.yul\":8880:8889   */\n      dup3\n        /* \"#utility.yul\":8876:8895   */\n      add\n        /* \"#utility.yul\":8868:8895   */\n      swap1\n      pop\n        /* \"#utility.yul\":8905:8976   */\n      tag_289\n        /* \"#utility.yul\":8973:8974   */\n      0x00\n        /* \"#utility.yul\":8962:8971   */\n      dup4\n        /* \"#utility.yul\":8958:8975   */\n      add\n        /* \"#utility.yul\":8949:8955   */\n      dup11\n        /* \"#utility.yul\":8905:8976   */\n      tag_130\n      jump\t// in\n    tag_289:\n        /* \"#utility.yul\":9023:9032   */\n      dup2\n        /* \"#utility.yul\":9017:9021   */\n      dup2\n        /* \"#utility.yul\":9013:9033   */\n      sub\n        /* \"#utility.yul\":9008:9010   */\n      0x20\n        /* \"#utility.yul\":8997:9006   */\n      dup4\n        /* \"#utility.yul\":8993:9011   */\n      add\n        /* \"#utility.yul\":8986:9034   */\n      mstore\n        /* \"#utility.yul\":9051:9129   */\n      tag_290\n        /* \"#utility.yul\":9124:9128   */\n      dup2\n        /* \"#utility.yul\":9115:9121   */\n      dup10\n        /* \"#utility.yul\":9051:9129   */\n      tag_160\n      jump\t// in\n    tag_290:\n        /* \"#utility.yul\":9043:9129   */\n      swap1\n      pop\n        /* \"#utility.yul\":9176:9185   */\n      dup2\n        /* \"#utility.yul\":9170:9174   */\n      dup2\n        /* \"#utility.yul\":9166:9186   */\n      sub\n        /* \"#utility.yul\":9161:9163   */\n      0x40\n        /* \"#utility.yul\":9150:9159   */\n      dup4\n        /* \"#utility.yul\":9146:9164   */\n      add\n        /* \"#utility.yul\":9139:9187   */\n      mstore\n        /* \"#utility.yul\":9204:9282   */\n      tag_291\n        /* \"#utility.yul\":9277:9281   */\n      dup2\n        /* \"#utility.yul\":9268:9274   */\n      dup9\n        /* \"#utility.yul\":9204:9282   */\n      tag_160\n      jump\t// in\n    tag_291:\n        /* \"#utility.yul\":9196:9282   */\n      swap1\n      pop\n        /* \"#utility.yul\":9292:9364   */\n      tag_292\n        /* \"#utility.yul\":9360:9362   */\n      0x60\n        /* \"#utility.yul\":9349:9358   */\n      dup4\n        /* \"#utility.yul\":9345:9363   */\n      add\n        /* \"#utility.yul\":9336:9342   */\n      dup8\n        /* \"#utility.yul\":9292:9364   */\n      tag_130\n      jump\t// in\n    tag_292:\n        /* \"#utility.yul\":9374:9447   */\n      tag_293\n        /* \"#utility.yul\":9442:9445   */\n      0x80\n        /* \"#utility.yul\":9431:9440   */\n      dup4\n        /* \"#utility.yul\":9427:9446   */\n      add\n        /* \"#utility.yul\":9418:9424   */\n      dup7\n        /* \"#utility.yul\":9374:9447   */\n      tag_130\n      jump\t// in\n    tag_293:\n        /* \"#utility.yul\":9457:9530   */\n      tag_294\n        /* \"#utility.yul\":9525:9528   */\n      0xa0\n        /* \"#utility.yul\":9514:9523   */\n      dup4\n        /* \"#utility.yul\":9510:9529   */\n      add\n        /* \"#utility.yul\":9501:9507   */\n      dup6\n        /* \"#utility.yul\":9457:9530   */\n      tag_130\n      jump\t// in\n    tag_294:\n        /* \"#utility.yul\":9540:9613   */\n      tag_295\n        /* \"#utility.yul\":9608:9611   */\n      0xc0\n        /* \"#utility.yul\":9597:9606   */\n      dup4\n        /* \"#utility.yul\":9593:9612   */\n      add\n        /* \"#utility.yul\":9584:9590   */\n      dup5\n        /* \"#utility.yul\":9540:9613   */\n      tag_140\n      jump\t// in\n    tag_295:\n        /* \"#utility.yul\":8552:9620   */\n      swap9\n      swap8\n      pop\n      pop\n      pop\n      pop\n      pop\n      pop\n      pop\n      pop\n      jump\t// out\n        /* \"#utility.yul\":9626:9792   */\n    tag_161:\n        /* \"#utility.yul\":9766:9784   */\n      0x4e6f7420456e6f75676820457468657200000000000000000000000000000000\n        /* \"#utility.yul\":9762:9763   */\n      0x00\n        /* \"#utility.yul\":9754:9760   */\n      dup3\n        /* \"#utility.yul\":9750:9764   */\n      add\n        /* \"#utility.yul\":9743:9785   */\n      mstore\n        /* \"#utility.yul\":9626:9792   */\n      pop\n      jump\t// out\n        /* \"#utility.yul\":9798:10164   */\n    tag_162:\n        /* \"#utility.yul\":9940:9943   */\n      0x00\n        /* \"#utility.yul\":9961:10028   */\n      tag_298\n        /* \"#utility.yul\":10025:10027   */\n      0x10\n        /* \"#utility.yul\":10020:10023   */\n      dup4\n        /* \"#utility.yul\":9961:10028   */\n      tag_158\n      jump\t// in\n    tag_298:\n        /* \"#utility.yul\":9954:10028   */\n      swap2\n      pop\n        /* \"#utility.yul\":10037:10130   */\n      tag_299\n        /* \"#utility.yul\":10126:10129   */\n      dup3\n        /* \"#utility.yul\":10037:10130   */\n      tag_161\n      jump\t// in\n    tag_299:\n        /* \"#utility.yul\":10155:10157   */\n      0x20\n        /* \"#utility.yul\":10150:10153   */\n      dup3\n        /* \"#utility.yul\":10146:10158   */\n      add\n        /* \"#utility.yul\":10139:10158   */\n      swap1\n      pop\n        /* \"#utility.yul\":9798:10164   */\n      swap2\n      swap1\n      pop\n      jump\t// out\n        /* \"#utility.yul\":10170:10589   */\n    tag_72:\n        /* \"#utility.yul\":10336:10340   */\n      0x00\n        /* \"#utility.yul\":10374:10376   */\n      0x20\n        /* \"#utility.yul\":10363:10372   */\n      dup3\n        /* \"#utility.yul\":10359:10377   */\n      add\n        /* \"#utility.yul\":10351:10377   */\n      swap1\n      pop\n        /* \"#utility.yul\":10423:10432   */\n      dup2\n        /* \"#utility.yul\":10417:10421   */\n      dup2\n        /* \"#utility.yul\":10413:10433   */\n      sub\n        /* \"#utility.yul\":10409:10410   */\n      0x00\n        /* \"#utility.yul\":10398:10407   */\n      dup4\n        /* \"#utility.yul\":10394:10411   */\n      add\n        /* \"#utility.yul\":10387:10434   */\n      mstore\n        /* \"#utility.yul\":10451:10582   */\n      tag_301\n        /* \"#utility.yul\":10577:10581   */\n      dup2\n        /* \"#utility.yul\":10451:10582   */\n      tag_162\n      jump\t// in\n    tag_301:\n        /* \"#utility.yul\":10443:10582   */\n      swap1\n      pop\n        /* \"#utility.yul\":10170:10589   */\n      swap2\n      swap1\n      pop\n      jump\t// out\n        /* \"#utility.yul\":10595:10758   */\n    tag_163:\n        /* \"#utility.yul\":10735:10750   */\n      0x4f6e6c7957686974656c69737400000000000000000000000000000000000000\n        /* \"#utility.yul\":10731:10732   */\n      0x00\n        /* \"#utility.yul\":10723:10729   */\n      dup3\n        /* \"#utility.yul\":10719:10733   */\n      add\n        /* \"#utility.yul\":10712:10751   */\n      mstore\n        /* \"#utility.yul\":10595:10758   */\n      pop\n      jump\t// out\n        /* \"#utility.yul\":10764:11130   */\n    tag_164:\n        /* \"#utility.yul\":10906:10909   */\n      0x00\n        /* \"#utility.yul\":10927:10994   */\n      tag_304\n        /* \"#utility.yul\":10991:10993   */\n      0x0d\n        /* \"#utility.yul\":10986:10989   */\n      dup4\n        /* \"#utility.yul\":10927:10994   */\n      tag_158\n      jump\t// in\n    tag_304:\n        /* \"#utility.yul\":10920:10994   */\n      swap2\n      pop\n        /* \"#utility.yul\":11003:11096   */\n      tag_305\n        /* \"#utility.yul\":11092:11095   */\n      dup3\n        /* \"#utility.yul\":11003:11096   */\n      tag_163\n      jump\t// in\n    tag_305:\n        /* \"#utility.yul\":11121:11123   */\n      0x20\n        /* \"#utility.yul\":11116:11119   */\n      dup3\n        /* \"#utility.yul\":11112:11124   */\n      add\n        /* \"#utility.yul\":11105:11124   */\n      swap1\n      pop\n        /* \"#utility.yul\":10764:11130   */\n      swap2\n      swap1\n      pop\n      jump\t// out\n        /* \"#utility.yul\":11136:11555   */\n    tag_76:\n        /* \"#utility.yul\":11302:11306   */\n      0x00\n        /* \"#utility.yul\":11340:11342   */\n      0x20\n        /* \"#utility.yul\":11329:11338   */\n      dup3\n        /* \"#utility.yul\":11325:11343   */\n      add\n        /* \"#utility.yul\":11317:11343   */\n      swap1\n      pop\n        /* \"#utility.yul\":11389:11398   */\n      dup2\n        /* \"#utility.yul\":11383:11387   */\n      dup2\n        /* \"#utility.yul\":11379:11399   */\n      sub\n        /* \"#utility.yul\":11375:11376   */\n      0x00\n        /* \"#utility.yul\":11364:11373   */\n      dup4\n        /* \"#utility.yul\":11360:11377   */\n      add\n        /* \"#utility.yul\":11353:11400   */\n      mstore\n        /* \"#utility.yul\":11417:11548   */\n      tag_307\n        /* \"#utility.yul\":11543:11547   */\n      dup2\n        /* \"#utility.yul\":11417:11548   */\n      tag_164\n      jump\t// in\n    tag_307:\n        /* \"#utility.yul\":11409:11548   */\n      swap1\n      pop\n        /* \"#utility.yul\":11136:11555   */\n      swap2\n      swap1\n      pop\n      jump\t// out\n        /* \"#utility.yul\":11561:11741   */\n    tag_165:\n        /* \"#utility.yul\":11609:11686   */\n      0x4e487b7100000000000000000000000000000000000000000000000000000000\n        /* \"#utility.yul\":11606:11607   */\n      0x00\n        /* \"#utility.yul\":11599:11687   */\n      mstore\n        /* \"#utility.yul\":11706:11710   */\n      0x11\n        /* \"#utility.yul\":11703:11704   */\n      0x04\n        /* \"#utility.yul\":11696:11711   */\n      mstore\n        /* \"#utility.yul\":11730:11734   */\n      0x24\n        /* \"#utility.yul\":11727:11728   */\n      0x00\n        /* \"#utility.yul\":11720:11735   */\n      revert\n        /* \"#utility.yul\":11747:11980   */\n    tag_79:\n        /* \"#utility.yul\":11786:11789   */\n      0x00\n        /* \"#utility.yul\":11809:11833   */\n      tag_310\n        /* \"#utility.yul\":11827:11832   */\n      dup3\n        /* \"#utility.yul\":11809:11833   */\n      tag_129\n      jump\t// in\n    tag_310:\n        /* \"#utility.yul\":11800:11833   */\n      swap2\n      pop\n        /* \"#utility.yul\":11855:11921   */\n      0xffffffffffffffffffffffffffffffffffffffffffffffffffffffffffffffff\n        /* \"#utility.yul\":11848:11853   */\n      dup3\n        /* \"#utility.yul\":11845:11922   */\n      sub\n        /* \"#utility.yul\":11842:11945   */\n      tag_311\n      jumpi\n        /* \"#utility.yul\":11925:11943   */\n      tag_312\n      tag_165\n      jump\t// in\n    tag_312:\n        /* \"#utility.yul\":11842:11945   */\n    tag_311:\n        /* \"#utility.yul\":11972:11973   */\n      0x01\n        /* \"#utility.yul\":11965:11970   */\n      dup3\n        /* \"#utility.yul\":11961:11974   */\n      add\n        /* \"#utility.yul\":11954:11974   */\n      swap1\n      pop\n        /* \"#utility.yul\":11747:11980   */\n      swap2\n      swap1\n      pop\n      jump\t// out\n        /* \"#utility.yul\":11986:12166   */\n    tag_166:\n        /* \"#utility.yul\":12034:12111   */\n      0x4e487b7100000000000000000000000000000000000000000000000000000000\n        /* \"#utility.yul\":12031:12032   */\n      0x00\n        /* \"#utility.yul\":12024:12112   */\n      mstore\n        /* \"#utility.yul\":12131:12135   */\n      0x22\n        /* \"#utility.yul\":12128:12129   */\n      0x04\n        /* \"#utility.yul\":12121:12136   */\n      mstore\n        /* \"#utility.yul\":12155:12159   */\n      0x24\n        /* \"#utility.yul\":12152:12153   */\n      0x00\n        /* \"#utility.yul\":12145:12160   */\n      revert\n        /* \"#utility.yul\":12172:12492   */\n    tag_104:\n        /* \"#utility.yul\":12216:12222   */\n      0x00\n        /* \"#utility.yul\":12253:12254   */\n      0x02\n        /* \"#utility.yul\":12247:12251   */\n      dup3\n        /* \"#utility.yul\":12243:12255   */\n      div\n        /* \"#utility.yul\":12233:12255   */\n      swap1\n      pop\n        /* \"#utility.yul\":12300:12301   */\n      0x01\n        /* \"#utility.yul\":12294:12298   */\n      dup3\n        /* \"#utility.yul\":12290:12302   */\n      and\n        /* \"#utility.yul\":12321:12339   */\n      dup1\n        /* \"#utility.yul\":12311:12392   */\n      tag_315\n      jumpi\n        /* \"#utility.yul\":12377:12381   */\n      0x7f\n        /* \"#utility.yul\":12369:12375   */\n      dup3\n        /* \"#utility.yul\":12365:12382   */\n      and\n        /* \"#utility.yul\":12355:12382   */\n      swap2\n      pop\n        /* \"#utility.yul\":12311:12392   */\n    tag_315:\n        /* \"#utility.yul\":12439:12441   */\n      0x20\n        /* \"#utility.yul\":12431:12437   */\n      dup3\n        /* \"#utility.yul\":12428:12442   */\n      lt\n        /* \"#utility.yul\":12408:12426   */\n      dup2\n        /* \"#utility.yul\":12405:12443   */\n      sub\n        /* \"#utility.yul\":12402:12486   */\n      tag_316\n      jumpi\n        /* \"#utility.yul\":12458:12476   */\n      tag_317\n      tag_166\n      jump\t// in\n    tag_317:\n        /* \"#utility.yul\":12402:12486   */\n    tag_316:\n        /* \"#utility.yul\":12223:12492   */\n      pop\n        /* \"#utility.yul\":12172:12492   */\n      swap2\n      swap1\n      pop\n      jump\t// out\n        /* \"#utility.yul\":12498:12639   */\n    tag_167:\n        /* \"#utility.yul\":12547:12551   */\n      0x00\n        /* \"#utility.yul\":12570:12573   */\n      dup2\n        /* \"#utility.yul\":12562:12573   */\n      swap1\n      pop\n        /* \"#utility.yul\":12593:12596   */\n      dup2\n        /* \"#utility.yul\":12590:12591   */\n      0x00\n        /* \"#utility.yul\":12583:12597   */\n      mstore\n        /* \"#utility.yul\":12627:12631   */\n      0x20\n        /* \"#utility.yul\":12624:12625   */\n      0x00\n        /* \"#utility.yul\":12614:12632   */\n      keccak256\n        /* \"#utility.yul\":12606:12632   */\n      swap1\n      pop\n        /* \"#utility.yul\":12498:12639   */\n      swap2\n      swap1\n      pop\n      jump\t// out\n        /* \"#utility.yul\":12645:12738   */\n    tag_168:\n        /* \"#utility.yul\":12682:12688   */\n      0x00\n        /* \"#utility.yul\":12729:12731   */\n      0x20\n        /* \"#utility.yul\":12724:12726   */\n      0x1f\n        /* \"#utility.yul\":12717:12722   */\n      dup4\n        /* \"#utility.yul\":12713:12727   */\n      add\n        /* \"#utility.yul\":12709:12732   */\n      div\n        /* \"#utility.yul\":12699:12732   */\n      swap1\n      pop\n        /* \"#utility.yul\":12645:12738   */\n      swap2\n      swap1\n      pop\n      jump\t// out\n        /* \"#utility.yul\":12744:12851   */\n    tag_169:\n        /* \"#utility.yul\":12788:12796   */\n      0x00\n        /* \"#utility.yul\":12838:12843   */\n      dup3\n        /* \"#utility.yul\":12832:12836   */\n      dup3\n        /* \"#utility.yul\":12828:12844   */\n      shl\n        /* \"#utility.yul\":12807:12844   */\n      swap1\n      pop\n        /* \"#utility.yul\":12744:12851   */\n      swap3\n      swap2\n      pop\n      pop\n      jump\t// out\n        /* \"#utility.yul\":12857:13250   */\n    tag_170:\n        /* \"#utility.yul\":12926:12932   */\n      0x00\n        /* \"#utility.yul\":12976:12977   */\n      0x08\n        /* \"#utility.yul\":12964:12974   */\n      dup4\n        /* \"#utility.yul\":12960:12978   */\n      mul\n        /* \"#utility.yul\":12999:13096   */\n      tag_322\n        /* \"#utility.yul\":13029:13095   */\n      0xffffffffffffffffffffffffffffffffffffffffffffffffffffffffffffffff\n        /* \"#utility.yul\":13018:13027   */\n      dup3\n        /* \"#utility.yul\":12999:13096   */\n      tag_169\n      jump\t// in\n    tag_322:\n        /* \"#utility.yul\":13117:13156   */\n      tag_323\n        /* \"#utility.yul\":13147:13155   */\n      dup7\n        /* \"#utility.yul\":13136:13145   */\n      dup4\n        /* \"#utility.yul\":13117:13156   */\n      tag_169\n      jump\t// in\n    tag_323:\n        /* \"#utility.yul\":13105:13156   */\n      swap6\n      pop\n        /* \"#utility.yul\":13189:13193   */\n      dup1\n        /* \"#utility.yul\":13185:13194   */\n      not\n        /* \"#utility.yul\":13178:13183   */\n      dup5\n        /* \"#utility.yul\":13174:13195   */\n      and\n        /* \"#utility.yul\":13165:13195   */\n      swap4\n      pop\n        /* \"#utility.yul\":13238:13242   */\n      dup1\n        /* \"#utility.yul\":13228:13236   */\n      dup7\n        /* \"#utility.yul\":13224:13243   */\n      and\n        /* \"#utility.yul\":13217:13222   */\n      dup5\n        /* \"#utility.yul\":13214:13244   */\n      or\n        /* \"#utility.yul\":13204:13244   */\n      swap3\n      pop\n        /* \"#utility.yul\":12933:13250   */\n      pop\n      pop\n        /* \"#utility.yul\":12857:13250   */\n      swap4\n      swap3\n      pop\n      pop\n      pop\n      jump\t// out\n        /* \"#utility.yul\":13256:13316   */\n    tag_171:\n        /* \"#utility.yul\":13284:13287   */\n      0x00\n        /* \"#utility.yul\":13305:13310   */\n      dup2\n        /* \"#utility.yul\":13298:13310   */\n      swap1\n      pop\n        /* \"#utility.yul\":13256:13316   */\n      swap2\n      swap1\n      pop\n      jump\t// out\n        /* \"#utility.yul\":13322:13464   */\n    tag_172:\n        /* \"#utility.yul\":13372:13381   */\n      0x00\n        /* \"#utility.yul\":13405:13458   */\n      tag_326\n        /* \"#utility.yul\":13423:13457   */\n      tag_327\n        /* \"#utility.yul\":13432:13456   */\n      tag_328\n        /* \"#utility.yul\":13450:13455   */\n      dup5\n        /* \"#utility.yul\":13432:13456   */\n      tag_129\n      jump\t// in\n    tag_328:\n        /* \"#utility.yul\":13423:13457   */\n      tag_171\n      jump\t// in\n    tag_327:\n        /* \"#utility.yul\":13405:13458   */\n      tag_129\n      jump\t// in\n    tag_326:\n        /* \"#utility.yul\":13392:13458   */\n      swap1\n      pop\n        /* \"#utility.yul\":13322:13464   */\n      swap2\n      swap1\n      pop\n      jump\t// out\n        /* \"#utility.yul\":13470:13545   */\n    tag_173:\n        /* \"#utility.yul\":13513:13516   */\n      0x00\n        /* \"#utility.yul\":13534:13539   */\n      dup2\n        /* \"#utility.yul\":13527:13539   */\n      swap1\n      pop\n        /* \"#utility.yul\":13470:13545   */\n      swap2\n      swap1\n      pop\n      jump\t// out\n        /* \"#utility.yul\":13551:13820   */\n    tag_174:\n        /* \"#utility.yul\":13661:13700   */\n      tag_331\n        /* \"#utility.yul\":13692:13699   */\n      dup4\n        /* \"#utility.yul\":13661:13700   */\n      tag_172\n      jump\t// in\n    tag_331:\n        /* \"#utility.yul\":13722:13813   */\n      tag_332\n        /* \"#utility.yul\":13771:13812   */\n      tag_333\n        /* \"#utility.yul\":13795:13811   */\n      dup3\n        /* \"#utility.yul\":13771:13812   */\n      tag_173\n      jump\t// in\n    tag_333:\n        /* \"#utility.yul\":13763:13769   */\n      dup5\n        /* \"#utility.yul\":13756:13760   */\n      dup5\n        /* \"#utility.yul\":13750:13761   */\n      sload\n        /* \"#utility.yul\":13722:13813   */\n      tag_170\n      jump\t// in\n    tag_332:\n        /* \"#utility.yul\":13716:13720   */\n      dup3\n        /* \"#utility.yul\":13709:13814   */\n      sstore\n        /* \"#utility.yul\":13627:13820   */\n      pop\n        /* \"#utility.yul\":13551:13820   */\n      pop\n      pop\n      pop\n      jump\t// out\n        /* \"#utility.yul\":13826:13899   */\n    tag_175:\n        /* \"#utility.yul\":13871:13874   */\n      0x00\n        /* \"#utility.yul\":13892:13893   */\n      0x00\n        /* \"#utility.yul\":13885:13893   */\n      swap1\n      pop\n        /* \"#utility.yul\":13826:13899   */\n      swap1\n      jump\t// out\n        /* \"#utility.yul\":13905:14094   */\n    tag_176:\n        /* \"#utility.yul\":13982:14014   */\n      tag_336\n      tag_175\n      jump\t// in\n    tag_336:\n        /* \"#utility.yul\":14023:14088   */\n      tag_337\n        /* \"#utility.yul\":14081:14087   */\n      dup2\n        /* \"#utility.yul\":14073:14079   */\n      dup5\n        /* \"#utility.yul\":14067:14071   */\n      dup5\n        /* \"#utility.yul\":14023:14088   */\n      tag_174\n      jump\t// in\n    tag_337:\n        /* \"#utility.yul\":13958:14094   */\n      pop\n        /* \"#utility.yul\":13905:14094   */\n      pop\n      pop\n      jump\t// out\n        /* \"#utility.yul\":14100:14286   */\n    tag_177:\n        /* \"#utility.yul\":14160:14280   */\n    tag_339:\n        /* \"#utility.yul\":14177:14180   */\n      dup2\n        /* \"#utility.yul\":14170:14175   */\n      dup2\n        /* \"#utility.yul\":14167:14181   */\n      lt\n        /* \"#utility.yul\":14160:14280   */\n      iszero\n      tag_341\n      jumpi\n        /* \"#utility.yul\":14231:14270   */\n      tag_342\n        /* \"#utility.yul\":14268:14269   */\n      0x00\n        /* \"#utility.yul\":14261:14266   */\n      dup3\n        /* \"#utility.yul\":14231:14270   */\n      tag_176\n      jump\t// in\n    tag_342:\n        /* \"#utility.yul\":14204:14205   */\n      0x01\n        /* \"#utility.yul\":14197:14202   */\n      dup2\n        /* \"#utility.yul\":14193:14206   */\n      add\n        /* \"#utility.yul\":14184:14206   */\n      swap1\n      pop\n        /* \"#utility.yul\":14160:14280   */\n      jump(tag_339)\n    tag_341:\n        /* \"#utility.yul\":14100:14286   */\n      pop\n      pop\n      jump\t// out\n        /* \"#utility.yul\":14292:14835   */\n    tag_178:\n        /* \"#utility.yul\":14393:14395   */\n      0x1f\n        /* \"#utility.yul\":14388:14391   */\n      dup3\n        /* \"#utility.yul\":14385:14396   */\n      gt\n        /* \"#utility.yul\":14382:14828   */\n      iszero\n      tag_344\n      jumpi\n        /* \"#utility.yul\":14427:14465   */\n      tag_345\n        /* \"#utility.yul\":14459:14464   */\n      dup2\n        /* \"#utility.yul\":14427:14465   */\n      tag_167\n      jump\t// in\n    tag_345:\n        /* \"#utility.yul\":14511:14540   */\n      tag_346\n        /* \"#utility.yul\":14529:14539   */\n      dup5\n        /* \"#utility.yul\":14511:14540   */\n      tag_168\n      jump\t// in\n    tag_346:\n        /* \"#utility.yul\":14501:14509   */\n      dup2\n        /* \"#utility.yul\":14497:14541   */\n      add\n        /* \"#utility.yul\":14694:14696   */\n      0x20\n        /* \"#utility.yul\":14682:14692   */\n      dup6\n        /* \"#utility.yul\":14679:14697   */\n      lt\n        /* \"#utility.yul\":14676:14725   */\n      iszero\n      tag_347\n      jumpi\n        /* \"#utility.yul\":14715:14723   */\n      dup2\n        /* \"#utility.yul\":14700:14723   */\n      swap1\n      pop\n        /* \"#utility.yul\":14676:14725   */\n    tag_347:\n        /* \"#utility.yul\":14738:14818   */\n      tag_348\n        /* \"#utility.yul\":14794:14816   */\n      tag_349\n        /* \"#utility.yul\":14812:14815   */\n      dup6\n        /* \"#utility.yul\":14794:14816   */\n      tag_168\n      jump\t// in\n    tag_349:\n        /* \"#utility.yul\":14784:14792   */\n      dup4\n        /* \"#utility.yul\":14780:14817   */\n      add\n        /* \"#utility.yul\":14767:14778   */\n      dup3\n        /* \"#utility.yul\":14738:14818   */\n      tag_177\n      jump\t// in\n    tag_348:\n        /* \"#utility.yul\":14397:14828   */\n      pop\n      pop\n        /* \"#utility.yul\":14382:14828   */\n    tag_344:\n        /* \"#utility.yul\":14292:14835   */\n      pop\n      pop\n      pop\n      jump\t// out\n        /* \"#utility.yul\":14841:14958   */\n    tag_179:\n        /* \"#utility.yul\":14895:14903   */\n      0x00\n        /* \"#utility.yul\":14945:14950   */\n      dup3\n        /* \"#utility.yul\":14939:14943   */\n      dup3\n        /* \"#utility.yul\":14935:14951   */\n      shr\n        /* \"#utility.yul\":14914:14951   */\n      swap1\n      pop\n        /* \"#utility.yul\":14841:14958   */\n      swap3\n      swap2\n      pop\n      pop\n      jump\t// out\n        /* \"#utility.yul\":14964:15133   */\n    tag_180:\n        /* \"#utility.yul\":15008:15014   */\n      0x00\n        /* \"#utility.yul\":15041:15092   */\n      tag_352\n        /* \"#utility.yul\":15089:15090   */\n      0x00\n        /* \"#utility.yul\":15085:15091   */\n      not\n        /* \"#utility.yul\":15077:15082   */\n      dup5\n        /* \"#utility.yul\":15074:15075   */\n      0x08\n        /* \"#utility.yul\":15070:15083   */\n      mul\n        /* \"#utility.yul\":15041:15092   */\n      tag_179\n      jump\t// in\n    tag_352:\n        /* \"#utility.yul\":15037:15093   */\n      not\n        /* \"#utility.yul\":15122:15126   */\n      dup1\n        /* \"#utility.yul\":15116:15120   */\n      dup4\n        /* \"#utility.yul\":15112:15127   */\n      and\n        /* \"#utility.yul\":15102:15127   */\n      swap2\n      pop\n        /* \"#utility.yul\":15015:15133   */\n      pop\n        /* \"#utility.yul\":14964:15133   */\n      swap3\n      swap2\n      pop\n      pop\n      jump\t// out\n        /* \"#utility.yul\":15138:15433   */\n    tag_181:\n        /* \"#utility.yul\":15214:15218   */\n      0x00\n        /* \"#utility.yul\":15360:15389   */\n      tag_354\n        /* \"#utility.yul\":15385:15388   */\n      dup4\n        /* \"#utility.yul\":15379:15383   */\n      dup4\n        /* \"#utility.yul\":15360:15389   */\n      tag_180\n      jump\t// in\n    tag_354:\n        /* \"#utility.yul\":15352:15389   */\n      swap2\n      pop\n        /* \"#utility.yul\":15422:15425   */\n      dup3\n        /* \"#utility.yul\":15419:15420   */\n      0x02\n        /* \"#utility.yul\":15415:15426   */\n      mul\n        /* \"#utility.yul\":15409:15413   */\n      dup3\n        /* \"#utility.yul\":15406:15427   */\n      or\n        /* \"#utility.yul\":15398:15427   */\n      swap1\n      pop\n        /* \"#utility.yul\":15138:15433   */\n      swap3\n      swap2\n      pop\n      pop\n      jump\t// out\n        /* \"#utility.yul\":15438:16833   */\n    tag_81:\n        /* \"#utility.yul\":15555:15592   */\n      tag_356\n        /* \"#utility.yul\":15588:15591   */\n      dup3\n        /* \"#utility.yul\":15555:15592   */\n      tag_157\n      jump\t// in\n    tag_356:\n        /* \"#utility.yul\":15657:15675   */\n      0xffffffffffffffff\n        /* \"#utility.yul\":15649:15655   */\n      dup2\n        /* \"#utility.yul\":15646:15676   */\n      gt\n        /* \"#utility.yul\":15643:15699   */\n      iszero\n      tag_357\n      jumpi\n        /* \"#utility.yul\":15679:15697   */\n      tag_358\n      tag_144\n      jump\t// in\n    tag_358:\n        /* \"#utility.yul\":15643:15699   */\n    tag_357:\n        /* \"#utility.yul\":15723:15761   */\n      tag_359\n        /* \"#utility.yul\":15755:15759   */\n      dup3\n        /* \"#utility.yul\":15749:15760   */\n      sload\n        /* \"#utility.yul\":15723:15761   */\n      tag_104\n      jump\t// in\n    tag_359:\n        /* \"#utility.yul\":15808:15875   */\n      tag_360\n        /* \"#utility.yul\":15868:15874   */\n      dup3\n        /* \"#utility.yul\":15860:15866   */\n      dup3\n        /* \"#utility.yul\":15854:15858   */\n      dup6\n        /* \"#utility.yul\":15808:15875   */\n      tag_178\n      jump\t// in\n    tag_360:\n        /* \"#utility.yul\":15902:15903   */\n      0x00\n        /* \"#utility.yul\":15926:15930   */\n      0x20\n        /* \"#utility.yul\":15913:15930   */\n      swap1\n      pop\n        /* \"#utility.yul\":15958:15960   */\n      0x1f\n        /* \"#utility.yul\":15950:15956   */\n      dup4\n        /* \"#utility.yul\":15947:15961   */\n      gt\n        /* \"#utility.yul\":15975:15976   */\n      0x01\n        /* \"#utility.yul\":15970:16588   */\n      dup2\n      eq\n      tag_362\n      jumpi\n        /* \"#utility.yul\":16632:16633   */\n      0x00\n        /* \"#utility.yul\":16649:16655   */\n      dup5\n        /* \"#utility.yul\":16646:16723   */\n      iszero\n      tag_363\n      jumpi\n        /* \"#utility.yul\":16698:16707   */\n      dup3\n        /* \"#utility.yul\":16693:16696   */\n      dup8\n        /* \"#utility.yul\":16689:16708   */\n      add\n        /* \"#utility.yul\":16683:16709   */\n      mload\n        /* \"#utility.yul\":16674:16709   */\n      swap1\n      pop\n        /* \"#utility.yul\":16646:16723   */\n    tag_363:\n        /* \"#utility.yul\":16749:16816   */\n      tag_364\n        /* \"#utility.yul\":16809:16815   */\n      dup6\n        /* \"#utility.yul\":16802:16807   */\n      dup3\n        /* \"#utility.yul\":16749:16816   */\n      tag_181\n      jump\t// in\n    tag_364:\n        /* \"#utility.yul\":16743:16747   */\n      dup7\n        /* \"#utility.yul\":16736:16817   */\n      sstore\n        /* \"#utility.yul\":16605:16827   */\n      pop\n        /* \"#utility.yul\":15940:16827   */\n      jump(tag_361)\n        /* \"#utility.yul\":15970:16588   */\n    tag_362:\n        /* \"#utility.yul\":16022:16026   */\n      0x1f\n        /* \"#utility.yul\":16018:16027   */\n      not\n        /* \"#utility.yul\":16010:16016   */\n      dup5\n        /* \"#utility.yul\":16006:16028   */\n      and\n        /* \"#utility.yul\":16056:16093   */\n      tag_365\n        /* \"#utility.yul\":16088:16092   */\n      dup7\n        /* \"#utility.yul\":16056:16093   */\n      tag_167\n      jump\t// in\n    tag_365:\n        /* \"#utility.yul\":16115:16116   */\n      0x00\n        /* \"#utility.yul\":16129:16337   */\n    tag_366:\n        /* \"#utility.yul\":16143:16150   */\n      dup3\n        /* \"#utility.yul\":16140:16141   */\n      dup2\n        /* \"#utility.yul\":16137:16151   */\n      lt\n        /* \"#utility.yul\":16129:16337   */\n      iszero\n      tag_368\n      jumpi\n        /* \"#utility.yul\":16222:16231   */\n      dup5\n        /* \"#utility.yul\":16217:16220   */\n      dup10\n        /* \"#utility.yul\":16213:16232   */\n      add\n        /* \"#utility.yul\":16207:16233   */\n      mload\n        /* \"#utility.yul\":16199:16205   */\n      dup3\n        /* \"#utility.yul\":16192:16234   */\n      sstore\n        /* \"#utility.yul\":16273:16274   */\n      0x01\n        /* \"#utility.yul\":16265:16271   */\n      dup3\n        /* \"#utility.yul\":16261:16275   */\n      add\n        /* \"#utility.yul\":16251:16275   */\n      swap2\n      pop\n        /* \"#utility.yul\":16320:16322   */\n      0x20\n        /* \"#utility.yul\":16309:16318   */\n      dup6\n        /* \"#utility.yul\":16305:16323   */\n      add\n        /* \"#utility.yul\":16292:16323   */\n      swap5\n      pop\n        /* \"#utility.yul\":16166:16170   */\n      0x20\n        /* \"#utility.yul\":16163:16164   */\n      dup2\n        /* \"#utility.yul\":16159:16171   */\n      add\n        /* \"#utility.yul\":16154:16171   */\n      swap1\n      pop\n        /* \"#utility.yul\":16129:16337   */\n      jump(tag_366)\n    tag_368:\n        /* \"#utility.yul\":16365:16371   */\n      dup7\n        /* \"#utility.yul\":16356:16363   */\n      dup4\n        /* \"#utility.yul\":16353:16372   */\n      lt\n        /* \"#utility.yul\":16350:16529   */\n      iszero\n      tag_369\n      jumpi\n        /* \"#utility.yul\":16423:16432   */\n      dup5\n        /* \"#utility.yul\":16418:16421   */\n      dup10\n        /* \"#utility.yul\":16414:16433   */\n      add\n        /* \"#utility.yul\":16408:16434   */\n      mload\n        /* \"#utility.yul\":16466:16514   */\n      tag_370\n        /* \"#utility.yul\":16508:16512   */\n      0x1f\n        /* \"#utility.yul\":16500:16506   */\n      dup10\n        /* \"#utility.yul\":16496:16513   */\n      and\n        /* \"#utility.yul\":16485:16494   */\n      dup3\n        /* \"#utility.yul\":16466:16514   */\n      tag_180\n      jump\t// in\n    tag_370:\n        /* \"#utility.yul\":16458:16464   */\n      dup4\n        /* \"#utility.yul\":16451:16515   */\n      sstore\n        /* \"#utility.yul\":16373:16529   */\n      pop\n        /* \"#utility.yul\":16350:16529   */\n    tag_369:\n        /* \"#utility.yul\":16575:16576   */\n      0x01\n        /* \"#utility.yul\":16571:16572   */\n      0x02\n        /* \"#utility.yul\":16563:16569   */\n      dup9\n        /* \"#utility.yul\":16559:16573   */\n      mul\n        /* \"#utility.yul\":16555:16577   */\n      add\n        /* \"#utility.yul\":16549:16553   */\n      dup9\n        /* \"#utility.yul\":16542:16578   */\n      sstore\n        /* \"#utility.yul\":15977:16588   */\n      pop\n      pop\n      pop\n        /* \"#utility.yul\":15940:16827   */\n    tag_361:\n      pop\n        /* \"#utility.yul\":15530:16833   */\n      pop\n      pop\n      pop\n        /* \"#utility.yul\":15438:16833   */\n      pop\n      pop\n      jump\t// out\n        /* \"#utility.yul\":16839:17005   */\n    tag_182:\n        /* \"#utility.yul\":16979:16997   */\n      0x696e636f72726563742067616d65496400000000000000000000000000000000\n        /* \"#utility.yul\":16975:16976   */\n      0x00\n        /* \"#utility.yul\":16967:16973   */\n      dup3\n        /* \"#utility.yul\":16963:16977   */\n      add\n        /* \"#utility.yul\":16956:16998   */\n      mstore\n        /* \"#utility.yul\":16839:17005   */\n      pop\n      jump\t// out\n        /* \"#utility.yul\":17011:17377   */\n    tag_183:\n        /* \"#utility.yul\":17153:17156   */\n      0x00\n        /* \"#utility.yul\":17174:17241   */\n      tag_373\n        /* \"#utility.yul\":17238:17240   */\n      0x10\n        /* \"#utility.yul\":17233:17236   */\n      dup4\n        /* \"#utility.yul\":17174:17241   */\n      tag_158\n      jump\t// in\n    tag_373:\n        /* \"#utility.yul\":17167:17241   */\n      swap2\n      pop\n        /* \"#utility.yul\":17250:17343   */\n      tag_374\n        /* \"#utility.yul\":17339:17342   */\n      dup3\n        /* \"#utility.yul\":17250:17343   */\n      tag_182\n      jump\t// in\n    tag_374:\n        /* \"#utility.yul\":17368:17370   */\n      0x20\n        /* \"#utility.yul\":17363:17366   */\n      dup3\n        /* \"#utility.yul\":17359:17371   */\n      add\n        /* \"#utility.yul\":17352:17371   */\n      swap1\n      pop\n        /* \"#utility.yul\":17011:17377   */\n      swap2\n      swap1\n      pop\n      jump\t// out\n        /* \"#utility.yul\":17383:17802   */\n    tag_92:\n        /* \"#utility.yul\":17549:17553   */\n      0x00\n        /* \"#utility.yul\":17587:17589   */\n      0x20\n        /* \"#utility.yul\":17576:17585   */\n      dup3\n        /* \"#utility.yul\":17572:17590   */\n      add\n        /* \"#utility.yul\":17564:17590   */\n      swap1\n      pop\n        /* \"#utility.yul\":17636:17645   */\n      dup2\n        /* \"#utility.yul\":17630:17634   */\n      dup2\n        /* \"#utility.yul\":17626:17646   */\n      sub\n        /* \"#utility.yul\":17622:17623   */\n      0x00\n        /* \"#utility.yul\":17611:17620   */\n      dup4\n        /* \"#utility.yul\":17607:17624   */\n      add\n        /* \"#utility.yul\":17600:17647   */\n      mstore\n        /* \"#utility.yul\":17664:17795   */\n      tag_376\n        /* \"#utility.yul\":17790:17794   */\n      dup2\n        /* \"#utility.yul\":17664:17795   */\n      tag_183\n      jump\t// in\n    tag_376:\n        /* \"#utility.yul\":17656:17795   */\n      swap1\n      pop\n        /* \"#utility.yul\":17383:17802   */\n      swap2\n      swap1\n      pop\n      jump\t// out\n        /* \"#utility.yul\":17808:17970   */\n    tag_184:\n        /* \"#utility.yul\":17948:17962   */\n      0x616c726561647920766f74650000000000000000000000000000000000000000\n        /* \"#utility.yul\":17944:17945   */\n      0x00\n        /* \"#utility.yul\":17936:17942   */\n      dup3\n        /* \"#utility.yul\":17932:17946   */\n      add\n        /* \"#utility.yul\":17925:17963   */\n      mstore\n        /* \"#utility.yul\":17808:17970   */\n      pop\n      jump\t// out\n        /* \"#utility.yul\":17976:18342   */\n    tag_185:\n        /* \"#utility.yul\":18118:18121   */\n      0x00\n        /* \"#utility.yul\":18139:18206   */\n      tag_379\n        /* \"#utility.yul\":18203:18205   */\n      0x0c\n        /* \"#utility.yul\":18198:18201   */\n      dup4\n        /* \"#utility.yul\":18139:18206   */\n      tag_158\n      jump\t// in\n    tag_379:\n        /* \"#utility.yul\":18132:18206   */\n      swap2\n      pop\n        /* \"#utility.yul\":18215:18308   */\n      tag_380\n        /* \"#utility.yul\":18304:18307   */\n      dup3\n        /* \"#utility.yul\":18215:18308   */\n      tag_184\n      jump\t// in\n    tag_380:\n        /* \"#utility.yul\":18333:18335   */\n      0x20\n        /* \"#utility.yul\":18328:18331   */\n      dup3\n        /* \"#utility.yul\":18324:18336   */\n      add\n        /* \"#utility.yul\":18317:18336   */\n      swap1\n      pop\n        /* \"#utility.yul\":17976:18342   */\n      swap2\n      swap1\n      pop\n      jump\t// out\n        /* \"#utility.yul\":18348:18767   */\n    tag_95:\n        /* \"#utility.yul\":18514:18518   */\n      0x00\n        /* \"#utility.yul\":18552:18554   */\n      0x20\n        /* \"#utility.yul\":18541:18550   */\n      dup3\n        /* \"#utility.yul\":18537:18555   */\n      add\n        /* \"#utility.yul\":18529:18555   */\n      swap1\n      pop\n        /* \"#utility.yul\":18601:18610   */\n      dup2\n        /* \"#utility.yul\":18595:18599   */\n      dup2\n        /* \"#utility.yul\":18591:18611   */\n      sub\n        /* \"#utility.yul\":18587:18588   */\n      0x00\n        /* \"#utility.yul\":18576:18585   */\n      dup4\n        /* \"#utility.yul\":18572:18589   */\n      add\n        /* \"#utility.yul\":18565:18612   */\n      mstore\n        /* \"#utility.yul\":18629:18760   */\n      tag_382\n        /* \"#utility.yul\":18755:18759   */\n      dup2\n        /* \"#utility.yul\":18629:18760   */\n      tag_185\n      jump\t// in\n    tag_382:\n        /* \"#utility.yul\":18621:18760   */\n      swap1\n      pop\n        /* \"#utility.yul\":18348:18767   */\n      swap2\n      swap1\n      pop\n      jump\t// out\n        /* \"#utility.yul\":18773:18953   */\n    tag_98:\n        /* \"#utility.yul\":18821:18898   */\n      0x4e487b7100000000000000000000000000000000000000000000000000000000\n        /* \"#utility.yul\":18818:18819   */\n      0x00\n        /* \"#utility.yul\":18811:18899   */\n      mstore\n        /* \"#utility.yul\":18918:18922   */\n      0x21\n        /* \"#utility.yul\":18915:18916   */\n      0x04\n        /* \"#utility.yul\":18908:18923   */\n      mstore\n        /* \"#utility.yul\":18942:18946   */\n      0x24\n        /* \"#utility.yul\":18939:18940   */\n      0x00\n        /* \"#utility.yul\":18932:18947   */\n      revert\n\n    auxdata: 0xa26469706673582212209f6465166388d5d2dd1bdd47aeb8b6428593fced95df9553ac84a7d4f2c2547064736f6c634300081e0033\n}\n",
				"bytecode": {
					"linkReferences": {},
					"object": "60a06040525f600155348015610013575f5ffd5b506040516118a43803806118a483398181016040528101906100359190610211565b335f73ffffffffffffffffffffffffffffffffffffffff168173ffffffffffffffffffffffffffffffffffffffff16036100a6575f6040517f1e4fbdf700000000000000000000000000000000000000000000000000000000815260040161009d919061027b565b60405180910390fd5b6100b58161011960201b60201c565b508060808181525050600160045f3373ffffffffffffffffffffffffffffffffffffffff1673ffffffffffffffffffffffffffffffffffffffff1681526020019081526020015f205f6101000a81548160ff02191690831515021790555050610294565b5f5f5f9054906101000a900473ffffffffffffffffffffffffffffffffffffffff169050815f5f6101000a81548173ffffffffffffffffffffffffffffffffffffffff021916908373ffffffffffffffffffffffffffffffffffffffff1602179055508173ffffffffffffffffffffffffffffffffffffffff168173ffffffffffffffffffffffffffffffffffffffff167f8be0079c531659141344cd1fd0a4f28419497f9722a3daafe3b4186f6b6457e060405160405180910390a35050565b5f5ffd5b5f819050919050565b6101f0816101de565b81146101fa575f5ffd5b50565b5f8151905061020b816101e7565b92915050565b5f60208284031215610226576102256101da565b5b5f610233848285016101fd565b91505092915050565b5f73ffffffffffffffffffffffffffffffffffffffff82169050919050565b5f6102658261023c565b9050919050565b6102758161025b565b82525050565b5f60208201905061028e5f83018461026c565b92915050565b6080516115ea6102ba5f395f81816102a2015281816104d801526107bc01526115ea5ff3fe608060405260043610610090575f3560e01c8063943e821611610058578063943e82161461016a578063bf8fbbd214610186578063dbf65de0146101b0578063f24f9459146101d8578063f2fde38b1461021a57610090565b8063301ed59e14610094578063372c12b1146100be578063715018a6146100fa5780638da5cb5b14610110578063937cabed1461013a575b5f5ffd5b34801561009f575f5ffd5b506100a8610242565b6040516100b59190610be0565b60405180910390f35b3480156100c9575f5ffd5b506100e460048036038101906100df9190610c64565b610248565b6040516100f19190610ca9565b60405180910390f35b348015610105575f5ffd5b5061010e610265565b005b34801561011b575f5ffd5b50610124610278565b6040516101319190610cd1565b60405180910390f35b610154600480360381019061014f9190610e50565b61029f565b6040516101619190610be0565b60405180910390f35b610184600480360381019061017f9190610efb565b6104d6565b005b348015610191575f5ffd5b5061019a6107ba565b6040516101a79190610be0565b60405180910390f35b3480156101bb575f5ffd5b506101d660048036038101906101d19190610f63565b6107de565b005b3480156101e3575f5ffd5b506101fe60048036038101906101f99190610fa1565b61088c565b604051610211979695949392919061102c565b60405180910390f35b348015610225575f5ffd5b50610240600480360381019061023b9190610c64565b6109f5565b005b60015481565b6004602052805f5260405f205f915054906101000a900460ff1681565b61026d610a79565b6102765f610b00565b565b5f5f5f9054906101000a900473ffffffffffffffffffffffffffffffffffffffff16905090565b5f7f00000000000000000000000000000000000000000000000000000000000000003410610302576040517f08c379a00000000000000000000000000000000000000000000000000000000081526004016102f9906110f1565b60405180910390fd5b60045f3373ffffffffffffffffffffffffffffffffffffffff1673ffffffffffffffffffffffffffffffffffffffff1681526020019081526020015f205f9054906101000a900460ff1661038b576040517f08c379a000000000000000000000000000000000000000000000000000000000815260040161038290611159565b60405180910390fd5b60015f81548092919061039d906111a4565b91905055506040518060e0016040528060015481526020018581526020018481526020015f81526020015f81526020018381526020013373ffffffffffffffffffffffffffffffffffffffff1681525060025f60015481526020019081526020015f205f820151815f0155602082015181600101908161041d91906113e8565b50604082015181600201908161043391906113e8565b50606082015181600301556080820151816004015560a0820151816005015560c0820151816006015f6101000a81548173ffffffffffffffffffffffffffffffffffffffff021916908373ffffffffffffffffffffffffffffffffffffffff1602179055509050506001547fa0b7f6f22bb4f69adc52dd16ffe2a964ab8b577be274247fa9a1547b03ce3e5560405160405180910390a260015490509392505050565b7f00000000000000000000000000000000000000000000000000000000000000003410610538576040517f08c379a000000000000000000000000000000000000000000000000000000000815260040161052f906110f1565b60405180910390fd5b60045f3373ffffffffffffffffffffffffffffffffffffffff1673ffffffffffffffffffffffffffffffffffffffff1681526020019081526020015f205f9054906101000a900460ff166105c1576040517f08c379a00000000000000000000000000000000000000000000000000000000081526004016105b890611159565b60405180910390fd5b5f73ffffffffffffffffffffffffffffffffffffffff1660025f8481526020019081526020015f206006015f9054906101000a900473ffffffffffffffffffffffffffffffffffffffff1673ffffffffffffffffffffffffffffffffffffffff1603610662576040517f08c379a000000000000000000000000000000000000000000000000000000000815260040161065990611501565b60405180910390fd5b60035f8381526020019081526020015f205f3373ffffffffffffffffffffffffffffffffffffffff1673ffffffffffffffffffffffffffffffffffffffff1681526020019081526020015f205f9054906101000a900460ff16156106fb576040517f08c379a00000000000000000000000000000000000000000000000000000000081526004016106f290611569565b60405180910390fd5b600160035f8481526020019081526020015f205f3373ffffffffffffffffffffffffffffffffffffffff1673ffffffffffffffffffffffffffffffffffffffff1681526020019081526020015f205f6101000a81548160ff02191690831515021790555080600181111561077257610771611587565b5b3373ffffffffffffffffffffffffffffffffffffffff16837f07e0ee871a145b34a4f0117ec30da34c5bd4487a09f78fd3b31a366a55fd2d2960405160405180910390a45050565b7f000000000000000000000000000000000000000000000000000000000000000081565b6107e6610a79565b8060045f8473ffffffffffffffffffffffffffffffffffffffff1673ffffffffffffffffffffffffffffffffffffffff1681526020019081526020015f205f6101000a81548160ff0219169083151502179055508173ffffffffffffffffffffffffffffffffffffffff167f111b0cdde6a17355dbeb5ce9b87078297fec9b61b51550540b0d4e2f1e4913c2826040516108809190610ca9565b60405180910390a25050565b6002602052805f5260405f205f91509050805f0154908060010180546108b190611218565b80601f01602080910402602001604051908101604052809291908181526020018280546108dd90611218565b80156109285780601f106108ff57610100808354040283529160200191610928565b820191905f5260205f20905b81548152906001019060200180831161090b57829003601f168201915b50505050509080600201805461093d90611218565b80601f016020809104026020016040519081016040528092919081815260200182805461096990611218565b80156109b45780601f1061098b576101008083540402835291602001916109b4565b820191905f5260205f20905b81548152906001019060200180831161099757829003601f168201915b505050505090806003015490806004015490806005015490806006015f9054906101000a900473ffffffffffffffffffffffffffffffffffffffff16905087565b6109fd610a79565b5f73ffffffffffffffffffffffffffffffffffffffff168173ffffffffffffffffffffffffffffffffffffffff1603610a6d575f6040517f1e4fbdf7000000000000000000000000000000000000000000000000000000008152600401610a649190610cd1565b60405180910390fd5b610a7681610b00565b50565b610a81610bc1565b73ffffffffffffffffffffffffffffffffffffffff16610a9f610278565b73ffffffffffffffffffffffffffffffffffffffff1614610afe57610ac2610bc1565b6040517f118cdaa7000000000000000000000000000000000000000000000000000000008152600401610af59190610cd1565b60405180910390fd5b565b5f5f5f9054906101000a900473ffffffffffffffffffffffffffffffffffffffff169050815f5f6101000a81548173ffffffffffffffffffffffffffffffffffffffff021916908373ffffffffffffffffffffffffffffffffffffffff1602179055508173ffffffffffffffffffffffffffffffffffffffff168173ffffffffffffffffffffffffffffffffffffffff167f8be0079c531659141344cd1fd0a4f28419497f9722a3daafe3b4186f6b6457e060405160405180910390a35050565b5f33905090565b5f819050919050565b610bda81610bc8565b82525050565b5f602082019050610bf35f830184610bd1565b92915050565b5f604051905090565b5f5ffd5b5f5ffd5b5f73ffffffffffffffffffffffffffffffffffffffff82169050919050565b5f610c3382610c0a565b9050919050565b610c4381610c29565b8114610c4d575f5ffd5b50565b5f81359050610c5e81610c3a565b92915050565b5f60208284031215610c7957610c78610c02565b5b5f610c8684828501610c50565b91505092915050565b5f8115159050919050565b610ca381610c8f565b82525050565b5f602082019050610cbc5f830184610c9a565b92915050565b610ccb81610c29565b82525050565b5f602082019050610ce45f830184610cc2565b92915050565b5f5ffd5b5f5ffd5b5f601f19601f8301169050919050565b7f4e487b71000000000000000000000000000000000000000000000000000000005f52604160045260245ffd5b610d3882610cf2565b810181811067ffffffffffffffff82111715610d5757610d56610d02565b5b80604052505050565b5f610d69610bf9565b9050610d758282610d2f565b919050565b5f67ffffffffffffffff821115610d9457610d93610d02565b5b610d9d82610cf2565b9050602081019050919050565b828183375f83830152505050565b5f610dca610dc584610d7a565b610d60565b905082815260208101848484011115610de657610de5610cee565b5b610df1848285610daa565b509392505050565b5f82601f830112610e0d57610e0c610cea565b5b8135610e1d848260208601610db8565b91505092915050565b610e2f81610bc8565b8114610e39575f5ffd5b50565b5f81359050610e4a81610e26565b92915050565b5f5f5f60608486031215610e6757610e66610c02565b5b5f84013567ffffffffffffffff811115610e8457610e83610c06565b5b610e9086828701610df9565b935050602084013567ffffffffffffffff811115610eb157610eb0610c06565b5b610ebd86828701610df9565b9250506040610ece86828701610e3c565b9150509250925092565b60028110610ee4575f5ffd5b50565b5f81359050610ef581610ed8565b92915050565b5f5f60408385031215610f1157610f10610c02565b5b5f610f1e85828601610e3c565b9250506020610f2f85828601610ee7565b9150509250929050565b610f4281610c8f565b8114610f4c575f5ffd5b50565b5f81359050610f5d81610f39565b92915050565b5f5f60408385031215610f7957610f78610c02565b5b5f610f8685828601610c50565b9250506020610f9785828601610f4f565b9150509250929050565b5f60208284031215610fb657610fb5610c02565b5b5f610fc384828501610e3c565b91505092915050565b5f81519050919050565b5f82825260208201905092915050565b8281835e5f83830152505050565b5f610ffe82610fcc565b6110088185610fd6565b9350611018818560208601610fe6565b61102181610cf2565b840191505092915050565b5f60e08201905061103f5f83018a610bd1565b81810360208301526110518189610ff4565b905081810360408301526110658188610ff4565b90506110746060830187610bd1565b6110816080830186610bd1565b61108e60a0830185610bd1565b61109b60c0830184610cc2565b98975050505050505050565b7f4e6f7420456e6f756768204574686572000000000000000000000000000000005f82015250565b5f6110db601083610fd6565b91506110e6826110a7565b602082019050919050565b5f6020820190508181035f830152611108816110cf565b9050919050565b7f4f6e6c7957686974656c697374000000000000000000000000000000000000005f82015250565b5f611143600d83610fd6565b915061114e8261110f565b602082019050919050565b5f6020820190508181035f83015261117081611137565b9050919050565b7f4e487b71000000000000000000000000000000000000000000000000000000005f52601160045260245ffd5b5f6111ae82610bc8565b91507fffffffffffffffffffffffffffffffffffffffffffffffffffffffffffffffff82036111e0576111df611177565b5b600182019050919050565b7f4e487b71000000000000000000000000000000000000000000000000000000005f52602260045260245ffd5b5f600282049050600182168061122f57607f821691505b602082108103611242576112416111eb565b5b50919050565b5f819050815f5260205f209050919050565b5f6020601f8301049050919050565b5f82821b905092915050565b5f600883026112a47fffffffffffffffffffffffffffffffffffffffffffffffffffffffffffffffff82611269565b6112ae8683611269565b95508019841693508086168417925050509392505050565b5f819050919050565b5f6112e96112e46112df84610bc8565b6112c6565b610bc8565b9050919050565b5f819050919050565b611302836112cf565b61131661130e826112f0565b848454611275565b825550505050565b5f5f905090565b61132d61131e565b6113388184846112f9565b505050565b5b8181101561135b576113505f82611325565b60018101905061133e565b5050565b601f8211156113a05761137181611248565b61137a8461125a565b81016020851015611389578190505b61139d6113958561125a565b83018261133d565b50505b505050565b5f82821c905092915050565b5f6113c05f19846008026113a5565b1980831691505092915050565b5f6113d883836113b1565b9150826002028217905092915050565b6113f182610fcc565b67ffffffffffffffff81111561140a57611409610d02565b5b6114148254611218565b61141f82828561135f565b5f60209050601f831160018114611450575f841561143e578287015190505b61144885826113cd565b8655506114af565b601f19841661145e86611248565b5f5b8281101561148557848901518255600182019150602085019450602081019050611460565b868310156114a2578489015161149e601f8916826113b1565b8355505b6001600288020188555050505b505050505050565b7f696e636f72726563742067616d654964000000000000000000000000000000005f82015250565b5f6114eb601083610fd6565b91506114f6826114b7565b602082019050919050565b5f6020820190508181035f830152611518816114df565b9050919050565b7f616c726561647920766f746500000000000000000000000000000000000000005f82015250565b5f611553600c83610fd6565b915061155e8261151f565b602082019050919050565b5f6020820190508181035f83015261158081611547565b9050919050565b7f4e487b71000000000000000000000000000000000000000000000000000000005f52602160045260245ffdfea26469706673582212209f6465166388d5d2dd1bdd47aeb8b6428593fced95df9553ac84a7d4f2c2547064736f6c634300081e0033",
					"opcodes": "PUSH1 0xA0 PUSH1 0x40 MSTORE PUSH0 PUSH1 0x1 SSTORE CALLVALUE DUP1 ISZERO PUSH2 0x13 JUMPI PUSH0 PUSH0 REVERT JUMPDEST POP PUSH1 0x40 MLOAD PUSH2 0x18A4 CODESIZE SUB DUP1 PUSH2 0x18A4 DUP4 CODECOPY DUP2 DUP2 ADD PUSH1 0x40 MSTORE DUP2 ADD SWAP1 PUSH2 0x35 SWAP2 SWAP1 PUSH2 0x211 JUMP JUMPDEST CALLER PUSH0 PUSH20 0xFFFFFFFFFFFFFFFFFFFFFFFFFFFFFFFFFFFFFFFF AND DUP2 PUSH20 0xFFFFFFFFFFFFFFFFFFFFFFFFFFFFFFFFFFFFFFFF AND SUB PUSH2 0xA6 JUMPI PUSH0 PUSH1 0x40 MLOAD PUSH32 0x1E4FBDF700000000000000000000000000000000000000000000000000000000 DUP2 MSTORE PUSH1 0x4 ADD PUSH2 0x9D SWAP2 SWAP1 PUSH2 0x27B JUMP JUMPDEST PUSH1 0x40 MLOAD DUP1 SWAP2 SUB SWAP1 REVERT JUMPDEST PUSH2 0xB5 DUP2 PUSH2 0x119 PUSH1 0x20 SHL PUSH1 0x20 SHR JUMP JUMPDEST POP DUP1 PUSH1 0x80 DUP2 DUP2 MSTORE POP POP PUSH1 0x1 PUSH1 0x4 PUSH0 CALLER PUSH20 0xFFFFFFFFFFFFFFFFFFFFFFFFFFFFFFFFFFFFFFFF AND PUSH20 0xFFFFFFFFFFFFFFFFFFFFFFFFFFFFFFFFFFFFFFFF AND DUP2 MSTORE PUSH1 0x20 ADD SWAP1 DUP2 MSTORE PUSH1 0x20 ADD PUSH0 KECCAK256 PUSH0 PUSH2 0x100 EXP DUP2 SLOAD DUP2 PUSH1 0xFF MUL NOT AND SWAP1 DUP4 ISZERO ISZERO MUL OR SWAP1 SSTORE POP POP PUSH2 0x294 JUMP JUMPDEST PUSH0 PUSH0 PUSH0 SWAP1 SLOAD SWAP1 PUSH2 0x100 EXP SWAP1 DIV PUSH20 0xFFFFFFFFFFFFFFFFFFFFFFFFFFFFFFFFFFFFFFFF AND SWAP1 POP DUP2 PUSH0 PUSH0 PUSH2 0x100 EXP DUP2 SLOAD DUP2 PUSH20 0xFFFFFFFFFFFFFFFFFFFFFFFFFFFFFFFFFFFFFFFF MUL NOT AND SWAP1 DUP4 PUSH20 0xFFFFFFFFFFFFFFFFFFFFFFFFFFFFFFFFFFFFFFFF AND MUL OR SWAP1 SSTORE POP DUP2 PUSH20 0xFFFFFFFFFFFFFFFFFFFFFFFFFFFFFFFFFFFFFFFF AND DUP2 PUSH20 0xFFFFFFFFFFFFFFFFFFFFFFFFFFFFFFFFFFFFFFFF AND PUSH32 0x8BE0079C531659141344CD1FD0A4F28419497F9722A3DAAFE3B4186F6B6457E0 PUSH1 0x40 MLOAD PUSH1 0x40 MLOAD DUP1 SWAP2 SUB SWAP1 LOG3 POP POP JUMP JUMPDEST PUSH0 PUSH0 REVERT JUMPDEST PUSH0 DUP2 SWAP1 POP SWAP2 SWAP1 POP JUMP JUMPDEST PUSH2 0x1F0 DUP2 PUSH2 0x1DE JUMP JUMPDEST DUP2 EQ PUSH2 0x1FA JUMPI PUSH0 PUSH0 REVERT JUMPDEST POP JUMP JUMPDEST PUSH0 DUP2 MLOAD SWAP1 POP PUSH2 0x20B DUP2 PUSH2 0x1E7 JUMP JUMPDEST SWAP3 SWAP2 POP POP JUMP JUMPDEST PUSH0 PUSH1 0x20 DUP3 DUP5 SUB SLT ISZERO PUSH2 0x226 JUMPI PUSH2 0x225 PUSH2 0x1DA JUMP JUMPDEST JUMPDEST PUSH0 PUSH2 0x233 DUP5 DUP3 DUP6 ADD PUSH2 0x1FD JUMP JUMPDEST SWAP2 POP POP SWAP3 SWAP2 POP POP JUMP JUMPDEST PUSH0 PUSH20 0xFFFFFFFFFFFFFFFFFFFFFFFFFFFFFFFFFFFFFFFF DUP3 AND SWAP1 POP SWAP2 SWAP1 POP JUMP JUMPDEST PUSH0 PUSH2 0x265 DUP3 PUSH2 0x23C JUMP JUMPDEST SWAP1 POP SWAP2 SWAP1 POP JUMP JUMPDEST PUSH2 0x275 DUP2 PUSH2 0x25B JUMP JUMPDEST DUP3 MSTORE POP POP JUMP JUMPDEST PUSH0 PUSH1 0x20 DUP3 ADD SWAP1 POP PUSH2 0x28E PUSH0 DUP4 ADD DUP5 PUSH2 0x26C JUMP JUMPDEST SWAP3 SWAP2 POP POP JUMP JUMPDEST PUSH1 0x80 MLOAD PUSH2 0x15EA PUSH2 0x2BA PUSH0 CODECOPY PUSH0 DUP2 DUP2 PUSH2 0x2A2 ADD MSTORE DUP2 DUP2 PUSH2 0x4D8 ADD MSTORE PUSH2 0x7BC ADD MSTORE PUSH2 0x15EA PUSH0 RETURN INVALID PUSH1 0x80 PUSH1 0x40 MSTORE PUSH1 0x4 CALLDATASIZE LT PUSH2 0x90 JUMPI PUSH0 CALLDATALOAD PUSH1 0xE0 SHR DUP1 PUSH4 0x943E8216 GT PUSH2 0x58 JUMPI DUP1 PUSH4 0x943E8216 EQ PUSH2 0x16A JUMPI DUP1 PUSH4 0xBF8FBBD2 EQ PUSH2 0x186 JUMPI DUP1 PUSH4 0xDBF65DE0 EQ PUSH2 0x1B0 JUMPI DUP1 PUSH4 0xF24F9459 EQ PUSH2 0x1D8 JUMPI DUP1 PUSH4 0xF2FDE38B EQ PUSH2 0x21A JUMPI PUSH2 0x90 JUMP JUMPDEST DUP1 PUSH4 0x301ED59E EQ PUSH2 0x94 JUMPI DUP1 PUSH4 0x372C12B1 EQ PUSH2 0xBE JUMPI DUP1 PUSH4 0x715018A6 EQ PUSH2 0xFA JUMPI DUP1 PUSH4 0x8DA5CB5B EQ PUSH2 0x110 JUMPI DUP1 PUSH4 0x937CABED EQ PUSH2 0x13A JUMPI JUMPDEST PUSH0 PUSH0 REVERT JUMPDEST CALLVALUE DUP1 ISZERO PUSH2 0x9F JUMPI PUSH0 PUSH0 REVERT JUMPDEST POP PUSH2 0xA8 PUSH2 0x242 JUMP JUMPDEST PUSH1 0x40 MLOAD PUSH2 0xB5 SWAP2 SWAP1 PUSH2 0xBE0 JUMP JUMPDEST PUSH1 0x40 MLOAD DUP1 SWAP2 SUB SWAP1 RETURN JUMPDEST CALLVALUE DUP1 ISZERO PUSH2 0xC9 JUMPI PUSH0 PUSH0 REVERT JUMPDEST POP PUSH2 0xE4 PUSH1 0x4 DUP1 CALLDATASIZE SUB DUP2 ADD SWAP1 PUSH2 0xDF SWAP2 SWAP1 PUSH2 0xC64 JUMP JUMPDEST PUSH2 0x248 JUMP JUMPDEST PUSH1 0x40 MLOAD PUSH2 0xF1 SWAP2 SWAP1 PUSH2 0xCA9 JUMP JUMPDEST PUSH1 0x40 MLOAD DUP1 SWAP2 SUB SWAP1 RETURN JUMPDEST CALLVALUE DUP1 ISZERO PUSH2 0x105 JUMPI PUSH0 PUSH0 REVERT JUMPDEST POP PUSH2 0x10E PUSH2 0x265 JUMP JUMPDEST STOP JUMPDEST CALLVALUE DUP1 ISZERO PUSH2 0x11B JUMPI PUSH0 PUSH0 REVERT JUMPDEST POP PUSH2 0x124 PUSH2 0x278 JUMP JUMPDEST PUSH1 0x40 MLOAD PUSH2 0x131 SWAP2 SWAP1 PUSH2 0xCD1 JUMP JUMPDEST PUSH1 0x40 MLOAD DUP1 SWAP2 SUB SWAP1 RETURN JUMPDEST PUSH2 0x154 PUSH1 0x4 DUP1 CALLDATASIZE SUB DUP2 ADD SWAP1 PUSH2 0x14F SWAP2 SWAP1 PUSH2 0xE50 JUMP JUMPDEST PUSH2 0x29F JUMP JUMPDEST PUSH1 0x40 MLOAD PUSH2 0x161 SWAP2 SWAP1 PUSH2 0xBE0 JUMP JUMPDEST PUSH1 0x40 MLOAD DUP1 SWAP2 SUB SWAP1 RETURN JUMPDEST PUSH2 0x184 PUSH1 0x4 DUP1 CALLDATASIZE SUB DUP2 ADD SWAP1 PUSH2 0x17F SWAP2 SWAP1 PUSH2 0xEFB JUMP JUMPDEST PUSH2 0x4D6 JUMP JUMPDEST STOP JUMPDEST CALLVALUE DUP1 ISZERO PUSH2 0x191 JUMPI PUSH0 PUSH0 REVERT JUMPDEST POP PUSH2 0x19A PUSH2 0x7BA JUMP JUMPDEST PUSH1 0x40 MLOAD PUSH2 0x1A7 SWAP2 SWAP1 PUSH2 0xBE0 JUMP JUMPDEST PUSH1 0x40 MLOAD DUP1 SWAP2 SUB SWAP1 RETURN JUMPDEST CALLVALUE DUP1 ISZERO PUSH2 0x1BB JUMPI PUSH0 PUSH0 REVERT JUMPDEST POP PUSH2 0x1D6 PUSH1 0x4 DUP1 CALLDATASIZE SUB DUP2 ADD SWAP1 PUSH2 0x1D1 SWAP2 SWAP1 PUSH2 0xF63 JUMP JUMPDEST PUSH2 0x7DE JUMP JUMPDEST STOP JUMPDEST CALLVALUE DUP1 ISZERO PUSH2 0x1E3 JUMPI PUSH0 PUSH0 REVERT JUMPDEST POP PUSH2 0x1FE PUSH1 0x4 DUP1 CALLDATASIZE SUB DUP2 ADD SWAP1 PUSH2 0x1F9 SWAP2 SWAP1 PUSH2 0xFA1 JUMP JUMPDEST PUSH2 0x88C JUMP JUMPDEST PUSH1 0x40 MLOAD PUSH2 0x211 SWAP8 SWAP7 SWAP6 SWAP5 SWAP4 SWAP3 SWAP2 SWAP1 PUSH2 0x102C JUMP JUMPDEST PUSH1 0x40 MLOAD DUP1 SWAP2 SUB SWAP1 RETURN JUMPDEST CALLVALUE DUP1 ISZERO PUSH2 0x225 JUMPI PUSH0 PUSH0 REVERT JUMPDEST POP PUSH2 0x240 PUSH1 0x4 DUP1 CALLDATASIZE SUB DUP2 ADD SWAP1 PUSH2 0x23B SWAP2 SWAP1 PUSH2 0xC64 JUMP JUMPDEST PUSH2 0x9F5 JUMP JUMPDEST STOP JUMPDEST PUSH1 0x1 SLOAD DUP2 JUMP JUMPDEST PUSH1 0x4 PUSH1 0x20 MSTORE DUP1 PUSH0 MSTORE PUSH1 0x40 PUSH0 KECCAK256 PUSH0 SWAP2 POP SLOAD SWAP1 PUSH2 0x100 EXP SWAP1 DIV PUSH1 0xFF AND DUP2 JUMP JUMPDEST PUSH2 0x26D PUSH2 0xA79 JUMP JUMPDEST PUSH2 0x276 PUSH0 PUSH2 0xB00 JUMP JUMPDEST JUMP JUMPDEST PUSH0 PUSH0 PUSH0 SWAP1 SLOAD SWAP1 PUSH2 0x100 EXP SWAP1 DIV PUSH20 0xFFFFFFFFFFFFFFFFFFFFFFFFFFFFFFFFFFFFFFFF AND SWAP1 POP SWAP1 JUMP JUMPDEST PUSH0 PUSH32 0x0 CALLVALUE LT PUSH2 0x302 JUMPI PUSH1 0x40 MLOAD PUSH32 0x8C379A000000000000000000000000000000000000000000000000000000000 DUP2 MSTORE PUSH1 0x4 ADD PUSH2 0x2F9 SWAP1 PUSH2 0x10F1 JUMP JUMPDEST PUSH1 0x40 MLOAD DUP1 SWAP2 SUB SWAP1 REVERT JUMPDEST PUSH1 0x4 PUSH0 CALLER PUSH20 0xFFFFFFFFFFFFFFFFFFFFFFFFFFFFFFFFFFFFFFFF AND PUSH20 0xFFFFFFFFFFFFFFFFFFFFFFFFFFFFFFFFFFFFFFFF AND DUP2 MSTORE PUSH1 0x20 ADD SWAP1 DUP2 MSTORE PUSH1 0x20 ADD PUSH0 KECCAK256 PUSH0 SWAP1 SLOAD SWAP1 PUSH2 0x100 EXP SWAP1 DIV PUSH1 0xFF AND PUSH2 0x38B JUMPI PUSH1 0x40 MLOAD PUSH32 0x8C379A000000000000000000000000000000000000000000000000000000000 DUP2 MSTORE PUSH1 0x4 ADD PUSH2 0x382 SWAP1 PUSH2 0x1159 JUMP JUMPDEST PUSH1 0x40 MLOAD DUP1 SWAP2 SUB SWAP1 REVERT JUMPDEST PUSH1 0x1 PUSH0 DUP2 SLOAD DUP1 SWAP3 SWAP2 SWAP1 PUSH2 0x39D SWAP1 PUSH2 0x11A4 JUMP JUMPDEST SWAP2 SWAP1 POP SSTORE POP PUSH1 0x40 MLOAD DUP1 PUSH1 0xE0 ADD PUSH1 0x40 MSTORE DUP1 PUSH1 0x1 SLOAD DUP2 MSTORE PUSH1 0x20 ADD DUP6 DUP2 MSTORE PUSH1 0x20 ADD DUP5 DUP2 MSTORE PUSH1 0x20 ADD PUSH0 DUP2 MSTORE PUSH1 0x20 ADD PUSH0 DUP2 MSTORE PUSH1 0x20 ADD DUP4 DUP2 MSTORE PUSH1 0x20 ADD CALLER PUSH20 0xFFFFFFFFFFFFFFFFFFFFFFFFFFFFFFFFFFFFFFFF AND DUP2 MSTORE POP PUSH1 0x2 PUSH0 PUSH1 0x1 SLOAD DUP2 MSTORE PUSH1 0x20 ADD SWAP1 DUP2 MSTORE PUSH1 0x20 ADD PUSH0 KECCAK256 PUSH0 DUP3 ADD MLOAD DUP2 PUSH0 ADD SSTORE PUSH1 0x20 DUP3 ADD MLOAD DUP2 PUSH1 0x1 ADD SWAP1 DUP2 PUSH2 0x41D SWAP2 SWAP1 PUSH2 0x13E8 JUMP JUMPDEST POP PUSH1 0x40 DUP3 ADD MLOAD DUP2 PUSH1 0x2 ADD SWAP1 DUP2 PUSH2 0x433 SWAP2 SWAP1 PUSH2 0x13E8 JUMP JUMPDEST POP PUSH1 0x60 DUP3 ADD MLOAD DUP2 PUSH1 0x3 ADD SSTORE PUSH1 0x80 DUP3 ADD MLOAD DUP2 PUSH1 0x4 ADD SSTORE PUSH1 0xA0 DUP3 ADD MLOAD DUP2 PUSH1 0x5 ADD SSTORE PUSH1 0xC0 DUP3 ADD MLOAD DUP2 PUSH1 0x6 ADD PUSH0 PUSH2 0x100 EXP DUP2 SLOAD DUP2 PUSH20 0xFFFFFFFFFFFFFFFFFFFFFFFFFFFFFFFFFFFFFFFF MUL NOT AND SWAP1 DUP4 PUSH20 0xFFFFFFFFFFFFFFFFFFFFFFFFFFFFFFFFFFFFFFFF AND MUL OR SWAP1 SSTORE POP SWAP1 POP POP PUSH1 0x1 SLOAD PUSH32 0xA0B7F6F22BB4F69ADC52DD16FFE2A964AB8B577BE274247FA9A1547B03CE3E55 PUSH1 0x40 MLOAD PUSH1 0x40 MLOAD DUP1 SWAP2 SUB SWAP1 LOG2 PUSH1 0x1 SLOAD SWAP1 POP SWAP4 SWAP3 POP POP POP JUMP JUMPDEST PUSH32 0x0 CALLVALUE LT PUSH2 0x538 JUMPI PUSH1 0x40 MLOAD PUSH32 0x8C379A000000000000000000000000000000000000000000000000000000000 DUP2 MSTORE PUSH1 0x4 ADD PUSH2 0x52F SWAP1 PUSH2 0x10F1 JUMP JUMPDEST PUSH1 0x40 MLOAD DUP1 SWAP2 SUB SWAP1 REVERT JUMPDEST PUSH1 0x4 PUSH0 CALLER PUSH20 0xFFFFFFFFFFFFFFFFFFFFFFFFFFFFFFFFFFFFFFFF AND PUSH20 0xFFFFFFFFFFFFFFFFFFFFFFFFFFFFFFFFFFFFFFFF AND DUP2 MSTORE PUSH1 0x20 ADD SWAP1 DUP2 MSTORE PUSH1 0x20 ADD PUSH0 KECCAK256 PUSH0 SWAP1 SLOAD SWAP1 PUSH2 0x100 EXP SWAP1 DIV PUSH1 0xFF AND PUSH2 0x5C1 JUMPI PUSH1 0x40 MLOAD PUSH32 0x8C379A000000000000000000000000000000000000000000000000000000000 DUP2 MSTORE PUSH1 0x4 ADD PUSH2 0x5B8 SWAP1 PUSH2 0x1159 JUMP JUMPDEST PUSH1 0x40 MLOAD DUP1 SWAP2 SUB SWAP1 REVERT JUMPDEST PUSH0 PUSH20 0xFFFFFFFFFFFFFFFFFFFFFFFFFFFFFFFFFFFFFFFF AND PUSH1 0x2 PUSH0 DUP5 DUP2 MSTORE PUSH1 0x20 ADD SWAP1 DUP2 MSTORE PUSH1 0x20 ADD PUSH0 KECCAK256 PUSH1 0x6 ADD PUSH0 SWAP1 SLOAD SWAP1 PUSH2 0x100 EXP SWAP1 DIV PUSH20 0xFFFFFFFFFFFFFFFFFFFFFFFFFFFFFFFFFFFFFFFF AND PUSH20 0xFFFFFFFFFFFFFFFFFFFFFFFFFFFFFFFFFFFFFFFF AND SUB PUSH2 0x662 JUMPI PUSH1 0x40 MLOAD PUSH32 0x8C379A000000000000000000000000000000000000000000000000000000000 DUP2 MSTORE PUSH1 0x4 ADD PUSH2 0x659 SWAP1 PUSH2 0x1501 JUMP JUMPDEST PUSH1 0x40 MLOAD DUP1 SWAP2 SUB SWAP1 REVERT JUMPDEST PUSH1 0x3 PUSH0 DUP4 DUP2 MSTORE PUSH1 0x20 ADD SWAP1 DUP2 MSTORE PUSH1 0x20 ADD PUSH0 KECCAK256 PUSH0 CALLER PUSH20 0xFFFFFFFFFFFFFFFFFFFFFFFFFFFFFFFFFFFFFFFF AND PUSH20 0xFFFFFFFFFFFFFFFFFFFFFFFFFFFFFFFFFFFFFFFF AND DUP2 MSTORE PUSH1 0x20 ADD SWAP1 DUP2 MSTORE PUSH1 0x20 ADD PUSH0 KECCAK256 PUSH0 SWAP1 SLOAD SWAP1 PUSH2 0x100 EXP SWAP1 DIV PUSH1 0xFF AND ISZERO PUSH2 0x6FB JUMPI PUSH1 0x40 MLOAD PUSH32 0x8C379A000000000000000000000000000000000000000000000000000000000 DUP2 MSTORE PUSH1 0x4 ADD PUSH2 0x6F2 SWAP1 PUSH2 0x1569 JUMP JUMPDEST PUSH1 0x40 MLOAD DUP1 SWAP2 SUB SWAP1 REVERT JUMPDEST PUSH1 0x1 PUSH1 0x3 PUSH0 DUP5 DUP2 MSTORE PUSH1 0x20 ADD SWAP1 DUP2 MSTORE PUSH1 0x20 ADD PUSH0 KECCAK256 PUSH0 CALLER PUSH20 0xFFFFFFFFFFFFFFFFFFFFFFFFFFFFFFFFFFFFFFFF AND PUSH20 0xFFFFFFFFFFFFFFFFFFFFFFFFFFFFFFFFFFFFFFFF AND DUP2 MSTORE PUSH1 0x20 ADD SWAP1 DUP2 MSTORE PUSH1 0x20 ADD PUSH0 KECCAK256 PUSH0 PUSH2 0x100 EXP DUP2 SLOAD DUP2 PUSH1 0xFF MUL NOT AND SWAP1 DUP4 ISZERO ISZERO MUL OR SWAP1 SSTORE POP DUP1 PUSH1 0x1 DUP2 GT ISZERO PUSH2 0x772 JUMPI PUSH2 0x771 PUSH2 0x1587 JUMP JUMPDEST JUMPDEST CALLER PUSH20 0xFFFFFFFFFFFFFFFFFFFFFFFFFFFFFFFFFFFFFFFF AND DUP4 PUSH32 0x7E0EE871A145B34A4F0117EC30DA34C5BD4487A09F78FD3B31A366A55FD2D29 PUSH1 0x40 MLOAD PUSH1 0x40 MLOAD DUP1 SWAP2 SUB SWAP1 LOG4 POP POP JUMP JUMPDEST PUSH32 0x0 DUP2 JUMP JUMPDEST PUSH2 0x7E6 PUSH2 0xA79 JUMP JUMPDEST DUP1 PUSH1 0x4 PUSH0 DUP5 PUSH20 0xFFFFFFFFFFFFFFFFFFFFFFFFFFFFFFFFFFFFFFFF AND PUSH20 0xFFFFFFFFFFFFFFFFFFFFFFFFFFFFFFFFFFFFFFFF AND DUP2 MSTORE PUSH1 0x20 ADD SWAP1 DUP2 MSTORE PUSH1 0x20 ADD PUSH0 KECCAK256 PUSH0 PUSH2 0x100 EXP DUP2 SLOAD DUP2 PUSH1 0xFF MUL NOT AND SWAP1 DUP4 ISZERO ISZERO MUL OR SWAP1 SSTORE POP DUP2 PUSH20 0xFFFFFFFFFFFFFFFFFFFFFFFFFFFFFFFFFFFFFFFF AND PUSH32 0x111B0CDDE6A17355DBEB5CE9B87078297FEC9B61B51550540B0D4E2F1E4913C2 DUP3 PUSH1 0x40 MLOAD PUSH2 0x880 SWAP2 SWAP1 PUSH2 0xCA9 JUMP JUMPDEST PUSH1 0x40 MLOAD DUP1 SWAP2 SUB SWAP1 LOG2 POP POP JUMP JUMPDEST PUSH1 0x2 PUSH1 0x20 MSTORE DUP1 PUSH0 MSTORE PUSH1 0x40 PUSH0 KECCAK256 PUSH0 SWAP2 POP SWAP1 POP DUP1 PUSH0 ADD SLOAD SWAP1 DUP1 PUSH1 0x1 ADD DUP1 SLOAD PUSH2 0x8B1 SWAP1 PUSH2 0x1218 JUMP JUMPDEST DUP1 PUSH1 0x1F ADD PUSH1 0x20 DUP1 SWAP2 DIV MUL PUSH1 0x20 ADD PUSH1 0x40 MLOAD SWAP1 DUP2 ADD PUSH1 0x40 MSTORE DUP1 SWAP3 SWAP2 SWAP1 DUP2 DUP2 MSTORE PUSH1 0x20 ADD DUP3 DUP1 SLOAD PUSH2 0x8DD SWAP1 PUSH2 0x1218 JUMP JUMPDEST DUP1 ISZERO PUSH2 0x928 JUMPI DUP1 PUSH1 0x1F LT PUSH2 0x8FF JUMPI PUSH2 0x100 DUP1 DUP4 SLOAD DIV MUL DUP4 MSTORE SWAP2 PUSH1 0x20 ADD SWAP2 PUSH2 0x928 JUMP JUMPDEST DUP3 ADD SWAP2 SWAP1 PUSH0 MSTORE PUSH1 0x20 PUSH0 KECCAK256 SWAP1 JUMPDEST DUP2 SLOAD DUP2 MSTORE SWAP1 PUSH1 0x1 ADD SWAP1 PUSH1 0x20 ADD DUP1 DUP4 GT PUSH2 0x90B JUMPI DUP3 SWAP1 SUB PUSH1 0x1F AND DUP3 ADD SWAP2 JUMPDEST POP POP POP POP POP SWAP1 DUP1 PUSH1 0x2 ADD DUP1 SLOAD PUSH2 0x93D SWAP1 PUSH2 0x1218 JUMP JUMPDEST DUP1 PUSH1 0x1F ADD PUSH1 0x20 DUP1 SWAP2 DIV MUL PUSH1 0x20 ADD PUSH1 0x40 MLOAD SWAP1 DUP2 ADD PUSH1 0x40 MSTORE DUP1 SWAP3 SWAP2 SWAP1 DUP2 DUP2 MSTORE PUSH1 0x20 ADD DUP3 DUP1 SLOAD PUSH2 0x969 SWAP1 PUSH2 0x1218 JUMP JUMPDEST DUP1 ISZERO PUSH2 0x9B4 JUMPI DUP1 PUSH1 0x1F LT PUSH2 0x98B JUMPI PUSH2 0x100 DUP1 DUP4 SLOAD DIV MUL DUP4 MSTORE SWAP2 PUSH1 0x20 ADD SWAP2 PUSH2 0x9B4 JUMP JUMPDEST DUP3 ADD SWAP2 SWAP1 PUSH0 MSTORE PUSH1 0x20 PUSH0 KECCAK256 SWAP1 JUMPDEST DUP2 SLOAD DUP2 MSTORE SWAP1 PUSH1 0x1 ADD SWAP1 PUSH1 0x20 ADD DUP1 DUP4 GT PUSH2 0x997 JUMPI DUP3 SWAP1 SUB PUSH1 0x1F AND DUP3 ADD SWAP2 JUMPDEST POP POP POP POP POP SWAP1 DUP1 PUSH1 0x3 ADD SLOAD SWAP1 DUP1 PUSH1 0x4 ADD SLOAD SWAP1 DUP1 PUSH1 0x5 ADD SLOAD SWAP1 DUP1 PUSH1 0x6 ADD PUSH0 SWAP1 SLOAD SWAP1 PUSH2 0x100 EXP SWAP1 DIV PUSH20 0xFFFFFFFFFFFFFFFFFFFFFFFFFFFFFFFFFFFFFFFF AND SWAP1 POP DUP8 JUMP JUMPDEST PUSH2 0x9FD PUSH2 0xA79 JUMP JUMPDEST PUSH0 PUSH20 0xFFFFFFFFFFFFFFFFFFFFFFFFFFFFFFFFFFFFFFFF AND DUP2 PUSH20 0xFFFFFFFFFFFFFFFFFFFFFFFFFFFFFFFFFFFFFFFF AND SUB PUSH2 0xA6D JUMPI PUSH0 PUSH1 0x40 MLOAD PUSH32 0x1E4FBDF700000000000000000000000000000000000000000000000000000000 DUP2 MSTORE PUSH1 0x4 ADD PUSH2 0xA64 SWAP2 SWAP1 PUSH2 0xCD1 JUMP JUMPDEST PUSH1 0x40 MLOAD DUP1 SWAP2 SUB SWAP1 REVERT JUMPDEST PUSH2 0xA76 DUP2 PUSH2 0xB00 JUMP JUMPDEST POP JUMP JUMPDEST PUSH2 0xA81 PUSH2 0xBC1 JUMP JUMPDEST PUSH20 0xFFFFFFFFFFFFFFFFFFFFFFFFFFFFFFFFFFFFFFFF AND PUSH2 0xA9F PUSH2 0x278 JUMP JUMPDEST PUSH20 0xFFFFFFFFFFFFFFFFFFFFFFFFFFFFFFFFFFFFFFFF AND EQ PUSH2 0xAFE JUMPI PUSH2 0xAC2 PUSH2 0xBC1 JUMP JUMPDEST PUSH1 0x40 MLOAD PUSH32 0x118CDAA700000000000000000000000000000000000000000000000000000000 DUP2 MSTORE PUSH1 0x4 ADD PUSH2 0xAF5 SWAP2 SWAP1 PUSH2 0xCD1 JUMP JUMPDEST PUSH1 0x40 MLOAD DUP1 SWAP2 SUB SWAP1 REVERT JUMPDEST JUMP JUMPDEST PUSH0 PUSH0 PUSH0 SWAP1 SLOAD SWAP1 PUSH2 0x100 EXP SWAP1 DIV PUSH20 0xFFFFFFFFFFFFFFFFFFFFFFFFFFFFFFFFFFFFFFFF AND SWAP1 POP DUP2 PUSH0 PUSH0 PUSH2 0x100 EXP DUP2 SLOAD DUP2 PUSH20 0xFFFFFFFFFFFFFFFFFFFFFFFFFFFFFFFFFFFFFFFF MUL NOT AND SWAP1 DUP4 PUSH20 0xFFFFFFFFFFFFFFFFFFFFFFFFFFFFFFFFFFFFFFFF AND MUL OR SWAP1 SSTORE POP DUP2 PUSH20 0xFFFFFFFFFFFFFFFFFFFFFFFFFFFFFFFFFFFFFFFF AND DUP2 PUSH20 0xFFFFFFFFFFFFFFFFFFFFFFFFFFFFFFFFFFFFFFFF AND PUSH32 0x8BE0079C531659141344CD1FD0A4F28419497F9722A3DAAFE3B4186F6B6457E0 PUSH1 0x40 MLOAD PUSH1 0x40 MLOAD DUP1 SWAP2 SUB SWAP1 LOG3 POP POP JUMP JUMPDEST PUSH0 CALLER SWAP1 POP SWAP1 JUMP JUMPDEST PUSH0 DUP2 SWAP1 POP SWAP2 SWAP1 POP JUMP JUMPDEST PUSH2 0xBDA DUP2 PUSH2 0xBC8 JUMP JUMPDEST DUP3 MSTORE POP POP JUMP JUMPDEST PUSH0 PUSH1 0x20 DUP3 ADD SWAP1 POP PUSH2 0xBF3 PUSH0 DUP4 ADD DUP5 PUSH2 0xBD1 JUMP JUMPDEST SWAP3 SWAP2 POP POP JUMP JUMPDEST PUSH0 PUSH1 0x40 MLOAD SWAP1 POP SWAP1 JUMP JUMPDEST PUSH0 PUSH0 REVERT JUMPDEST PUSH0 PUSH0 REVERT JUMPDEST PUSH0 PUSH20 0xFFFFFFFFFFFFFFFFFFFFFFFFFFFFFFFFFFFFFFFF DUP3 AND SWAP1 POP SWAP2 SWAP1 POP JUMP JUMPDEST PUSH0 PUSH2 0xC33 DUP3 PUSH2 0xC0A JUMP JUMPDEST SWAP1 POP SWAP2 SWAP1 POP JUMP JUMPDEST PUSH2 0xC43 DUP2 PUSH2 0xC29 JUMP JUMPDEST DUP2 EQ PUSH2 0xC4D JUMPI PUSH0 PUSH0 REVERT JUMPDEST POP JUMP JUMPDEST PUSH0 DUP2 CALLDATALOAD SWAP1 POP PUSH2 0xC5E DUP2 PUSH2 0xC3A JUMP JUMPDEST SWAP3 SWAP2 POP POP JUMP JUMPDEST PUSH0 PUSH1 0x20 DUP3 DUP5 SUB SLT ISZERO PUSH2 0xC79 JUMPI PUSH2 0xC78 PUSH2 0xC02 JUMP JUMPDEST JUMPDEST PUSH0 PUSH2 0xC86 DUP5 DUP3 DUP6 ADD PUSH2 0xC50 JUMP JUMPDEST SWAP2 POP POP SWAP3 SWAP2 POP POP JUMP JUMPDEST PUSH0 DUP2 ISZERO ISZERO SWAP1 POP SWAP2 SWAP1 POP JUMP JUMPDEST PUSH2 0xCA3 DUP2 PUSH2 0xC8F JUMP JUMPDEST DUP3 MSTORE POP POP JUMP JUMPDEST PUSH0 PUSH1 0x20 DUP3 ADD SWAP1 POP PUSH2 0xCBC PUSH0 DUP4 ADD DUP5 PUSH2 0xC9A JUMP JUMPDEST SWAP3 SWAP2 POP POP JUMP JUMPDEST PUSH2 0xCCB DUP2 PUSH2 0xC29 JUMP JUMPDEST DUP3 MSTORE POP POP JUMP JUMPDEST PUSH0 PUSH1 0x20 DUP3 ADD SWAP1 POP PUSH2 0xCE4 PUSH0 DUP4 ADD DUP5 PUSH2 0xCC2 JUMP JUMPDEST SWAP3 SWAP2 POP POP JUMP JUMPDEST PUSH0 PUSH0 REVERT JUMPDEST PUSH0 PUSH0 REVERT JUMPDEST PUSH0 PUSH1 0x1F NOT PUSH1 0x1F DUP4 ADD AND SWAP1 POP SWAP2 SWAP1 POP JUMP JUMPDEST PUSH32 0x4E487B7100000000000000000000000000000000000000000000000000000000 PUSH0 MSTORE PUSH1 0x41 PUSH1 0x4 MSTORE PUSH1 0x24 PUSH0 REVERT JUMPDEST PUSH2 0xD38 DUP3 PUSH2 0xCF2 JUMP JUMPDEST DUP2 ADD DUP2 DUP2 LT PUSH8 0xFFFFFFFFFFFFFFFF DUP3 GT OR ISZERO PUSH2 0xD57 JUMPI PUSH2 0xD56 PUSH2 0xD02 JUMP JUMPDEST JUMPDEST DUP1 PUSH1 0x40 MSTORE POP POP POP JUMP JUMPDEST PUSH0 PUSH2 0xD69 PUSH2 0xBF9 JUMP JUMPDEST SWAP1 POP PUSH2 0xD75 DUP3 DUP3 PUSH2 0xD2F JUMP JUMPDEST SWAP2 SWAP1 POP JUMP JUMPDEST PUSH0 PUSH8 0xFFFFFFFFFFFFFFFF DUP3 GT ISZERO PUSH2 0xD94 JUMPI PUSH2 0xD93 PUSH2 0xD02 JUMP JUMPDEST JUMPDEST PUSH2 0xD9D DUP3 PUSH2 0xCF2 JUMP JUMPDEST SWAP1 POP PUSH1 0x20 DUP2 ADD SWAP1 POP SWAP2 SWAP1 POP JUMP JUMPDEST DUP3 DUP2 DUP4 CALLDATACOPY PUSH0 DUP4 DUP4 ADD MSTORE POP POP POP JUMP JUMPDEST PUSH0 PUSH2 0xDCA PUSH2 0xDC5 DUP5 PUSH2 0xD7A JUMP JUMPDEST PUSH2 0xD60 JUMP JUMPDEST SWAP1 POP DUP3 DUP2 MSTORE PUSH1 0x20 DUP2 ADD DUP5 DUP5 DUP5 ADD GT ISZERO PUSH2 0xDE6 JUMPI PUSH2 0xDE5 PUSH2 0xCEE JUMP JUMPDEST JUMPDEST PUSH2 0xDF1 DUP5 DUP3 DUP6 PUSH2 0xDAA JUMP JUMPDEST POP SWAP4 SWAP3 POP POP POP JUMP JUMPDEST PUSH0 DUP3 PUSH1 0x1F DUP4 ADD SLT PUSH2 0xE0D JUMPI PUSH2 0xE0C PUSH2 0xCEA JUMP JUMPDEST JUMPDEST DUP2 CALLDATALOAD PUSH2 0xE1D DUP5 DUP3 PUSH1 0x20 DUP7 ADD PUSH2 0xDB8 JUMP JUMPDEST SWAP2 POP POP SWAP3 SWAP2 POP POP JUMP JUMPDEST PUSH2 0xE2F DUP2 PUSH2 0xBC8 JUMP JUMPDEST DUP2 EQ PUSH2 0xE39 JUMPI PUSH0 PUSH0 REVERT JUMPDEST POP JUMP JUMPDEST PUSH0 DUP2 CALLDATALOAD SWAP1 POP PUSH2 0xE4A DUP2 PUSH2 0xE26 JUMP JUMPDEST SWAP3 SWAP2 POP POP JUMP JUMPDEST PUSH0 PUSH0 PUSH0 PUSH1 0x60 DUP5 DUP7 SUB SLT ISZERO PUSH2 0xE67 JUMPI PUSH2 0xE66 PUSH2 0xC02 JUMP JUMPDEST JUMPDEST PUSH0 DUP5 ADD CALLDATALOAD PUSH8 0xFFFFFFFFFFFFFFFF DUP2 GT ISZERO PUSH2 0xE84 JUMPI PUSH2 0xE83 PUSH2 0xC06 JUMP JUMPDEST JUMPDEST PUSH2 0xE90 DUP7 DUP3 DUP8 ADD PUSH2 0xDF9 JUMP JUMPDEST SWAP4 POP POP PUSH1 0x20 DUP5 ADD CALLDATALOAD PUSH8 0xFFFFFFFFFFFFFFFF DUP2 GT ISZERO PUSH2 0xEB1 JUMPI PUSH2 0xEB0 PUSH2 0xC06 JUMP JUMPDEST JUMPDEST PUSH2 0xEBD DUP7 DUP3 DUP8 ADD PUSH2 0xDF9 JUMP JUMPDEST SWAP3 POP POP PUSH1 0x40 PUSH2 0xECE DUP7 DUP3 DUP8 ADD PUSH2 0xE3C JUMP JUMPDEST SWAP2 POP POP SWAP3 POP SWAP3 POP SWAP3 JUMP JUMPDEST PUSH1 0x2 DUP2 LT PUSH2 0xEE4 JUMPI PUSH0 PUSH0 REVERT JUMPDEST POP JUMP JUMPDEST PUSH0 DUP2 CALLDATALOAD SWAP1 POP PUSH2 0xEF5 DUP2 PUSH2 0xED8 JUMP JUMPDEST SWAP3 SWAP2 POP POP JUMP JUMPDEST PUSH0 PUSH0 PUSH1 0x40 DUP4 DUP6 SUB SLT ISZERO PUSH2 0xF11 JUMPI PUSH2 0xF10 PUSH2 0xC02 JUMP JUMPDEST JUMPDEST PUSH0 PUSH2 0xF1E DUP6 DUP3 DUP7 ADD PUSH2 0xE3C JUMP JUMPDEST SWAP3 POP POP PUSH1 0x20 PUSH2 0xF2F DUP6 DUP3 DUP7 ADD PUSH2 0xEE7 JUMP JUMPDEST SWAP2 POP POP SWAP3 POP SWAP3 SWAP1 POP JUMP JUMPDEST PUSH2 0xF42 DUP2 PUSH2 0xC8F JUMP JUMPDEST DUP2 EQ PUSH2 0xF4C JUMPI PUSH0 PUSH0 REVERT JUMPDEST POP JUMP JUMPDEST PUSH0 DUP2 CALLDATALOAD SWAP1 POP PUSH2 0xF5D DUP2 PUSH2 0xF39 JUMP JUMPDEST SWAP3 SWAP2 POP POP JUMP JUMPDEST PUSH0 PUSH0 PUSH1 0x40 DUP4 DUP6 SUB SLT ISZERO PUSH2 0xF79 JUMPI PUSH2 0xF78 PUSH2 0xC02 JUMP JUMPDEST JUMPDEST PUSH0 PUSH2 0xF86 DUP6 DUP3 DUP7 ADD PUSH2 0xC50 JUMP JUMPDEST SWAP3 POP POP PUSH1 0x20 PUSH2 0xF97 DUP6 DUP3 DUP7 ADD PUSH2 0xF4F JUMP JUMPDEST SWAP2 POP POP SWAP3 POP SWAP3 SWAP1 POP JUMP JUMPDEST PUSH0 PUSH1 0x20 DUP3 DUP5 SUB SLT ISZERO PUSH2 0xFB6 JUMPI PUSH2 0xFB5 PUSH2 0xC02 JUMP JUMPDEST JUMPDEST PUSH0 PUSH2 0xFC3 DUP5 DUP3 DUP6 ADD PUSH2 0xE3C JUMP JUMPDEST SWAP2 POP POP SWAP3 SWAP2 POP POP JUMP JUMPDEST PUSH0 DUP2 MLOAD SWAP1 POP SWAP2 SWAP1 POP JUMP JUMPDEST PUSH0 DUP3 DUP3 MSTORE PUSH1 0x20 DUP3 ADD SWAP1 POP SWAP3 SWAP2 POP POP JUMP JUMPDEST DUP3 DUP2 DUP4 MCOPY PUSH0 DUP4 DUP4 ADD MSTORE POP POP POP JUMP JUMPDEST PUSH0 PUSH2 0xFFE DUP3 PUSH2 0xFCC JUMP JUMPDEST PUSH2 0x1008 DUP2 DUP6 PUSH2 0xFD6 JUMP JUMPDEST SWAP4 POP PUSH2 0x1018 DUP2 DUP6 PUSH1 0x20 DUP7 ADD PUSH2 0xFE6 JUMP JUMPDEST PUSH2 0x1021 DUP2 PUSH2 0xCF2 JUMP JUMPDEST DUP5 ADD SWAP2 POP POP SWAP3 SWAP2 POP POP JUMP JUMPDEST PUSH0 PUSH1 0xE0 DUP3 ADD SWAP1 POP PUSH2 0x103F PUSH0 DUP4 ADD DUP11 PUSH2 0xBD1 JUMP JUMPDEST DUP2 DUP2 SUB PUSH1 0x20 DUP4 ADD MSTORE PUSH2 0x1051 DUP2 DUP10 PUSH2 0xFF4 JUMP JUMPDEST SWAP1 POP DUP2 DUP2 SUB PUSH1 0x40 DUP4 ADD MSTORE PUSH2 0x1065 DUP2 DUP9 PUSH2 0xFF4 JUMP JUMPDEST SWAP1 POP PUSH2 0x1074 PUSH1 0x60 DUP4 ADD DUP8 PUSH2 0xBD1 JUMP JUMPDEST PUSH2 0x1081 PUSH1 0x80 DUP4 ADD DUP7 PUSH2 0xBD1 JUMP JUMPDEST PUSH2 0x108E PUSH1 0xA0 DUP4 ADD DUP6 PUSH2 0xBD1 JUMP JUMPDEST PUSH2 0x109B PUSH1 0xC0 DUP4 ADD DUP5 PUSH2 0xCC2 JUMP JUMPDEST SWAP9 SWAP8 POP POP POP POP POP POP POP POP JUMP JUMPDEST PUSH32 0x4E6F7420456E6F75676820457468657200000000000000000000000000000000 PUSH0 DUP3 ADD MSTORE POP JUMP JUMPDEST PUSH0 PUSH2 0x10DB PUSH1 0x10 DUP4 PUSH2 0xFD6 JUMP JUMPDEST SWAP2 POP PUSH2 0x10E6 DUP3 PUSH2 0x10A7 JUMP JUMPDEST PUSH1 0x20 DUP3 ADD SWAP1 POP SWAP2 SWAP1 POP JUMP JUMPDEST PUSH0 PUSH1 0x20 DUP3 ADD SWAP1 POP DUP2 DUP2 SUB PUSH0 DUP4 ADD MSTORE PUSH2 0x1108 DUP2 PUSH2 0x10CF JUMP JUMPDEST SWAP1 POP SWAP2 SWAP1 POP JUMP JUMPDEST PUSH32 0x4F6E6C7957686974656C69737400000000000000000000000000000000000000 PUSH0 DUP3 ADD MSTORE POP JUMP JUMPDEST PUSH0 PUSH2 0x1143 PUSH1 0xD DUP4 PUSH2 0xFD6 JUMP JUMPDEST SWAP2 POP PUSH2 0x114E DUP3 PUSH2 0x110F JUMP JUMPDEST PUSH1 0x20 DUP3 ADD SWAP1 POP SWAP2 SWAP1 POP JUMP JUMPDEST PUSH0 PUSH1 0x20 DUP3 ADD SWAP1 POP DUP2 DUP2 SUB PUSH0 DUP4 ADD MSTORE PUSH2 0x1170 DUP2 PUSH2 0x1137 JUMP JUMPDEST SWAP1 POP SWAP2 SWAP1 POP JUMP JUMPDEST PUSH32 0x4E487B7100000000000000000000000000000000000000000000000000000000 PUSH0 MSTORE PUSH1 0x11 PUSH1 0x4 MSTORE PUSH1 0x24 PUSH0 REVERT JUMPDEST PUSH0 PUSH2 0x11AE DUP3 PUSH2 0xBC8 JUMP JUMPDEST SWAP2 POP PUSH32 0xFFFFFFFFFFFFFFFFFFFFFFFFFFFFFFFFFFFFFFFFFFFFFFFFFFFFFFFFFFFFFFFF DUP3 SUB PUSH2 0x11E0 JUMPI PUSH2 0x11DF PUSH2 0x1177 JUMP JUMPDEST JUMPDEST PUSH1 0x1 DUP3 ADD SWAP1 POP SWAP2 SWAP1 POP JUMP JUMPDEST PUSH32 0x4E487B7100000000000000000000000000000000000000000000000000000000 PUSH0 MSTORE PUSH1 0x22 PUSH1 0x4 MSTORE PUSH1 0x24 PUSH0 REVERT JUMPDEST PUSH0 PUSH1 0x2 DUP3 DIV SWAP1 POP PUSH1 0x1 DUP3 AND DUP1 PUSH2 0x122F JUMPI PUSH1 0x7F DUP3 AND SWAP2 POP JUMPDEST PUSH1 0x20 DUP3 LT DUP2 SUB PUSH2 0x1242 JUMPI PUSH2 0x1241 PUSH2 0x11EB JUMP JUMPDEST JUMPDEST POP SWAP2 SWAP1 POP JUMP JUMPDEST PUSH0 DUP2 SWAP1 POP DUP2 PUSH0 MSTORE PUSH1 0x20 PUSH0 KECCAK256 SWAP1 POP SWAP2 SWAP1 POP JUMP JUMPDEST PUSH0 PUSH1 0x20 PUSH1 0x1F DUP4 ADD DIV SWAP1 POP SWAP2 SWAP1 POP JUMP JUMPDEST PUSH0 DUP3 DUP3 SHL SWAP1 POP SWAP3 SWAP2 POP POP JUMP JUMPDEST PUSH0 PUSH1 0x8 DUP4 MUL PUSH2 0x12A4 PUSH32 0xFFFFFFFFFFFFFFFFFFFFFFFFFFFFFFFFFFFFFFFFFFFFFFFFFFFFFFFFFFFFFFFF DUP3 PUSH2 0x1269 JUMP JUMPDEST PUSH2 0x12AE DUP7 DUP4 PUSH2 0x1269 JUMP JUMPDEST SWAP6 POP DUP1 NOT DUP5 AND SWAP4 POP DUP1 DUP7 AND DUP5 OR SWAP3 POP POP POP SWAP4 SWAP3 POP POP POP JUMP JUMPDEST PUSH0 DUP2 SWAP1 POP SWAP2 SWAP1 POP JUMP JUMPDEST PUSH0 PUSH2 0x12E9 PUSH2 0x12E4 PUSH2 0x12DF DUP5 PUSH2 0xBC8 JUMP JUMPDEST PUSH2 0x12C6 JUMP JUMPDEST PUSH2 0xBC8 JUMP JUMPDEST SWAP1 POP SWAP2 SWAP1 POP JUMP JUMPDEST PUSH0 DUP2 SWAP1 POP SWAP2 SWAP1 POP JUMP JUMPDEST PUSH2 0x1302 DUP4 PUSH2 0x12CF JUMP JUMPDEST PUSH2 0x1316 PUSH2 0x130E DUP3 PUSH2 0x12F0 JUMP JUMPDEST DUP5 DUP5 SLOAD PUSH2 0x1275 JUMP JUMPDEST DUP3 SSTORE POP POP POP POP JUMP JUMPDEST PUSH0 PUSH0 SWAP1 POP SWAP1 JUMP JUMPDEST PUSH2 0x132D PUSH2 0x131E JUMP JUMPDEST PUSH2 0x1338 DUP2 DUP5 DUP5 PUSH2 0x12F9 JUMP JUMPDEST POP POP POP JUMP JUMPDEST JUMPDEST DUP2 DUP2 LT ISZERO PUSH2 0x135B JUMPI PUSH2 0x1350 PUSH0 DUP3 PUSH2 0x1325 JUMP JUMPDEST PUSH1 0x1 DUP2 ADD SWAP1 POP PUSH2 0x133E JUMP JUMPDEST POP POP JUMP JUMPDEST PUSH1 0x1F DUP3 GT ISZERO PUSH2 0x13A0 JUMPI PUSH2 0x1371 DUP2 PUSH2 0x1248 JUMP JUMPDEST PUSH2 0x137A DUP5 PUSH2 0x125A JUMP JUMPDEST DUP2 ADD PUSH1 0x20 DUP6 LT ISZERO PUSH2 0x1389 JUMPI DUP2 SWAP1 POP JUMPDEST PUSH2 0x139D PUSH2 0x1395 DUP6 PUSH2 0x125A JUMP JUMPDEST DUP4 ADD DUP3 PUSH2 0x133D JUMP JUMPDEST POP POP JUMPDEST POP POP POP JUMP JUMPDEST PUSH0 DUP3 DUP3 SHR SWAP1 POP SWAP3 SWAP2 POP POP JUMP JUMPDEST PUSH0 PUSH2 0x13C0 PUSH0 NOT DUP5 PUSH1 0x8 MUL PUSH2 0x13A5 JUMP JUMPDEST NOT DUP1 DUP4 AND SWAP2 POP POP SWAP3 SWAP2 POP POP JUMP JUMPDEST PUSH0 PUSH2 0x13D8 DUP4 DUP4 PUSH2 0x13B1 JUMP JUMPDEST SWAP2 POP DUP3 PUSH1 0x2 MUL DUP3 OR SWAP1 POP SWAP3 SWAP2 POP POP JUMP JUMPDEST PUSH2 0x13F1 DUP3 PUSH2 0xFCC JUMP JUMPDEST PUSH8 0xFFFFFFFFFFFFFFFF DUP2 GT ISZERO PUSH2 0x140A JUMPI PUSH2 0x1409 PUSH2 0xD02 JUMP JUMPDEST JUMPDEST PUSH2 0x1414 DUP3 SLOAD PUSH2 0x1218 JUMP JUMPDEST PUSH2 0x141F DUP3 DUP3 DUP6 PUSH2 0x135F JUMP JUMPDEST PUSH0 PUSH1 0x20 SWAP1 POP PUSH1 0x1F DUP4 GT PUSH1 0x1 DUP2 EQ PUSH2 0x1450 JUMPI PUSH0 DUP5 ISZERO PUSH2 0x143E JUMPI DUP3 DUP8 ADD MLOAD SWAP1 POP JUMPDEST PUSH2 0x1448 DUP6 DUP3 PUSH2 0x13CD JUMP JUMPDEST DUP7 SSTORE POP PUSH2 0x14AF JUMP JUMPDEST PUSH1 0x1F NOT DUP5 AND PUSH2 0x145E DUP7 PUSH2 0x1248 JUMP JUMPDEST PUSH0 JUMPDEST DUP3 DUP2 LT ISZERO PUSH2 0x1485 JUMPI DUP5 DUP10 ADD MLOAD DUP3 SSTORE PUSH1 0x1 DUP3 ADD SWAP2 POP PUSH1 0x20 DUP6 ADD SWAP5 POP PUSH1 0x20 DUP2 ADD SWAP1 POP PUSH2 0x1460 JUMP JUMPDEST DUP7 DUP4 LT ISZERO PUSH2 0x14A2 JUMPI DUP5 DUP10 ADD MLOAD PUSH2 0x149E PUSH1 0x1F DUP10 AND DUP3 PUSH2 0x13B1 JUMP JUMPDEST DUP4 SSTORE POP JUMPDEST PUSH1 0x1 PUSH1 0x2 DUP9 MUL ADD DUP9 SSTORE POP POP POP JUMPDEST POP POP POP POP POP POP JUMP JUMPDEST PUSH32 0x696E636F72726563742067616D65496400000000000000000000000000000000 PUSH0 DUP3 ADD MSTORE POP JUMP JUMPDEST PUSH0 PUSH2 0x14EB PUSH1 0x10 DUP4 PUSH2 0xFD6 JUMP JUMPDEST SWAP2 POP PUSH2 0x14F6 DUP3 PUSH2 0x14B7 JUMP JUMPDEST PUSH1 0x20 DUP3 ADD SWAP1 POP SWAP2 SWAP1 POP JUMP JUMPDEST PUSH0 PUSH1 0x20 DUP3 ADD SWAP1 POP DUP2 DUP2 SUB PUSH0 DUP4 ADD MSTORE PUSH2 0x1518 DUP2 PUSH2 0x14DF JUMP JUMPDEST SWAP1 POP SWAP2 SWAP1 POP JUMP JUMPDEST PUSH32 0x616C726561647920766F74650000000000000000000000000000000000000000 PUSH0 DUP3 ADD MSTORE POP JUMP JUMPDEST PUSH0 PUSH2 0x1553 PUSH1 0xC DUP4 PUSH2 0xFD6 JUMP JUMPDEST SWAP2 POP PUSH2 0x155E DUP3 PUSH2 0x151F JUMP JUMPDEST PUSH1 0x20 DUP3 ADD SWAP1 POP SWAP2 SWAP1 POP JUMP JUMPDEST PUSH0 PUSH1 0x20 DUP3 ADD SWAP1 POP DUP2 DUP2 SUB PUSH0 DUP4 ADD MSTORE PUSH2 0x1580 DUP2 PUSH2 0x1547 JUMP JUMPDEST SWAP1 POP SWAP2 SWAP1 POP JUMP JUMPDEST PUSH32 0x4E487B7100000000000000000000000000000000000000000000000000000000 PUSH0 MSTORE PUSH1 0x21 PUSH1 0x4 MSTORE PUSH1 0x24 PUSH0 REVERT INVALID LOG2 PUSH5 0x6970667358 0x22 SLT KECCAK256 SWAP16 PUSH5 0x65166388D5 0xD2 0xDD SHL 0xDD SELFBALANCE 0xAE 0xB8 0xB6 TIMESTAMP DUP6 SWAP4 0xFC 0xED SWAP6 0xDF SWAP6 MSTORE8 0xAC DUP5 0xA7 0xD4 CALLCODE 0xC2 SLOAD PUSH17 0x64736F6C634300081E0033000000000000 "
				},
				"gasEstimates": {
					"creation": {
						"codeDepositCost": "1122000",
						"executionCost": "infinite",
						"totalCost": "infinite"
					},
					"external": {
						"COST()": "infinite",
						"GAMEINDEX()": "2426",
						"createVote(string,string,uint256)": "infinite",
						"findGameById(uint256)": "infinite",
						"owner()": "2581",
						"renounceOwnership()": "infinite",
						"transferOwnership(address)": "infinite",
						"vote(uint256,uint8)": "infinite",
						"whiteList(address)": "2856",
						"whitelistUpdate(address,bool)": "infinite"
					}
				},
				"methodIdentifiers": {
					"COST()": "bf8fbbd2",
					"GAMEINDEX()": "301ed59e",
					"createVote(string,string,uint256)": "937cabed",
					"findGameById(uint256)": "f24f9459",
					"owner()": "8da5cb5b",
					"renounceOwnership()": "715018a6",
					"transferOwnership(address)": "f2fde38b",
					"vote(uint256,uint8)": "943e8216",
					"whiteList(address)": "372c12b1",
					"whitelistUpdate(address,bool)": "dbf65de0"
				}
			},
			"storageLayout": {
				"storage": [
					{
						"astId": 8,
						"contract": "BalanceGame.sol:BalanceGame",
						"label": "_owner",
						"offset": 0,
						"slot": "0",
						"type": "t_address"
					},
					{
						"astId": 207,
						"contract": "BalanceGame.sol:BalanceGame",
						"label": "GAMEINDEX",
						"offset": 0,
						"slot": "1",
						"type": "t_uint256"
					},
					{
						"astId": 229,
						"contract": "BalanceGame.sol:BalanceGame",
						"label": "findGameById",
						"offset": 0,
						"slot": "2",
						"type": "t_mapping(t_uint256,t_struct(Game)202_storage)"
					},
					{
						"astId": 235,
						"contract": "BalanceGame.sol:BalanceGame",
						"label": "voteList",
						"offset": 0,
						"slot": "3",
						"type": "t_mapping(t_uint256,t_mapping(t_address,t_bool))"
					},
					{
						"astId": 239,
						"contract": "BalanceGame.sol:BalanceGame",
						"label": "whiteList",
						"offset": 0,
						"slot": "4",
						"type": "t_mapping(t_address,t_bool)"
					}
				],
				"types": {
					"t_address": {
						"encoding": "inplace",
						"label": "address",
						"numberOfBytes": "20"
					},
					"t_bool": {
						"encoding": "inplace",
						"label": "bool",
						"numberOfBytes": "1"
					},
					"t_mapping(t_address,t_bool)": {
						"encoding": "mapping",
						"key": "t_address",
						"label": "mapping(address => bool)",
						"numberOfBytes": "32",
						"value": "t_bool"
					},
					"t_mapping(t_uint256,t_mapping(t_address,t_bool))": {
						"encoding": "mapping",
						"key": "t_uint256",
						"label": "mapping(uint256 => mapping(address => bool))",
						"numberOfBytes": "32",
						"value": "t_mapping(t_address,t_bool)"
					},
					"t_mapping(t_uint256,t_struct(Game)202_storage)": {
						"encoding": "mapping",
						"key": "t_uint256",
						"label": "mapping(uint256 => struct BalanceGame.Game)",
						"numberOfBytes": "32",
						"value": "t_struct(Game)202_storage"
					},
					"t_string_storage": {
						"encoding": "bytes",
						"label": "string",
						"numberOfBytes": "32"
					},
					"t_struct(Game)202_storage": {
						"encoding": "inplace",
						"label": "struct BalanceGame.Game",
						"members": [
							{
								"astId": 189,
								"contract": "BalanceGame.sol:BalanceGame",
								"label": "id",
								"offset": 0,
								"slot": "0",
								"type": "t_uint256"
							},
							{
								"astId": 191,
								"contract": "BalanceGame.sol:BalanceGame",
								"label": "questionA",
								"offset": 0,
								"slot": "1",
								"type": "t_string_storage"
							},
							{
								"astId": 193,
								"contract": "BalanceGame.sol:BalanceGame",
								"label": "questionB",
								"offset": 0,
								"slot": "2",
								"type": "t_string_storage"
							},
							{
								"astId": 195,
								"contract": "BalanceGame.sol:BalanceGame",
								"label": "voteCountA",
								"offset": 0,
								"slot": "3",
								"type": "t_uint256"
							},
							{
								"astId": 197,
								"contract": "BalanceGame.sol:BalanceGame",
								"label": "voteCountB",
								"offset": 0,
								"slot": "4",
								"type": "t_uint256"
							},
							{
								"astId": 199,
								"contract": "BalanceGame.sol:BalanceGame",
								"label": "deadline",
								"offset": 0,
								"slot": "5",
								"type": "t_uint256"
							},
							{
								"astId": 201,
								"contract": "BalanceGame.sol:BalanceGame",
								"label": "creator",
								"offset": 0,
								"slot": "6",
								"type": "t_address"
							}
						],
						"numberOfBytes": "224"
					},
					"t_uint256": {
						"encoding": "inplace",
						"label": "uint256",
						"numberOfBytes": "32"
					}
				}
			},
			"userdoc": {
				"kind": "user",
				"methods": {},
				"version": 1
			}
		}
	}
}