{
    "contractName": "BalanceGame",
    "abi": [
        {
            "inputs": [
                {
                    "internalType": "uint256",
                    "name": "_cost",
                    "type": "uint256"
                },
                {
                    "internalType": "uint256",
                    "name": "_subscriptionId",
                    "type": "uint256"
                }
            ],
            "stateMutability": "nonpayable",
            "type": "constructor"
        },
        {
            "inputs": [
                {
                    "internalType": "address",
                    "name": "have",
                    "type": "address"
                },
                {
                    "internalType": "address",
                    "name": "want",
                    "type": "address"
                }
            ],
            "name": "OnlyCoordinatorCanFulfill",
            "type": "error"
        },
        {
            "inputs": [
                {
                    "internalType": "address",
                    "name": "have",
                    "type": "address"
                },
                {
                    "internalType": "address",
                    "name": "owner",
                    "type": "address"
                },
                {
                    "internalType": "address",
                    "name": "coordinator",
                    "type": "address"
                }
            ],
            "name": "OnlyOwnerOrCoordinator",
            "type": "error"
        },
        {
            "inputs": [],
            "name": "ZeroAddress",
            "type": "error"
        },
        {
            "anonymous": false,
            "inputs": [
                {
                    "indexed": true,
                    "internalType": "uint256",
                    "name": "gameId",
                    "type": "uint256"
                },
                {
                    "indexed": false,
                    "internalType": "address",
                    "name": "claimAddress",
                    "type": "address"
                },
                {
                    "indexed": false,
                    "internalType": "uint256",
                    "name": "amount",
                    "type": "uint256"
                }
            ],
            "name": "ClaimPool",
            "type": "event"
        },
        {
            "anonymous": false,
            "inputs": [
                {
                    "indexed": false,
                    "internalType": "address",
                    "name": "vrfCoordinator",
                    "type": "address"
                }
            ],
            "name": "CoordinatorSet",
            "type": "event"
        },
        {
            "anonymous": false,
            "inputs": [
                {
                    "indexed": true,
                    "internalType": "uint256",
                    "name": "gameId",
                    "type": "uint256"
                },
                {
                    "indexed": false,
                    "internalType": "string",
                    "name": "questionA",
                    "type": "string"
                },
                {
                    "indexed": false,
                    "internalType": "string",
                    "name": "questionB",
                    "type": "string"
                },
                {
                    "indexed": false,
                    "internalType": "uint256",
                    "name": "createdAt",
                    "type": "uint256"
                },
                {
                    "indexed": false,
                    "internalType": "uint256",
                    "name": "deadline",
                    "type": "uint256"
                },
                {
                    "indexed": true,
                    "internalType": "address",
                    "name": "creator",
                    "type": "address"
                }
            ],
            "name": "NewGame",
            "type": "event"
        },
        {
            "anonymous": false,
            "inputs": [
                {
                    "indexed": true,
                    "internalType": "uint256",
                    "name": "gameId",
                    "type": "uint256"
                },
                {
                    "indexed": true,
                    "internalType": "address",
                    "name": "votedAddress",
                    "type": "address"
                },
                {
                    "indexed": false,
                    "internalType": "enum BalanceGame.VoteOption",
                    "name": "VoteOption",
                    "type": "uint8"
                },
                {
                    "indexed": false,
                    "internalType": "uint256",
                    "name": "votedAt",
                    "type": "uint256"
                }
            ],
            "name": "NewVote",
            "type": "event"
        },
        {
            "anonymous": false,
            "inputs": [
                {
                    "indexed": true,
                    "internalType": "uint256",
                    "name": "gameId",
                    "type": "uint256"
                },
                {
                    "indexed": false,
                    "internalType": "address",
                    "name": "rank1",
                    "type": "address"
                },
                {
                    "indexed": false,
                    "internalType": "address",
                    "name": "rank2",
                    "type": "address"
                },
                {
                    "indexed": false,
                    "internalType": "address",
                    "name": "rank3",
                    "type": "address"
                }
            ],
            "name": "NewWinner",
            "type": "event"
        },
        {
            "anonymous": false,
            "inputs": [
                {
                    "indexed": true,
                    "internalType": "address",
                    "name": "from",
                    "type": "address"
                },
                {
                    "indexed": true,
                    "internalType": "address",
                    "name": "to",
                    "type": "address"
                }
            ],
            "name": "OwnershipTransferRequested",
            "type": "event"
        },
        {
            "anonymous": false,
            "inputs": [
                {
                    "indexed": true,
                    "internalType": "address",
                    "name": "from",
                    "type": "address"
                },
                {
                    "indexed": true,
                    "internalType": "address",
                    "name": "to",
                    "type": "address"
                }
            ],
            "name": "OwnershipTransferred",
            "type": "event"
        },
        {
            "anonymous": false,
            "inputs": [
                {
                    "indexed": true,
                    "internalType": "address",
                    "name": "userAddress",
                    "type": "address"
                },
                {
                    "indexed": false,
                    "internalType": "bool",
                    "name": "status",
                    "type": "bool"
                }
            ],
            "name": "WhiteListUpdate",
            "type": "event"
        },
        {
            "anonymous": false,
            "inputs": [
                {
                    "indexed": false,
                    "internalType": "uint256",
                    "name": "f",
                    "type": "uint256"
                }
            ],
            "name": "f",
            "type": "event"
        },
        {
            "anonymous": false,
            "inputs": [
                {
                    "indexed": false,
                    "internalType": "uint256",
                    "name": "requestId",
                    "type": "uint256"
                },
                {
                    "indexed": false,
                    "internalType": "uint256",
                    "name": "random1",
                    "type": "uint256"
                },
                {
                    "indexed": false,
                    "internalType": "uint256",
                    "name": "random2",
                    "type": "uint256"
                },
                {
                    "indexed": false,
                    "internalType": "uint256",
                    "name": "random3",
                    "type": "uint256"
                }
            ],
            "name": "logs",
            "type": "event"
        },
        {
            "stateMutability": "payable",
            "type": "fallback"
        },
        {
            "inputs": [],
            "name": "COST",
            "outputs": [
                {
                    "internalType": "uint256",
                    "name": "",
                    "type": "uint256"
                }
            ],
            "stateMutability": "view",
            "type": "function"
        },
        {
            "inputs": [],
            "name": "acceptOwnership",
            "outputs": [],
            "stateMutability": "nonpayable",
            "type": "function"
        },
        {
            "inputs": [
                {
                    "internalType": "uint256",
                    "name": "_gameId",
                    "type": "uint256"
                }
            ],
            "name": "checkWinner",
            "outputs": [],
            "stateMutability": "nonpayable",
            "type": "function"
        },
        {
            "inputs": [
                {
                    "internalType": "uint256",
                    "name": "_gameId",
                    "type": "uint256"
                }
            ],
            "name": "claimPool",
            "outputs": [],
            "stateMutability": "payable",
            "type": "function"
        },
        {
            "inputs": [
                {
                    "internalType": "string",
                    "name": "_questionA",
                    "type": "string"
                },
                {
                    "internalType": "string",
                    "name": "_questionB",
                    "type": "string"
                },
                {
                    "internalType": "uint256",
                    "name": "_deadline",
                    "type": "uint256"
                }
            ],
            "name": "createGame",
            "outputs": [],
            "stateMutability": "payable",
            "type": "function"
        },
        {
            "inputs": [],
            "name": "gameIndex",
            "outputs": [
                {
                    "internalType": "uint256",
                    "name": "",
                    "type": "uint256"
                }
            ],
            "stateMutability": "view",
            "type": "function"
        },
        {
            "inputs": [
                {
                    "internalType": "uint256",
                    "name": "_gameId",
                    "type": "uint256"
                }
            ],
            "name": "getGameInfo",
            "outputs": [
                {
                    "internalType": "uint256",
                    "name": "id",
                    "type": "uint256"
                },
                {
                    "internalType": "string",
                    "name": "questionA",
                    "type": "string"
                },
                {
                    "internalType": "string",
                    "name": "questionB",
                    "type": "string"
                },
                {
                    "internalType": "uint256",
                    "name": "voteCountA",
                    "type": "uint256"
                },
                {
                    "internalType": "uint256",
                    "name": "voteCountB",
                    "type": "uint256"
                },
                {
                    "internalType": "uint256",
                    "name": "totalpool",
                    "type": "uint256"
                },
                {
                    "internalType": "uint256",
                    "name": "createAt",
                    "type": "uint256"
                },
                {
                    "internalType": "uint256",
                    "name": "deadline",
                    "type": "uint256"
                },
                {
                    "internalType": "address",
                    "name": "creator",
                    "type": "address"
                },
                {
                    "internalType": "bool",
                    "name": "creatorClaimed",
                    "type": "bool"
                }
            ],
            "stateMutability": "view",
            "type": "function"
        },
        {
            "inputs": [
                {
                    "internalType": "uint256",
                    "name": "_gameId",
                    "type": "uint256"
                }
            ],
            "name": "getGameWinner",
            "outputs": [
                {
                    "internalType": "address[3]",
                    "name": "winners",
                    "type": "address[3]"
                },
                {
                    "internalType": "bool[3]",
                    "name": "winnersClaimed",
                    "type": "bool[3]"
                }
            ],
            "stateMutability": "view",
            "type": "function"
        },
        {
            "inputs": [
                {
                    "internalType": "address",
                    "name": "",
                    "type": "address"
                }
            ],
            "name": "isContinue",
            "outputs": [
                {
                    "internalType": "bool",
                    "name": "",
                    "type": "bool"
                }
            ],
            "stateMutability": "view",
            "type": "function"
        },
        {
            "inputs": [],
            "name": "owner",
            "outputs": [
                {
                    "internalType": "address",
                    "name": "",
                    "type": "address"
                }
            ],
            "stateMutability": "view",
            "type": "function"
        },
        {
            "inputs": [
                {
                    "internalType": "uint256",
                    "name": "requestId",
                    "type": "uint256"
                },
                {
                    "internalType": "uint256[]",
                    "name": "randomWords",
                    "type": "uint256[]"
                }
            ],
            "name": "rawFulfillRandomWords",
            "outputs": [],
            "stateMutability": "nonpayable",
            "type": "function"
        },
        {
            "inputs": [
                {
                    "internalType": "uint256",
                    "name": "",
                    "type": "uint256"
                }
            ],
            "name": "requestIdToGameId",
            "outputs": [
                {
                    "internalType": "uint256",
                    "name": "",
                    "type": "uint256"
                }
            ],
            "stateMutability": "view",
            "type": "function"
        },
        {
            "inputs": [],
            "name": "s_vrfCoordinator",
            "outputs": [
                {
                    "internalType": "contract IVRFCoordinatorV2Plus",
                    "name": "",
                    "type": "address"
                }
            ],
            "stateMutability": "view",
            "type": "function"
        },
        {
            "inputs": [
                {
                    "internalType": "address",
                    "name": "_vrfCoordinator",
                    "type": "address"
                }
            ],
            "name": "setCoordinator",
            "outputs": [],
            "stateMutability": "nonpayable",
            "type": "function"
        },
        {
            "inputs": [
                {
                    "internalType": "address",
                    "name": "to",
                    "type": "address"
                }
            ],
            "name": "transferOwnership",
            "outputs": [],
            "stateMutability": "nonpayable",
            "type": "function"
        },
        {
            "inputs": [
                {
                    "internalType": "uint256",
                    "name": "_gameId",
                    "type": "uint256"
                },
                {
                    "internalType": "enum BalanceGame.VoteOption",
                    "name": "_voteOption",
                    "type": "uint8"
                }
            ],
            "name": "vote",
            "outputs": [],
            "stateMutability": "payable",
            "type": "function"
        },
        {
            "inputs": [
                {
                    "internalType": "address",
                    "name": "",
                    "type": "address"
                }
            ],
            "name": "whiteList",
            "outputs": [
                {
                    "internalType": "bool",
                    "name": "",
                    "type": "bool"
                }
            ],
            "stateMutability": "view",
            "type": "function"
        },
        {
            "inputs": [
                {
                    "internalType": "address",
                    "name": "_newAddress",
                    "type": "address"
                },
                {
                    "internalType": "bool",
                    "name": "_status",
                    "type": "bool"
                }
            ],
            "name": "whitelistUpdate",
            "outputs": [],
            "stateMutability": "nonpayable",
            "type": "function"
        },
        {
            "stateMutability": "payable",
            "type": "receive"
        }
    ],
    "bytecode": "60a03461018257601f6118bd38819003918201601f19168301916001600160401b0383118484101761018657808492604094855283398101031261018257602081519101519060055460018060a01b03811690331561013d575f80546001600160a01b03191633179055811561012e57600280546001600160a01b031990811690931790555f60038190559116739ddfaca8183c41ad55329bdeed9f6a8d53168b1b176005557f787d74caea10b2b357790d5b5247c2f63d1d91572a9846f780606e4d953677ae60065560078054660300030003d0906001600160501b031991909116179055608091909152338152600b602052604090819020805460ff1916600117905560049190915551611722908161019b823960805181818161039a0152818161040501526106640152f35b63d92e233d60e01b5f5260045ffd5b60405162461bcd60e51b815260206004820152601860248201527f43616e6e6f7420736574206f776e657220746f207a65726f00000000000000006044820152606490fd5b5f80fd5b634e487b7160e01b5f52604160045260245ffdfe60806040526004361015610050575b361561004e5760405162461bcd60e51b8152602060048201526012602482015271199d5b98dd1a5bdb881b9bdd08199bdd5b9960721b6044820152606490fd5b005b5f3560e01c806318854939146112325780631fa072db146112085780631fe543e314611128578063372c12b1146110eb5780634120c2c3146110ae57806347e1d55014610feb5780635654a34114610fce578063795d121c14610b6857806379ba509714610abd5780638da5cb5b14610a965780638ea98117146109c557806391898efd1461060f578063943e8216146103e55780639eccacf6146103bd578063bf8fbbd214610383578063dbf65de014610306578063f2fde38b1461024b5763fac20ab80361000e57346102475760203660031901126102475760608060405161013b8282611438565b3690378060405161014c8282611438565b3690376004355f9081526008602052604090206009810154610178906001600160a01b031615156115d5565b60405191600a82015f845b60038210610227575050506101988184611438565b60ff600d60405193015481811615158452818160081c161515602085015260101c16151560408301526101cb8183611438565b604051925f845b600382106102075750505082015f905b600382106101ef5760c084f35b602080600192855115158152019301910190916101e2565b82516001600160a01b0316815260209283019260019290920191016101d2565b82546001600160a01b031681526001928301929190910190602001610183565b5f80fd5b34610247576020366003190112610247576102646113fe565b61026c61169b565b6001600160a01b03163381146102c157600180546001600160a01b031916821790555f80546001600160a01b0316907fed8889f560326eb138920d842192f0eb3dd22b4f139c87a2c57538e05bae12789080a3005b60405162461bcd60e51b815260206004820152601760248201527f43616e6e6f74207472616e7366657220746f2073656c660000000000000000006044820152606490fd5b346102475760403660031901126102475761031f6113fe565b602435908115158092036102475760207f111b0cdde6a17355dbeb5ce9b87078297fec9b61b51550540b0d4e2f1e4913c29161035961169b565b60018060a01b031692835f52600b825260405f2060ff1981541660ff8316179055604051908152a2005b34610247575f3660031901126102475760206040517f00000000000000000000000000000000000000000000000000000000000000008152f35b34610247575f366003190112610247576002546040516001600160a01b039091168152602090f35b60403660031901126102475760243560043560028210156102475761042c7f0000000000000000000000000000000000000000000000000000000000000000341015611650565b335f52600b60205261044460ff60405f2054166114bc565b5f818152600860205260409020600981015461046a906001600160a01b031615156115d5565b60088101544210156105ca575f82815260096020908152604080832033845290915290205460ff16610595575f8281526009602090815260408083203384529091529020805460ff1916600117905560058101805490919068010000000000000000811015610581576001810180845581101561056d576006925f5260205f2001336001600160601b0360a01b82541617905583155f146105585760038101610513815461168d565b90555b01610522348254611643565b90556040519182524260208301527f1e0fe1254db3085e2d17ea9aaaf4c977c4468c0a905b2062b9ab12cf4d72873d60403393a3005b60048101610566815461168d565b9055610516565b634e487b7160e01b5f52603260045260245ffd5b634e487b7160e01b5f52604160045260245ffd5b60405162461bcd60e51b815260206004820152600d60248201526c185b1c9958591e481d9bdd1959609a1b6044820152606490fd5b60405162461bcd60e51b815260206004820152601a60248201527f546869732067616d652069732066696e69736865642067616d650000000000006044820152606490fd5b60603660031901126102475760043567ffffffffffffffff81116102475761063b903690600401611476565b60243567ffffffffffffffff81116102475761065b903690600401611476565b6044359061068b7f0000000000000000000000000000000000000000000000000000000000000000341015611650565b335f52600b6020526106a360ff60405f2054166114bc565b8142101561098d576106b660035461168d565b9283600355835f52600860205260405f2093845560018401815167ffffffffffffffff8111610581576106e982546114fd565b601f8111610948575b50806020601f82116001146108e7575f916108dc575b508160011b915f199060031b1c19161790555b8151936002810167ffffffffffffffff86116105815761073b81546114fd565b601f8111610897575b50602095601f8111600114610811579081600993927fcbde3b6aaff8db70570d01419d7386d20dd4784e18776528bcee9c165bf2b9a39697985f91610806575b508160011b915f199060031b1c19161790555b5f60038201555f60048201555f600682015542600782015585600882015501336001600160601b0360a01b8254161790556107f2600354936107e460405193608085526080850190611414565b908382036020850152611414565b9342604083015260608201528033940390a3005b905087015189610784565b601f198116825f52875f20905f5b81811061087f5750916001917fcbde3b6aaff8db70570d01419d7386d20dd4784e18776528bcee9c165bf2b9a397989982600997969510610867575b5050811b019055610797565b8901515f1960f88460031b161c19169055898061085b565b878a015183556020998a01996001909301920161081f565b815f5260205f20601f880160051c810191602089106108d2575b601f0160051c01905b8181106108c75750610744565b5f81556001016108ba565b90915081906108b1565b905083015187610708565b5f8481528181209250601f198416905b81811061093057509083600194939210610918575b5050811b01905561071b565b8501515f1960f88460031b161c19169055878061090c565b9192602060018192868a0151815501940192016108f7565b825f5260205f20601f830160051c81019160208410610983575b601f0160051c01905b81811061097857506106f2565b5f815560010161096b565b9091508190610962565b60405162461bcd60e51b815260206004820152601060248201526f696e76616c696420646561646c696e6560801b6044820152606490fd5b34610247576020366003190112610247576109de6113fe565b5f546001600160a01b03163381141580610a81575b610a5757506001600160a01b03168015610a48576020817fd1a6a14209a385a964d036e404cb5cfb71f4000cdb03c9366292430787261be6926001600160601b0360a01b6002541617600255604051908152a1005b63d92e233d60e01b5f5260045ffd5b60025463061db9c160e01b5f908152336004526024929092526001600160a01b0316604452606490fd5b506002546001600160a01b03163314156109f3565b34610247575f366003190112610247575f546040516001600160a01b039091168152602090f35b34610247575f366003190112610247576001546001600160a01b0381163303610b2a575f80546001600160a01b031980821633908117845593166001556001600160a01b0316907f8be0079c531659141344cd1fd0a4f28419497f9722a3daafe3b4186f6b6457e09080a3005b60405162461bcd60e51b815260206004820152601660248201527526bab9ba10313290383937b837b9b2b21037bbb732b960511b6044820152606490fd5b6020366003190112610247576004355f9081526008602052604090206009810180546001600160a01b03169190610ba08315156115d5565b6008820154421115610f8957600a820180549091906001600160a01b03168015610f555733148015610f3f575b8015610f29575b8015610f20575b15610eb5575f933314610dff575b50545f906001600160a01b03163303610dc557505f915b60ff831680610d645750600682015490602d820291808304602d1490151715610d50576064610c30920490611643565b335f52600a60205260ff60405f205416610d25575b5f80808084335af1610c55611614565b5015610cee57815460408051338152602081019390935290917fceeaf2d44fcf6a9f73e8f5367a25e85b3cfd370f39a916cbf1ba7413ea7523229190a2335f52600a60205260ff60405f205416610cd5575b600382101561056d57600d908260051c01019060f882549160031b169060ff6001831b921b19161790555f80f35b335f52600a60205260405f2060ff198154169055610ca7565b60405162461bcd60e51b815260206004820152600f60248201526e1d1c985b9cd85d1a5bdb8819985a5b608a1b6044820152606490fd5b600682015490600582029180830460051490151715610d50576064610d4b920490611643565b610c45565b634e487b7160e01b5f52601160045260245ffd5b60018103610d985750600682015490601982029180830460191490151715610d50576064610d93920490611643565b610c30565b600203610c3057600682015490601482029180830460141490151715610d50576064610d93920490611643565b600b8201546001600160a01b03163303610de25750600191610c00565b913360018060a01b03600c8401541603610c005760029250610c00565b92506006820154600581029080820460051490151715610d505760649004925f80808087335af1610e2e611614565b5015610e7f57805460ff60a01b1916600160a01b179055815460408051338152602081018690527fceeaf2d44fcf6a9f73e8f5367a25e85b3cfd370f39a916cbf1ba7413ea7523229190a283610be9565b60405162461bcd60e51b815260206004820152600e60248201526d18db185a5b541bdbdb0819985a5b60921b6044820152606490fd5b60405162461bcd60e51b815260206004820152603960248201527f4f6e6c7920612077696e6e6572206f72207468652067616d652063726561746f60448201527f72206d61792063616c6c20746869732066756e6374696f6e2e000000000000006064820152608490fd5b50338414610bdb565b50600c8301546001600160a01b03163314610bd4565b50600b8301546001600160a01b03163314610bcd565b60405162461bcd60e51b815260206004820152600c60248201526b191c985dc81b9bdd081e595d60a21b6044820152606490fd5b60405162461bcd60e51b815260206004820152601760248201527f546869732067616d65206973206e6f742066696e6973680000000000000000006044820152606490fd5b34610247575f366003190112610247576020600354604051908152f35b34610247576020366003190112610247576004355f52600860205260405f208054600382015460ff600484015460068501546007860154600887015491600988015493611075611049600261104260018d01611535565b9b01611535565b6110676040519b8c9b8c5261014060208d01526101408c0190611414565b908a820360408c0152611414565b966060890152608088015260a087015260c086015260e085015260018060a01b03811661010085015260a01c1615156101208301520390f35b34610247576020366003190112610247576001600160a01b036110cf6113fe565b165f52600a602052602060ff60405f2054166040519015158152f35b34610247576020366003190112610247576001600160a01b0361110c6113fe565b165f52600b602052602060ff60405f2054166040519015158152f35b346102475760403660031901126102475760243567ffffffffffffffff8111610247573660238201121561024757806004013567ffffffffffffffff8111610247573660248260051b84010111610247576002546001600160a01b0316338190036111f25750801561056d57806001101561056d576002101561056d5760807f1fbac40d32ae8076bc4169e4c282bc9021cd0453f034616a61238dbc5d3af902916064604051916004358352602481013560208401526044810135604084015201356060820152a1005b63073e64fd60e21b5f523360045260245260445ffd5b34610247576020366003190112610247576004355f52600c602052602060405f2054604051908152f35b3461024757602036600319011261024757335f52600b60205261125b60ff60405f2054166114bc565b61126361169b565b60018060a01b0360025416600654906004549060075490604051926020840184811067ffffffffffffffff821117610581576040525f84526040519363125fa26760e31b60208601525115156024850152602484526112c3604485611438565b6040519460c086019580871067ffffffffffffffff881117610581576113716020965f9361ffff99604052835287830194855263ffffffff60408401978a818b1c1689528160608601818316815281608088019360301c16835260a087019485526040519c8d9b8c9a8b99634d8e1c2f60e11b8b528f60048c01525160248b01525160448a01525116606488015251166084860152511660a48401525160c060c484015260e4830190611414565b03925af19081156113f3575f916113c1575b507fb3de648b001c08ab857afe5a9633887e7a4e2a429d1d8d4231238c1ffaeb256f6020604051838152a15f52600c60205260043560405f20555f80f35b90506020813d6020116113eb575b816113dc60209383611438565b81010312610247575181611383565b3d91506113cf565b6040513d5f823e3d90fd5b600435906001600160a01b038216820361024757565b805180835260209291819084018484015e5f828201840152601f01601f1916010190565b90601f8019910116810190811067ffffffffffffffff82111761058157604052565b67ffffffffffffffff811161058157601f01601f191660200190565b81601f820112156102475780359061148d8261145a565b9261149b6040519485611438565b8284526020838301011161024757815f926020809301838601378301015290565b156114c357565b60405162461bcd60e51b81526020600482015260126024820152711bdb9b1e481d5cd94815da1a5d195b1a5cdd60721b6044820152606490fd5b90600182811c9216801561152b575b602083101461151757565b634e487b7160e01b5f52602260045260245ffd5b91607f169161150c565b9060405191825f825492611548846114fd565b80845293600181169081156115b3575060011461156f575b5061156d92500383611438565b565b90505f9291925260205f20905f915b81831061159757505090602061156d928201015f611560565b602091935080600191548385890101520191019091849261157e565b90506020925061156d94915060ff191682840152151560051b8201015f611560565b156115dc57565b60405162461bcd60e51b815260206004820152601060248201526f1a5b98dbdc9c9958dd0819d85b59525960821b6044820152606490fd5b3d1561163e573d906116258261145a565b916116336040519384611438565b82523d5f602084013e565b606090565b91908201809211610d5057565b1561165757565b60405162461bcd60e51b815260206004820152600e60248201526d4e6f7420456e6f7567682066656560901b6044820152606490fd5b5f198114610d505760010190565b5f546001600160a01b031633036116ae57565b60405162461bcd60e51b815260206004820152601660248201527527b7363c9031b0b63630b1363290313c9037bbb732b960511b6044820152606490fdfea2646970667358221220d3a68859a054e276546c608d9e9f77d8cdab72c1fa8c411ce3d38003d1ede4fc64736f6c634300081e0033",
    "sourcePath": "c:/Users/Baekho/balance-game-smartcontract/contracts/BalanceGame.sol",
    "compiler": {
        "name": "solc",
        "version": "0.8.30+commit.73712a01"
    },
    "functionHashes": {
        "COST()": "bf8fbbd2",
        "acceptOwnership()": "79ba5097",
        "checkWinner(uint256)": "18854939",
        "claimPool(uint256)": "795d121c",
        "createGame(string,string,uint256)": "91898efd",
        "gameIndex()": "5654a341",
        "getGameInfo(uint256)": "47e1d550",
        "getGameWinner(uint256)": "fac20ab8",
        "isContinue(address)": "4120c2c3",
        "owner()": "8da5cb5b",
        "rawFulfillRandomWords(uint256,uint256[])": "1fe543e3",
        "requestIdToGameId(uint256)": "1fa072db",
        "s_vrfCoordinator()": "9eccacf6",
        "setCoordinator(address)": "8ea98117",
        "transferOwnership(address)": "f2fde38b",
        "vote(uint256,uint8)": "943e8216",
        "whiteList(address)": "372c12b1",
        "whitelistUpdate(address,bool)": "dbf65de0"
    },
    "gasEstimates": {
        "creation": {
            "codeDepositCost": "1184400",
            "executionCost": "infinite",
            "totalCost": "infinite"
        },
        "external": {
            "": "559",
            "COST()": "infinite",
            "acceptOwnership()": "50324",
            "checkWinner(uint256)": "infinite",
            "claimPool(uint256)": "infinite",
            "createGame(string,string,uint256)": "infinite",
            "gameIndex()": "2380",
            "getGameInfo(uint256)": "infinite",
            "getGameWinner(uint256)": "infinite",
            "isContinue(address)": "2498",
            "owner()": "2469",
            "rawFulfillRandomWords(uint256,uint256[])": "4398",
            "requestIdToGameId(uint256)": "2335",
            "s_vrfCoordinator()": "2558",
            "setCoordinator(address)": "30030",
            "transferOwnership(address)": "30619",
            "vote(uint256,uint8)": "infinite",
            "whiteList(address)": "2476",
            "whitelistUpdate(address,bool)": "28450"
        },
        "internal": {
            "fulfillRandomWords(uint256,uint256[] calldata)": "infinite"
        }
    }
}