{
  "contractName": "BalanceGame",
  "abi": [
    {
      "inputs": [
        {
          "internalType": "uint256",
          "name": "_cost",
          "type": "uint256"
        }
      ],
      "stateMutability": "nonpayable",
      "type": "constructor"
    },
    {
      "inputs": [
        {
          "internalType": "address",
          "name": "owner",
          "type": "address"
        }
      ],
      "name": "OwnableInvalidOwner",
      "type": "error"
    },
    {
      "inputs": [
        {
          "internalType": "address",
          "name": "account",
          "type": "address"
        }
      ],
      "name": "OwnableUnauthorizedAccount",
      "type": "error"
    },
    {
      "anonymous": false,
      "inputs": [
        {
          "indexed": true,
          "internalType": "uint256",
          "name": "gameId",
          "type": "uint256"
        }
      ],
      "name": "GameFinished",
      "type": "event"
    },
    {
      "anonymous": false,
      "inputs": [
        {
          "indexed": true,
          "internalType": "uint256",
          "name": "gameId",
          "type": "uint256"
        },
        {
          "indexed": false,
          "internalType": "string",
          "name": "questionA",
          "type": "string"
        },
        {
          "indexed": false,
          "internalType": "string",
          "name": "questionB",
          "type": "string"
        },
        {
          "indexed": false,
          "internalType": "uint256",
          "name": "deadline",
          "type": "uint256"
        },
        {
          "indexed": true,
          "internalType": "address",
          "name": "creator",
          "type": "address"
        }
      ],
      "name": "NewGame",
      "type": "event"
    },
    {
      "anonymous": false,
      "inputs": [
        {
          "indexed": true,
          "internalType": "uint256",
          "name": "gameId",
          "type": "uint256"
        },
        {
          "indexed": true,
          "internalType": "address",
          "name": "votedAddress",
          "type": "address"
        },
        {
          "indexed": true,
          "internalType": "enum BalanceGame.VoteOpttion",
          "name": "voteOpttion",
          "type": "uint8"
        }
      ],
      "name": "NewVote",
      "type": "event"
    },
    {
      "anonymous": false,
      "inputs": [
        {
          "indexed": true,
          "internalType": "address",
          "name": "previousOwner",
          "type": "address"
        },
        {
          "indexed": true,
          "internalType": "address",
          "name": "newOwner",
          "type": "address"
        }
      ],
      "name": "OwnershipTransferred",
      "type": "event"
    },
    {
      "anonymous": false,
      "inputs": [
        {
          "indexed": true,
          "internalType": "address",
          "name": "",
          "type": "address"
        },
        {
          "indexed": false,
          "internalType": "bool",
          "name": "status",
          "type": "bool"
        }
      ],
      "name": "WhiteListUpdate",
      "type": "event"
    },
    {
      "inputs": [],
      "name": "COST",
      "outputs": [
        {
          "internalType": "uint256",
          "name": "",
          "type": "uint256"
        }
      ],
      "stateMutability": "view",
      "type": "function",
      "constant": true
    },
    {
      "inputs": [],
      "name": "GAMEINDEX",
      "outputs": [
        {
          "internalType": "uint256",
          "name": "",
          "type": "uint256"
        }
      ],
      "stateMutability": "view",
      "type": "function",
      "constant": true
    },
    {
      "inputs": [
        {
          "internalType": "uint256",
          "name": "",
          "type": "uint256"
        }
      ],
      "name": "findGameById",
      "outputs": [
        {
          "internalType": "uint256",
          "name": "id",
          "type": "uint256"
        },
        {
          "internalType": "string",
          "name": "questionA",
          "type": "string"
        },
        {
          "internalType": "string",
          "name": "questionB",
          "type": "string"
        },
        {
          "internalType": "uint256",
          "name": "voteCountA",
          "type": "uint256"
        },
        {
          "internalType": "uint256",
          "name": "voteCountB",
          "type": "uint256"
        },
        {
          "internalType": "uint256",
          "name": "totalETH",
          "type": "uint256"
        },
        {
          "internalType": "uint256",
          "name": "deadline",
          "type": "uint256"
        },
        {
          "internalType": "address",
          "name": "creator",
          "type": "address"
        }
      ],
      "stateMutability": "view",
      "type": "function",
      "constant": true
    },
    {
      "inputs": [
        {
          "internalType": "address",
          "name": "",
          "type": "address"
        }
      ],
      "name": "isContinue",
      "outputs": [
        {
          "internalType": "bool",
          "name": "",
          "type": "bool"
        }
      ],
      "stateMutability": "view",
      "type": "function",
      "constant": true
    },
    {
      "inputs": [],
      "name": "owner",
      "outputs": [
        {
          "internalType": "address",
          "name": "",
          "type": "address"
        }
      ],
      "stateMutability": "view",
      "type": "function",
      "constant": true
    },
    {
      "inputs": [],
      "name": "renounceOwnership",
      "outputs": [],
      "stateMutability": "nonpayable",
      "type": "function"
    },
    {
      "inputs": [
        {
          "internalType": "address",
          "name": "newOwner",
          "type": "address"
        }
      ],
      "name": "transferOwnership",
      "outputs": [],
      "stateMutability": "nonpayable",
      "type": "function"
    },
    {
      "inputs": [
        {
          "internalType": "address",
          "name": "",
          "type": "address"
        }
      ],
      "name": "whiteList",
      "outputs": [
        {
          "internalType": "bool",
          "name": "",
          "type": "bool"
        }
      ],
      "stateMutability": "view",
      "type": "function",
      "constant": true
    },
    {
      "inputs": [
        {
          "internalType": "address",
          "name": "_newAddress",
          "type": "address"
        },
        {
          "internalType": "bool",
          "name": "_status",
          "type": "bool"
        }
      ],
      "name": "whitelistUpdate",
      "outputs": [],
      "stateMutability": "nonpayable",
      "type": "function"
    },
    {
      "inputs": [
        {
          "internalType": "string",
          "name": "_questionA",
          "type": "string"
        },
        {
          "internalType": "string",
          "name": "_questionB",
          "type": "string"
        },
        {
          "internalType": "uint256",
          "name": "_deadline",
          "type": "uint256"
        }
      ],
      "name": "createVote",
      "outputs": [
        {
          "internalType": "uint256",
          "name": "",
          "type": "uint256"
        }
      ],
      "stateMutability": "payable",
      "type": "function",
      "payable": true
    },
    {
      "inputs": [
        {
          "internalType": "uint256",
          "name": "_gameId",
          "type": "uint256"
        },
        {
          "internalType": "enum BalanceGame.VoteOpttion",
          "name": "_voteOption",
          "type": "uint8"
        }
      ],
      "name": "vote",
      "outputs": [],
      "stateMutability": "payable",
      "type": "function",
      "payable": true
    }
  ],
  "bytecode": "0x60a06040525f60015534801562000014575f80fd5b5060405162001b8f38038062001b8f83398181016040528101906200003a919062000221565b335f73ffffffffffffffffffffffffffffffffffffffff168173ffffffffffffffffffffffffffffffffffffffff1603620000ae575f6040517f1e4fbdf7000000000000000000000000000000000000000000000000000000008152600401620000a5919062000294565b60405180910390fd5b620000bf816200012460201b60201c565b508060808181525050600160055f3373ffffffffffffffffffffffffffffffffffffffff1673ffffffffffffffffffffffffffffffffffffffff1681526020019081526020015f205f6101000a81548160ff02191690831515021790555050620002af565b5f805f9054906101000a900473ffffffffffffffffffffffffffffffffffffffff169050815f806101000a81548173ffffffffffffffffffffffffffffffffffffffff021916908373ffffffffffffffffffffffffffffffffffffffff1602179055508173ffffffffffffffffffffffffffffffffffffffff168173ffffffffffffffffffffffffffffffffffffffff167f8be0079c531659141344cd1fd0a4f28419497f9722a3daafe3b4186f6b6457e060405160405180910390a35050565b5f80fd5b5f819050919050565b620001fd81620001e9565b811462000208575f80fd5b50565b5f815190506200021b81620001f2565b92915050565b5f60208284031215620002395762000238620001e5565b5b5f62000248848285016200020b565b91505092915050565b5f73ffffffffffffffffffffffffffffffffffffffff82169050919050565b5f6200027c8262000251565b9050919050565b6200028e8162000270565b82525050565b5f602082019050620002a95f83018462000283565b92915050565b6080516118b9620002d65f395f818161030701528181610558015261094c01526118b95ff3fe60806040526004361061009b575f3560e01c8063937cabed11610063578063937cabed14610181578063943e8216146101b1578063bf8fbbd2146101cd578063dbf65de0146101f7578063f24f94591461021f578063f2fde38b146102625761009b565b8063301ed59e1461009f578063372c12b1146100c95780634120c2c314610105578063715018a6146101415780638da5cb5b14610157575b5f80fd5b3480156100aa575f80fd5b506100b361028a565b6040516100c09190610d76565b60405180910390f35b3480156100d4575f80fd5b506100ef60048036038101906100ea9190610dfa565b610290565b6040516100fc9190610e3f565b60405180910390f35b348015610110575f80fd5b5061012b60048036038101906101269190610dfa565b6102ad565b6040516101389190610e3f565b60405180910390f35b34801561014c575f80fd5b506101556102ca565b005b348015610162575f80fd5b5061016b6102dd565b6040516101789190610e67565b60405180910390f35b61019b60048036038101906101969190610fe6565b610304565b6040516101a89190610d76565b60405180910390f35b6101cb60048036038101906101c69190611091565b610556565b005b3480156101d8575f80fd5b506101e161094a565b6040516101ee9190610d76565b60405180910390f35b348015610202575f80fd5b5061021d600480360381019061021891906110f9565b61096e565b005b34801561022a575f80fd5b5061024560048036038101906102409190611137565b610a1c565b6040516102599897969594939291906111dc565b60405180910390f35b34801561026d575f80fd5b5061028860048036038101906102839190610dfa565b610b8b565b005b60015481565b6005602052805f5260405f205f915054906101000a900460ff1681565b6004602052805f5260405f205f915054906101000a900460ff1681565b6102d2610c0f565b6102db5f610c96565b565b5f805f9054906101000a900473ffffffffffffffffffffffffffffffffffffffff16905090565b5f7f0000000000000000000000000000000000000000000000000000000000000000341015610368576040517f08c379a000000000000000000000000000000000000000000000000000000000815260040161035f906112b0565b60405180910390fd5b60055f3373ffffffffffffffffffffffffffffffffffffffff1673ffffffffffffffffffffffffffffffffffffffff1681526020019081526020015f205f9054906101000a900460ff166103f1576040517f08c379a00000000000000000000000000000000000000000000000000000000081526004016103e890611318565b60405180910390fd5b814210610433576040517f08c379a000000000000000000000000000000000000000000000000000000000815260040161042a90611380565b60405180910390fd5b60015f815480929190610445906113cb565b91905055505f60025f60015481526020019081526020015f209050600154815f01819055508481600101908161047b919061160c565b508381600201908161048d919061160c565b505f81600301819055505f81600401819055505f816006018190555082816007018190555033816008015f6101000a81548173ffffffffffffffffffffffffffffffffffffffff021916908373ffffffffffffffffffffffffffffffffffffffff1602179055503373ffffffffffffffffffffffffffffffffffffffff166001547fbd0eb6c105d1689222919a57e7192e892805fd8bf6c8c6578545f0cd96394b29878787604051610541939291906116db565b60405180910390a36001549150509392505050565b7f00000000000000000000000000000000000000000000000000000000000000003410156105b9576040517f08c379a00000000000000000000000000000000000000000000000000000000081526004016105b0906112b0565b60405180910390fd5b60055f3373ffffffffffffffffffffffffffffffffffffffff1673ffffffffffffffffffffffffffffffffffffffff1681526020019081526020015f205f9054906101000a900460ff16610642576040517f08c379a000000000000000000000000000000000000000000000000000000000815260040161063990611318565b60405180910390fd5b5f60025f8481526020019081526020015f2090505f73ffffffffffffffffffffffffffffffffffffffff16816008015f9054906101000a900473ffffffffffffffffffffffffffffffffffffffff1673ffffffffffffffffffffffffffffffffffffffff16036106e7576040517f08c379a00000000000000000000000000000000000000000000000000000000081526004016106de90611768565b60405180910390fd5b4281600701541161072d576040517f08c379a0000000000000000000000000000000000000000000000000000000008152600401610724906117d0565b60405180910390fd5b60035f8481526020019081526020015f205f3373ffffffffffffffffffffffffffffffffffffffff1673ffffffffffffffffffffffffffffffffffffffff1681526020019081526020015f205f9054906101000a900460ff16156107c6576040517f08c379a00000000000000000000000000000000000000000000000000000000081526004016107bd90611838565b60405180910390fd5b600160035f8581526020019081526020015f205f3373ffffffffffffffffffffffffffffffffffffffff1673ffffffffffffffffffffffffffffffffffffffff1681526020019081526020015f205f6101000a81548160ff0219169083151502179055508060050133908060018154018082558091505060019003905f5260205f20015f9091909190916101000a81548173ffffffffffffffffffffffffffffffffffffffff021916908373ffffffffffffffffffffffffffffffffffffffff1602179055505f600181111561089f5761089e611856565b5b8260018111156108b2576108b1611856565b5b146108d457806004015f8154809291906108cb906113cb565b919050556108ed565b806003015f8154809291906108e8906113cb565b919050555b5081600181111561090157610900611856565b5b3373ffffffffffffffffffffffffffffffffffffffff16847f07e0ee871a145b34a4f0117ec30da34c5bd4487a09f78fd3b31a366a55fd2d2960405160405180910390a4505050565b7f000000000000000000000000000000000000000000000000000000000000000081565b610976610c0f565b8060055f8473ffffffffffffffffffffffffffffffffffffffff1673ffffffffffffffffffffffffffffffffffffffff1681526020019081526020015f205f6101000a81548160ff0219169083151502179055508173ffffffffffffffffffffffffffffffffffffffff167f111b0cdde6a17355dbeb5ce9b87078297fec9b61b51550540b0d4e2f1e4913c282604051610a109190610e3f565b60405180910390a25050565b6002602052805f5260405f205f91509050805f015490806001018054610a419061143f565b80601f0160208091040260200160405190810160405280929190818152602001828054610a6d9061143f565b8015610ab85780601f10610a8f57610100808354040283529160200191610ab8565b820191905f5260205f20905b815481529060010190602001808311610a9b57829003601f168201915b505050505090806002018054610acd9061143f565b80601f0160208091040260200160405190810160405280929190818152602001828054610af99061143f565b8015610b445780601f10610b1b57610100808354040283529160200191610b44565b820191905f5260205f20905b815481529060010190602001808311610b2757829003601f168201915b505050505090806003015490806004015490806006015490806007015490806008015f9054906101000a900473ffffffffffffffffffffffffffffffffffffffff16905088565b610b93610c0f565b5f73ffffffffffffffffffffffffffffffffffffffff168173ffffffffffffffffffffffffffffffffffffffff1603610c03575f6040517f1e4fbdf7000000000000000000000000000000000000000000000000000000008152600401610bfa9190610e67565b60405180910390fd5b610c0c81610c96565b50565b610c17610d57565b73ffffffffffffffffffffffffffffffffffffffff16610c356102dd565b73ffffffffffffffffffffffffffffffffffffffff1614610c9457610c58610d57565b6040517f118cdaa7000000000000000000000000000000000000000000000000000000008152600401610c8b9190610e67565b60405180910390fd5b565b5f805f9054906101000a900473ffffffffffffffffffffffffffffffffffffffff169050815f806101000a81548173ffffffffffffffffffffffffffffffffffffffff021916908373ffffffffffffffffffffffffffffffffffffffff1602179055508173ffffffffffffffffffffffffffffffffffffffff168173ffffffffffffffffffffffffffffffffffffffff167f8be0079c531659141344cd1fd0a4f28419497f9722a3daafe3b4186f6b6457e060405160405180910390a35050565b5f33905090565b5f819050919050565b610d7081610d5e565b82525050565b5f602082019050610d895f830184610d67565b92915050565b5f604051905090565b5f80fd5b5f80fd5b5f73ffffffffffffffffffffffffffffffffffffffff82169050919050565b5f610dc982610da0565b9050919050565b610dd981610dbf565b8114610de3575f80fd5b50565b5f81359050610df481610dd0565b92915050565b5f60208284031215610e0f57610e0e610d98565b5b5f610e1c84828501610de6565b91505092915050565b5f8115159050919050565b610e3981610e25565b82525050565b5f602082019050610e525f830184610e30565b92915050565b610e6181610dbf565b82525050565b5f602082019050610e7a5f830184610e58565b92915050565b5f80fd5b5f80fd5b5f601f19601f8301169050919050565b7f4e487b71000000000000000000000000000000000000000000000000000000005f52604160045260245ffd5b610ece82610e88565b810181811067ffffffffffffffff82111715610eed57610eec610e98565b5b80604052505050565b5f610eff610d8f565b9050610f0b8282610ec5565b919050565b5f67ffffffffffffffff821115610f2a57610f29610e98565b5b610f3382610e88565b9050602081019050919050565b828183375f83830152505050565b5f610f60610f5b84610f10565b610ef6565b905082815260208101848484011115610f7c57610f7b610e84565b5b610f87848285610f40565b509392505050565b5f82601f830112610fa357610fa2610e80565b5b8135610fb3848260208601610f4e565b91505092915050565b610fc581610d5e565b8114610fcf575f80fd5b50565b5f81359050610fe081610fbc565b92915050565b5f805f60608486031215610ffd57610ffc610d98565b5b5f84013567ffffffffffffffff81111561101a57611019610d9c565b5b61102686828701610f8f565b935050602084013567ffffffffffffffff81111561104757611046610d9c565b5b61105386828701610f8f565b925050604061106486828701610fd2565b9150509250925092565b6002811061107a575f80fd5b50565b5f8135905061108b8161106e565b92915050565b5f80604083850312156110a7576110a6610d98565b5b5f6110b485828601610fd2565b92505060206110c58582860161107d565b9150509250929050565b6110d881610e25565b81146110e2575f80fd5b50565b5f813590506110f3816110cf565b92915050565b5f806040838503121561110f5761110e610d98565b5b5f61111c85828601610de6565b925050602061112d858286016110e5565b9150509250929050565b5f6020828403121561114c5761114b610d98565b5b5f61115984828501610fd2565b91505092915050565b5f81519050919050565b5f82825260208201905092915050565b5f5b8381101561119957808201518184015260208101905061117e565b5f8484015250505050565b5f6111ae82611162565b6111b8818561116c565b93506111c881856020860161117c565b6111d181610e88565b840191505092915050565b5f610100820190506111f05f83018b610d67565b8181036020830152611202818a6111a4565b9050818103604083015261121681896111a4565b90506112256060830188610d67565b6112326080830187610d67565b61123f60a0830186610d67565b61124c60c0830185610d67565b61125960e0830184610e58565b9998505050505050505050565b7f4e6f7420456e6f756768204574686572000000000000000000000000000000005f82015250565b5f61129a60108361116c565b91506112a582611266565b602082019050919050565b5f6020820190508181035f8301526112c78161128e565b9050919050565b7f6f6e6c79207573652057686974656c69737400000000000000000000000000005f82015250565b5f61130260128361116c565b915061130d826112ce565b602082019050919050565b5f6020820190508181035f83015261132f816112f6565b9050919050565b7f696e76616c696420646561646c696e65000000000000000000000000000000005f82015250565b5f61136a60108361116c565b915061137582611336565b602082019050919050565b5f6020820190508181035f8301526113978161135e565b9050919050565b7f4e487b71000000000000000000000000000000000000000000000000000000005f52601160045260245ffd5b5f6113d582610d5e565b91507fffffffffffffffffffffffffffffffffffffffffffffffffffffffffffffffff82036114075761140661139e565b5b600182019050919050565b7f4e487b71000000000000000000000000000000000000000000000000000000005f52602260045260245ffd5b5f600282049050600182168061145657607f821691505b60208210810361146957611468611412565b5b50919050565b5f819050815f5260205f209050919050565b5f6020601f8301049050919050565b5f82821b905092915050565b5f600883026114cb7fffffffffffffffffffffffffffffffffffffffffffffffffffffffffffffffff82611490565b6114d58683611490565b95508019841693508086168417925050509392505050565b5f819050919050565b5f61151061150b61150684610d5e565b6114ed565b610d5e565b9050919050565b5f819050919050565b611529836114f6565b61153d61153582611517565b84845461149c565b825550505050565b5f90565b611551611545565b61155c818484611520565b505050565b5b8181101561157f576115745f82611549565b600181019050611562565b5050565b601f8211156115c4576115958161146f565b61159e84611481565b810160208510156115ad578190505b6115c16115b985611481565b830182611561565b50505b505050565b5f82821c905092915050565b5f6115e45f19846008026115c9565b1980831691505092915050565b5f6115fc83836115d5565b9150826002028217905092915050565b61161582611162565b67ffffffffffffffff81111561162e5761162d610e98565b5b611638825461143f565b611643828285611583565b5f60209050601f831160018114611674575f8415611662578287015190505b61166c85826115f1565b8655506116d3565b601f1984166116828661146f565b5f5b828110156116a957848901518255600182019150602085019450602081019050611684565b868310156116c657848901516116c2601f8916826115d5565b8355505b6001600288020188555050505b505050505050565b5f6060820190508181035f8301526116f381866111a4565b9050818103602083015261170781856111a4565b90506117166040830184610d67565b949350505050565b7f696e636f72726563742067616d654964000000000000000000000000000000005f82015250565b5f61175260108361116c565b915061175d8261171e565b602082019050919050565b5f6020820190508181035f83015261177f81611746565b9050919050565b7f546869732067616d652069732066696e69736865642067616d650000000000005f82015250565b5f6117ba601a8361116c565b91506117c582611786565b602082019050919050565b5f6020820190508181035f8301526117e7816117ae565b9050919050565b7f616c726561647920766f746564000000000000000000000000000000000000005f82015250565b5f611822600d8361116c565b915061182d826117ee565b602082019050919050565b5f6020820190508181035f83015261184f81611816565b9050919050565b7f4e487b71000000000000000000000000000000000000000000000000000000005f52602160045260245ffdfea2646970667358221220ab43c382e3d22ba4262b58e0c3b52996875249bd872429a20243e5448b3e62f364736f6c63430008140033",
  "immutableReferences": {
    "209": [
      {
        "length": 32,
        "start": 775
      },
      {
        "length": 32,
        "start": 1368
      },
      {
        "length": 32,
        "start": 2380
      }
    ]
  },
  "source": "// SPDX-License-Identifier: MIT\r\npragma solidity ^0.8.0;\r\n\r\nimport \"@openzeppelin/contracts/access/Ownable.sol\";\r\n\r\ncontract BalanceGame is Ownable(msg.sender) {    \r\n    enum VoteOpttion { A, B }\r\n\r\n    struct Game {\r\n        uint256 id;\r\n        string questionA;\r\n        string questionB;\r\n        uint256 voteCountA;\r\n        uint256 voteCountB;\r\n        address[] votedList;\r\n        uint256 totalETH;\r\n        uint256 deadline;\r\n        address creator;\r\n    }\r\n\r\n    uint256 immutable public COST; //   s \r\n    uint256 public GAMEINDEX = 0; // ID \r\n\r\n    constructor(uint256 _cost) {\r\n        COST = _cost;\r\n        whiteList[msg.sender] = true;\r\n    }\r\n\r\n    mapping (uint256 => Game) public findGameById; //   \r\n    mapping (uint256 => mapping(address => bool)) voteCheck; //   \r\n    mapping (address => bool) public isContinue; //   \r\n    mapping (address => bool) public whiteList; // \r\n\r\n    event NewGame(uint256 indexed gameId, string questionA, string questionB, uint256 deadline, address indexed creator);\r\n    event GameFinished(uint256 indexed gameId);\r\n    event NewVote(uint256 indexed gameId, address indexed votedAddress, VoteOpttion indexed voteOpttion);\r\n    event WhiteListUpdate(address indexed, bool status);\r\n\r\n    modifier onlyWhitelist {\r\n        require(whiteList[msg.sender], \"only use Whitelist\");\r\n        _;\r\n    }\r\n\r\n    modifier etherCheck {   \r\n        require(msg.value >= COST, \"Not Enough Ether\");\r\n        _;\r\n    }\r\n\r\n    function whitelistUpdate(address _newAddress, bool _status) public onlyOwner {\r\n        whiteList[_newAddress] = _status;\r\n        emit WhiteListUpdate(_newAddress, _status);\r\n    }\r\n\r\n    function createVote(string memory _questionA, string memory _questionB, uint256 _deadline) public payable etherCheck onlyWhitelist returns(uint256) {\r\n        require(block.timestamp < _deadline, \"invalid deadline\");\r\n        GAMEINDEX++;\r\n\r\n        Game storage game = findGameById[GAMEINDEX];\r\n        game.id = GAMEINDEX;\r\n        game.questionA = _questionA;\r\n        game.questionB = _questionB;\r\n        game.voteCountA = 0;\r\n        game.voteCountB = 0;\r\n        game.totalETH = 0;\r\n        game.deadline = _deadline;\r\n        game.creator = msg.sender;\r\n\r\n        //   \r\n        emit NewGame(GAMEINDEX, _questionA, _questionB, _deadline, msg.sender); \r\n        \r\n        return GAMEINDEX;\r\n    }\r\n\r\n    function vote(uint256 _gameId, VoteOpttion _voteOption ) public payable etherCheck onlyWhitelist {\r\n        Game storage game = findGameById[_gameId];\r\n        require(game.creator != address(0) , \"incorrect gameId\");\r\n        require(game.deadline > block.timestamp, \"This game is finished game\");\r\n        require(!voteCheck[_gameId][msg.sender], \"already voted\");\r\n\r\n        //   \r\n        voteCheck[_gameId][msg.sender] = true;\r\n        game.votedList.push(msg.sender);\r\n\r\n        //  \r\n        _voteOption == VoteOpttion.A ? game.voteCountA++ : game.voteCountB++; \r\n\r\n        //  \r\n        emit NewVote(_gameId, msg.sender, _voteOption);\r\n    }\r\n} \r\n\r\n",
  "sourcePath": "C:\\Users\\kero2\\balance-game-smartcontract\\contracts\\BalanceGame.sol",
  "compiler": {
    "name": "solc",
    "version": "0.8.20+commit.a1b79de6.Emscripten.clang"
  },
  "schemaVersion": "3.4.16",
  "updatedAt": "2025-08-04T09:23:38.975Z",
  "networkType": "ethereum",
  "devdoc": {
    "errors": {
      "OwnableInvalidOwner(address)": [
        {
          "details": "The owner is not a valid owner account. (eg. `address(0)`)"
        }
      ],
      "OwnableUnauthorizedAccount(address)": [
        {
          "details": "The caller account is not authorized to perform an operation."
        }
      ]
    },
    "kind": "dev",
    "methods": {
      "owner()": {
        "details": "Returns the address of the current owner."
      },
      "renounceOwnership()": {
        "details": "Leaves the contract without owner. It will not be possible to call `onlyOwner` functions. Can only be called by the current owner. NOTE: Renouncing ownership will leave the contract without an owner, thereby disabling any functionality that is only available to the owner."
      },
      "transferOwnership(address)": {
        "details": "Transfers ownership of the contract to a new account (`newOwner`). Can only be called by the current owner."
      }
    },
    "version": 1
  },
  "userdoc": {
    "kind": "user",
    "methods": {},
    "version": 1
  }
}